{
	"data": {
		"bytecode": {
			"linkReferences": {},
			"object": "6080604052600160045560006009819055620a8c00600b55600c805463ffffffff191662c80064179055600d553480156200003957600080fd5b5060405162002cba38038062002cba8339810160408190526200005c9162000212565b600080546001600160a01b031916339081178255604051909182917f8be0079c531659141344cd1fd0a4f28419497f9722a3daafe3b4186f6b6457e0908290a350600180546001600160a01b039788166001600160a01b03199182168117835560028054988a169883169890981790975560058054968916968216969096178655600394909455600a8390556040805160a0810182529687526103e86020880181815291880194855260006060890181815261ffff95861660808b019081526007805496870181559092529851939097027fa66cc928b5edb82af9bd49922954155ab7b0942694bea4ce44661d9a8736c6888101805494909a16939096169290921790975595517fa66cc928b5edb82af9bd49922954155ab7b0942694bea4ce44661d9a8736c68984015590517fa66cc928b5edb82af9bd49922954155ab7b0942694bea4ce44661d9a8736c68a83015592517fa66cc928b5edb82af9bd49922954155ab7b0942694bea4ce44661d9a8736c68b82015590517fa66cc928b5edb82af9bd49922954155ab7b0942694bea4ce44661d9a8736c68c90910180549190921661ffff19909116179055600955620002ae565b60008060008060008060c087890312156200022c57600080fd5b8651620002398162000295565b60208801519096506200024c8162000295565b60408801519095506200025f8162000295565b80945050606087015192506080870151915060a087015161ffff811681146200028757600080fd5b809150509295509295509295565b6001600160a01b0381168114620002ab57600080fd5b50565b6129fc80620002be6000396000f3fe608060405234801561001057600080fd5b50600436106102745760003560e01c80637cd07e4711610151578063a5b870c7116100c3578063c55b5e6211610087578063c55b5e62146105be578063d49e77cd146105d1578063d8239d78146105e4578063d9638422146105ed578063ebebad7614610600578063f2fde38b1461061357600080fd5b8063a5b870c71461056e578063a6c1a22414610581578063af61474f14610594578063b491ccba146105a2578063bf27c437146105ab57600080fd5b80638d88a90e116101155780638d88a90e146104c65780638da5cb5b146104d95780638dbb1e3a146104ea5780638dbdbe6d146104fd57806393f1a40b146105105780639a0205801461056557600080fd5b80637cd07e471461047157806383de03b51461048457806384e82a33146104975780638705fcd4146104aa5780638aa28550146104bd57600080fd5b806348cd4cb1116101ea5780635ffe6146116101ae5780635ffe6146146103ff578063630b5ba114610412578063715018a61461041a578063715433131461042257806371765d211461042a5780637bb0b10a1461044a57600080fd5b806348cd4cb11461039457806351eb05a61461039d5780635312ea8e146103b057806357b48b1e146103c35780635b1eb875146103ec57600080fd5b80631dd4850a1161023c5780631dd4850a1461030a57806323cf31181461031d578063412753581461033057806341441d3b1461035b578063441a3e701461036e578063454b06081461038157600080fd5b8063081e3eda146102795780630ba84cd2146102905780631058d281146102a55780631526fe27146102b857806317caf6f114610301575b600080fd5b6007545b6040519081526020015b60405180910390f35b6102a361029e3660046126fe565b610626565b005b6102a36102b33660046126fe565b610666565b6102cb6102c63660046126fe565b6107e1565b604080516001600160a01b039096168652602086019490945292840191909152606083015261ffff16608082015260a001610287565b61027d60095481565b6102a36103183660046126fe565b610830565b6102a361032b36600461268c565b61085f565b600554610343906001600160a01b031681565b6040516001600160a01b039091168152602001610287565b6102a36103693660046126fe565b6108ab565b6102a361037c3660046127b1565b6109da565b6102a361038f3660046126fe565b610ba5565b61027d600a5481565b6102a36103ab3660046126fe565b610e0c565b6102a36103be3660046126fe565b611041565b61027d6103d136600461268c565b6001600160a01b03166000908152600e602052604090205490565b6102a36103fa3660046126e3565b6110da565b6102a361040d3660046126fe565b61111c565b6102a361114b565b6102a3611176565b6102a36111ea565b61027d61043836600461268c565b600e6020526000908152604090205481565b600c5461045e9062010000900461ffff1681565b60405161ffff9091168152602001610287565b600654610343906001600160a01b031681565b6102a36104923660046126fe565b611265565b6102a36104a5366004612760565b611294565b6102a36104b836600461268c565b61148e565b61027d60045481565b6102a36104d436600461268c565b61150a565b6000546001600160a01b0316610343565b61027d6104f83660046127b1565b611572565b6102a361050b3660046127d3565b61158f565b61054a61051e366004612730565b600860209081526000928352604080842090915290825290208054600182015460029092015490919083565b60408051938452602084019290925290820152606001610287565b61027d60035481565b600f54610343906001600160a01b031681565b6102a361058f3660046126e3565b6117d1565b600c5461045e9061ffff1681565b61027d600b5481565b6102a36105b936600461268c565b61181f565b61027d6105cc366004612730565b61186b565b600254610343906001600160a01b031681565b61027d600d5481565b6102a36105fb36600461280c565b6119d6565b600154610343906001600160a01b031681565b6102a361062136600461268c565b611b5b565b6000546001600160a01b031633146106595760405162461bcd60e51b815260040161065090612888565b60405180910390fd5b61066161114b565b600355565b6000600760008154811061067c5761067c61298a565b600091825260208083203384527f5eff886ea0ce6ca488a3d6e336d6c0f75f46d19b42c06ce5ee98e42c96d256c790915260409092208054600590920290920192508311156107025760405162461bcd60e51b81526020600482015260126024820152711dda5d1a191c985dce881b9bdd0819dbdbd960721b6044820152606401610650565b61070c6000610e0c565b6000610746826001015461074064e8d4a5100061073a87600301548760000154611c4590919063ffffffff16565b90611cc4565b90611d1f565b90508015610758576107583382611d7b565b831561078257815461076a9085611d1f565b82558254610782906001600160a01b03163386611ecc565b6003830154825461079d9164e8d4a510009161073a91611c45565b600183015560405184815260009033907ff279e6a1f5e320cca91135676d9cb6e44ca8a08c0b88342bcdb1144f6511b568906020015b60405180910390a350505050565b600781815481106107f157600080fd5b6000918252602090912060059091020180546001820154600283015460038401546004909401546001600160a01b0390931694509092909161ffff1685565b6000546001600160a01b0316331461085a5760405162461bcd60e51b815260040161065090612888565b600b55565b6000546001600160a01b031633146108895760405162461bcd60e51b815260040161065090612888565b600680546001600160a01b0319166001600160a01b0392909216919091179055565b600060076000815481106108c1576108c161298a565b600091825260208083203384527f5eff886ea0ce6ca488a3d6e336d6c0f75f46d19b42c06ce5ee98e42c96d256c79091526040832060059092020192509061090890610e0c565b80541561095157600061093d826001015461074064e8d4a5100061073a87600301548760000154611c4590919063ffffffff16565b9050801561094f5761094f3382611d7b565b505b821561097d57815461096e906001600160a01b0316333086611f2f565b805461097a9084611f67565b81555b600382015481546109989164e8d4a510009161073a91611c45565b600182015560405183815260009033907f90890809c654f11d6e72a28fa60149770a0d11ec6c92319d6ceb2bb0a4ea1a159060200160405180910390a3505050565b6000600783815481106109ef576109ef61298a565b600091825260208083208684526008825260408085203386529092529220600b5460028201546005909302909301935091610a2a9190611f67565b4211610a845760405162461bcd60e51b815260206004820152602360248201527f6465706f736974652074696d65206973206c617365207468656e2072657175696044820152621c995960ea1b6064820152608401610650565b8054831115610aca5760405162461bcd60e51b81526020600482015260126024820152711dda5d1a191c985dce881b9bdd0819dbdbd960721b6044820152606401610650565b610ad384610e0c565b610adc84611fc6565b6000610b0a826001015461074064e8d4a5100061073a87600301548760000154611c4590919063ffffffff16565b90508015610b1c57610b1c3382611d7b565b8315610b46578154610b2e9085611d1f565b82558254610b46906001600160a01b03163386611ecc565b60038301548254610b619164e8d4a510009161073a91611c45565b6001830155604051848152859033907ff279e6a1f5e320cca91135676d9cb6e44ca8a08c0b88342bcdb1144f6511b568906020015b60405180910390a35050505050565b6006546001600160a01b0316610bf45760405162461bcd60e51b815260206004820152601460248201527336b4b3b930ba329d1037379036b4b3b930ba37b960611b6044820152606401610650565b600060078281548110610c0957610c0961298a565b6000918252602082206005919091020180546040516370a0823160e01b81523060048201529193506001600160a01b0316919082906370a082319060240160206040518083038186803b158015610c5f57600080fd5b505afa158015610c73573d6000803e3d6000fd5b505050506040513d601f19601f82011682018060405250810190610c979190612717565b600654909150610cb4906001600160a01b03848116911683612046565b60065460405163ce5494bb60e01b81526001600160a01b038481166004830152600092169063ce5494bb90602401602060405180830381600087803b158015610cfc57600080fd5b505af1158015610d10573d6000803e3d6000fd5b505050506040513d601f19601f82011682018060405250810190610d3491906126a9565b6040516370a0823160e01b81523060048201529091506001600160a01b038216906370a082319060240160206040518083038186803b158015610d7657600080fd5b505afa158015610d8a573d6000803e3d6000fd5b505050506040513d601f19601f82011682018060405250810190610dae9190612717565b8214610deb5760405162461bcd60e51b815260206004820152600c60248201526b1b5a59dc985d194e8818985960a21b6044820152606401610650565b83546001600160a01b0319166001600160a01b039190911617909255505050565b600060078281548110610e2157610e2161298a565b9060005260206000209060050201905080600201544311610e40575050565b80546040516370a0823160e01b81523060048201526000916001600160a01b0316906370a082319060240160206040518083038186803b158015610e8357600080fd5b505afa158015610e97573d6000803e3d6000fd5b505050506040513d601f19601f82011682018060405250810190610ebb9190612717565b9050801580610ecc57506001820154155b15610edc57504360029091015550565b6000610eec836002015443611572565b90506000610f1960095461073a8660010154610f1360035487611c4590919063ffffffff16565b90611c45565b6001546002549192506001600160a01b03908116916340c10f199116610f4084600a611cc4565b6040516001600160e01b031960e085901b1681526001600160a01b0390921660048301526024820152604401600060405180830381600087803b158015610f8657600080fd5b505af1158015610f9a573d6000803e3d6000fd5b50506001546040516340c10f1960e01b8152306004820152602481018590526001600160a01b0390911692506340c10f199150604401600060405180830381600087803b158015610fea57600080fd5b505af1158015610ffe573d6000803e3d6000fd5b5050505061102c6110218461073a64e8d4a5100085611c4590919063ffffffff16565b600386015490611f67565b60038501555050436002909201919091555050565b6000600782815481106110565761105661298a565b6000918252602080832085845260088252604080852033808752935284208054858255600182019590955560059093020180549094509192916110a6916001600160a01b03919091169083611ecc565b604051818152849033907fbb757047c2b5f3974fe26b7c10f732e7bce710b0952a71082702781e62ae0595906020016107d3565b6000546001600160a01b031633146111045760405162461bcd60e51b815260040161065090612888565b600c805461ffff191661ffff92909216919091179055565b6000546001600160a01b031633146111465760405162461bcd60e51b815260040161065090612888565b600455565b60075460005b818110156111725761116281610e0c565b61116b81612959565b9050611151565b5050565b6000546001600160a01b031633146111a05760405162461bcd60e51b815260040161065090612888565b600080546040516001600160a01b03909116907f8be0079c531659141344cd1fd0a4f28419497f9722a3daafe3b4186f6b6457e0908390a3600080546001600160a01b0319169055565b336000818152600e6020526040908190205460015491516340c10f1960e01b8152600481019390935260248301819052916001600160a01b03909116906340c10f1990604401600060405180830381600087803b15801561124a57600080fd5b505af115801561125e573d6000803e3d6000fd5b5050505050565b6000546001600160a01b0316331461128f5760405162461bcd60e51b815260040161065090612888565b600d55565b6000546001600160a01b031633146112be5760405162461bcd60e51b815260040161065090612888565b6127108261ffff1611156113225760405162461bcd60e51b815260206004820152602560248201527f6164643a20696e76616c6964206465706f7369742066656520626173697320706044820152646f696e747360d81b6064820152608401610650565b80156113305761133061114b565b6000600a54431161134357600a54611345565b435b6009549091506113559086611f67565b6009556040805160a0810182526001600160a01b0386811682526020820188815292820184815260006060840181815261ffff8981166080870190815260078054600181018255945295517fa66cc928b5edb82af9bd49922954155ab7b0942694bea4ce44661d9a8736c688600590940293840180546001600160a01b031916919096161790945594517fa66cc928b5edb82af9bd49922954155ab7b0942694bea4ce44661d9a8736c68982015590517fa66cc928b5edb82af9bd49922954155ab7b0942694bea4ce44661d9a8736c68a82015592517fa66cc928b5edb82af9bd49922954155ab7b0942694bea4ce44661d9a8736c68b84015590517fa66cc928b5edb82af9bd49922954155ab7b0942694bea4ce44661d9a8736c68c909201805461ffff19169290911691909117905561125e61216a565b6005546001600160a01b031633146114e85760405162461bcd60e51b815260206004820152601860248201527f736574466565416464726573733a20464f5242494444454e00000000000000006044820152606401610650565b600580546001600160a01b0319166001600160a01b0392909216919091179055565b6002546001600160a01b031633146115505760405162461bcd60e51b81526020600482015260096024820152686465763a207775743f60b81b6044820152606401610650565b600280546001600160a01b0319166001600160a01b0392909216919091179055565b60045460009061158690610f138486611d1f565b90505b92915050565b6000600784815481106115a4576115a461298a565b600091825260208083208784526008825260408085203386529092529220600590910290910191506115d585610e0c565b6000841180156115ef5750600f546001600160a01b031615155b801561160357506001600160a01b03831615155b801561161857506001600160a01b0383163314155b801561162357508054155b1561168e57600f54604051630c7f7b6b60e01b81523360048201526001600160a01b03858116602483015290911690630c7f7b6b90604401600060405180830381600087803b15801561167557600080fd5b505af1158015611689573d6000803e3d6000fd5b505050505b61169785611fc6565b8054156116e45760006116cc826001015461074064e8d4a5100061073a87600301548760000154611c4590919063ffffffff16565b905080156116de576116de3382611d7b565b506116eb565b4260028201555b831561177d578154611708906001600160a01b0316333087611f2f565b600482015461ffff161561176e576004820154600090611735906127109061073a90889061ffff16611c45565b6005548454919250611754916001600160a01b03908116911683611ecc565b81546117669082906107409088611f67565b82555061177d565b805461177a9085611f67565b81555b600382015481546117989164e8d4a510009161073a91611c45565b6001820155604051848152859033907f90890809c654f11d6e72a28fa60149770a0d11ec6c92319d6ceb2bb0a4ea1a1590602001610b96565b6000546001600160a01b031633146117fb5760405162461bcd60e51b815260040161065090612888565b600c805461ffff909216620100000263ffff00001990921691909117905542600d55565b6000546001600160a01b031633146118495760405162461bcd60e51b815260040161065090612888565b600f80546001600160a01b0319166001600160a01b0392909216919091179055565b600080600784815481106118815761188161298a565b600091825260208083208784526008825260408085206001600160a01b03898116875293528085206005949094029091016003810154815492516370a0823160e01b815230600482015291965093949291909116906370a082319060240160206040518083038186803b1580156118f757600080fd5b505afa15801561190b573d6000803e3d6000fd5b505050506040513d601f19601f8201168201806040525081019061192f9190612717565b905083600201544311801561194357508015155b156119a3576000611958856002015443611572565b9050600061197f60095461073a8860010154610f1360035487611c4590919063ffffffff16565b905061199e6119978461073a8464e8d4a51000611c45565b8590611f67565b935050505b6119cb836001015461074064e8d4a5100061073a868860000154611c4590919063ffffffff16565b979650505050505050565b6000546001600160a01b03163314611a005760405162461bcd60e51b815260040161065090612888565b6127108261ffff161115611a645760405162461bcd60e51b815260206004820152602560248201527f7365743a20696e76616c6964206465706f7369742066656520626173697320706044820152646f696e747360d81b6064820152608401610650565b8015611a7257611a7261114b565b611ab583611aaf60078781548110611a8c57611a8c61298a565b906000526020600020906005020160010154600954611d1f90919063ffffffff16565b90611f67565b600981905550600060078581548110611ad057611ad061298a565b90600052602060002090600502016001015490508360078681548110611af857611af861298a565b9060005260206000209060050201600101819055508260078681548110611b2157611b2161298a565b906000526020600020906005020160040160006101000a81548161ffff021916908361ffff16021790555083811461125e5761125e61216a565b6000546001600160a01b03163314611b855760405162461bcd60e51b815260040161065090612888565b6001600160a01b038116611bea5760405162461bcd60e51b815260206004820152602660248201527f4f776e61626c653a206e6577206f776e657220697320746865207a65726f206160448201526564647265737360d01b6064820152608401610650565b600080546040516001600160a01b03808516939216917f8be0079c531659141344cd1fd0a4f28419497f9722a3daafe3b4186f6b6457e091a3600080546001600160a01b0319166001600160a01b0392909216919091179055565b600082611c5457506000611589565b6000611c6083856128f7565b905082611c6d85836128d5565b146115865760405162461bcd60e51b815260206004820152602160248201527f536166654d6174683a206d756c7469706c69636174696f6e206f766572666c6f6044820152607760f81b6064820152608401610650565b6000808211611d155760405162461bcd60e51b815260206004820152601a60248201527f536166654d6174683a206469766973696f6e206279207a65726f0000000000006044820152606401610650565b61158682846128d5565b600082821115611d715760405162461bcd60e51b815260206004820152601e60248201527f536166654d6174683a207375627472616374696f6e206f766572666c6f7700006044820152606401610650565b6115868284612916565b6001546040516370a0823160e01b81523060048201526000916001600160a01b0316906370a082319060240160206040518083038186803b158015611dbf57600080fd5b505afa158015611dd3573d6000803e3d6000fd5b505050506040513d601f19601f82011682018060405250810190611df79190612717565b905080821115611e8e5760015460405163a9059cbb60e01b81526001600160a01b038581166004830152602482018490529091169063a9059cbb906044015b602060405180830381600087803b158015611e5057600080fd5b505af1158015611e64573d6000803e3d6000fd5b505050506040513d601f19601f82011682018060405250810190611e8891906126c6565b50505050565b60015460405163a9059cbb60e01b81526001600160a01b038581166004830152602482018490529091169063a9059cbb90604401611e36565b505050565b6040516001600160a01b038316602482015260448101829052611ec790849063a9059cbb60e01b906064015b60408051601f198184030181529190526020810180516001600160e01b03166001600160e01b031990931692909217909152612226565b6040516001600160a01b0380851660248301528316604482015260648101829052611e889085906323b872dd60e01b90608401611ef8565b600080611f7483856128bd565b9050838110156115865760405162461bcd60e51b815260206004820152601b60248201527f536166654d6174683a206164646974696f6e206f766572666c6f7700000000006044820152606401610650565b600060078281548110611fdb57611fdb61298a565b6000918252602080832085845260088252604080852033865290925290832060018101546003600590940290920192830154815493955090939261202f92916107409164e8d4a510009161073a9190611c45565b90508015611e8857611e88338284600201546122f8565b8015806120cf5750604051636eb1769f60e11b81523060048201526001600160a01b03838116602483015284169063dd62ed3e9060440160206040518083038186803b15801561209557600080fd5b505afa1580156120a9573d6000803e3d6000fd5b505050506040513d601f19601f820116820180604052508101906120cd9190612717565b155b61213a5760405162461bcd60e51b815260206004820152603660248201527f5361666542455032303a20617070726f76652066726f6d206e6f6e2d7a65726f60448201527520746f206e6f6e2d7a65726f20616c6c6f77616e636560501b6064820152608401610650565b6040516001600160a01b038316602482015260448101829052611ec790849063095ea7b360e01b90606401611ef8565b600754600060015b828110156121c3576121b1600782815481106121905761219061298a565b90600052602060002090600502016001015483611f6790919063ffffffff16565b91506121bc81612959565b9050612172565b508015611172576121d5816003611cc4565b90506121f281611aaf6007600081548110611a8c57611a8c61298a565b60098190555080600760008154811061220d5761220d61298a565b9060005260206000209060050201600101819055505050565b600061227b826040518060400160405280602081526020017f5361666542455032303a206c6f772d6c6576656c2063616c6c206661696c6564815250856001600160a01b031661250b9092919063ffffffff16565b805190915015611ec7578080602001905181019061229991906126c6565b611ec75760405162461bcd60e51b815260206004820152602a60248201527f5361666542455032303a204245503230206f7065726174696f6e20646964206e6044820152691bdd081cdd58d8d9595960b21b6064820152608401610650565b600080600d5411801561230c5750600d5482115b156123245750600c5462010000900461ffff1661232d565b50600c5461ffff165b600f546001600160a01b0316158015906123475750600081115b15611e8857600f54604051634a9fefc760e01b81526001600160a01b0386811660048301526000921690634a9fefc79060240160206040518083038186803b15801561239257600080fd5b505afa1580156123a6573d6000803e3d6000fd5b505050506040513d601f19601f820116820180604052508101906123ca91906126a9565b905060006123de61271061073a8786611c45565b90506001600160a01b038216158015906123f85750600081115b15612503576001600160a01b0382166000908152600e60205260409020546124219082906128bd565b6001600160a01b038381166000818152600e6020526040908190209390935560015492516340c10f1960e01b81526004810191909152602481018490529116906340c10f1990604401600060405180830381600087803b15801561248457600080fd5b505af1158015612498573d6000803e3d6000fd5b5050600f54604051631b82d29760e31b81526001600160a01b03868116600483015260248201869052909116925063dc1694b89150604401600060405180830381600087803b1580156124ea57600080fd5b505af11580156124fe573d6000803e3d6000fd5b505050505b505050505050565b606061251a8484600085612524565b90505b9392505050565b6060824710156125855760405162461bcd60e51b815260206004820152602660248201527f416464726573733a20696e73756666696369656e742062616c616e636520666f6044820152651c8818d85b1b60d21b6064820152608401610650565b843b6125d35760405162461bcd60e51b815260206004820152601d60248201527f416464726573733a2063616c6c20746f206e6f6e2d636f6e74726163740000006044820152606401610650565b600080866001600160a01b031685876040516125ef9190612839565b60006040518083038185875af1925050503d806000811461262c576040519150601f19603f3d011682016040523d82523d6000602084013e612631565b606091505b50915091506119cb8282866060831561264b57508161251d565b82511561265b5782518084602001fd5b8160405162461bcd60e51b81526004016106509190612855565b803561ffff8116811461268757600080fd5b919050565b60006020828403121561269e57600080fd5b8135611586816129a0565b6000602082840312156126bb57600080fd5b8151611586816129a0565b6000602082840312156126d857600080fd5b8151611586816129b8565b6000602082840312156126f557600080fd5b61158682612675565b60006020828403121561271057600080fd5b5035919050565b60006020828403121561272957600080fd5b5051919050565b6000806040838503121561274357600080fd5b823591506020830135612755816129a0565b809150509250929050565b6000806000806080858703121561277657600080fd5b843593506020850135612788816129a0565b925061279660408601612675565b915060608501356127a6816129b8565b939692955090935050565b600080604083850312156127c457600080fd5b50508035926020909101359150565b6000806000606084860312156127e857600080fd5b83359250602084013591506040840135612801816129a0565b809150509250925092565b6000806000806080858703121561282257600080fd5b843593506020850135925061279660408601612675565b6000825161284b81846020870161292d565b9190910192915050565b602081526000825180602084015261287481604085016020870161292d565b601f01601f19169190910160400192915050565b6020808252818101527f4f776e61626c653a2063616c6c6572206973206e6f7420746865206f776e6572604082015260600190565b600082198211156128d0576128d0612974565b500190565b6000826128f257634e487b7160e01b600052601260045260246000fd5b500490565b600081600019048311821515161561291157612911612974565b500290565b60008282101561292857612928612974565b500390565b60005b83811015612948578181015183820152602001612930565b83811115611e885750506000910152565b600060001982141561296d5761296d612974565b5060010190565b634e487b7160e01b600052601160045260246000fd5b634e487b7160e01b600052603260045260246000fd5b6001600160a01b03811681146129b557600080fd5b50565b80151581146129b557600080fdfea2646970667358221220abf2cacf692cadd50935abde4ac9510666e5a5920e826d06954b52955aec08cf64736f6c63430008060033",
			"opcodes": "PUSH1 0x80 PUSH1 0x40 MSTORE PUSH1 0x1 PUSH1 0x4 SSTORE PUSH1 0x0 PUSH1 0x9 DUP2 SWAP1 SSTORE PUSH3 0xA8C00 PUSH1 0xB SSTORE PUSH1 0xC DUP1 SLOAD PUSH4 0xFFFFFFFF NOT AND PUSH3 0xC80064 OR SWAP1 SSTORE PUSH1 0xD SSTORE CALLVALUE DUP1 ISZERO PUSH3 0x39 JUMPI PUSH1 0x0 DUP1 REVERT JUMPDEST POP PUSH1 0x40 MLOAD PUSH3 0x2CBA CODESIZE SUB DUP1 PUSH3 0x2CBA DUP4 CODECOPY DUP2 ADD PUSH1 0x40 DUP2 SWAP1 MSTORE PUSH3 0x5C SWAP2 PUSH3 0x212 JUMP JUMPDEST PUSH1 0x0 DUP1 SLOAD PUSH1 0x1 PUSH1 0x1 PUSH1 0xA0 SHL SUB NOT AND CALLER SWAP1 DUP2 OR DUP3 SSTORE PUSH1 0x40 MLOAD SWAP1 SWAP2 DUP3 SWAP2 PUSH32 0x8BE0079C531659141344CD1FD0A4F28419497F9722A3DAAFE3B4186F6B6457E0 SWAP1 DUP3 SWAP1 LOG3 POP PUSH1 0x1 DUP1 SLOAD PUSH1 0x1 PUSH1 0x1 PUSH1 0xA0 SHL SUB SWAP8 DUP9 AND PUSH1 0x1 PUSH1 0x1 PUSH1 0xA0 SHL SUB NOT SWAP2 DUP3 AND DUP2 OR DUP4 SSTORE PUSH1 0x2 DUP1 SLOAD SWAP9 DUP11 AND SWAP9 DUP4 AND SWAP9 SWAP1 SWAP9 OR SWAP1 SWAP8 SSTORE PUSH1 0x5 DUP1 SLOAD SWAP7 DUP10 AND SWAP7 DUP3 AND SWAP7 SWAP1 SWAP7 OR DUP7 SSTORE PUSH1 0x3 SWAP5 SWAP1 SWAP5 SSTORE PUSH1 0xA DUP4 SWAP1 SSTORE PUSH1 0x40 DUP1 MLOAD PUSH1 0xA0 DUP2 ADD DUP3 MSTORE SWAP7 DUP8 MSTORE PUSH2 0x3E8 PUSH1 0x20 DUP9 ADD DUP2 DUP2 MSTORE SWAP2 DUP9 ADD SWAP5 DUP6 MSTORE PUSH1 0x0 PUSH1 0x60 DUP10 ADD DUP2 DUP2 MSTORE PUSH2 0xFFFF SWAP6 DUP7 AND PUSH1 0x80 DUP12 ADD SWAP1 DUP2 MSTORE PUSH1 0x7 DUP1 SLOAD SWAP7 DUP8 ADD DUP2 SSTORE SWAP1 SWAP3 MSTORE SWAP9 MLOAD SWAP4 SWAP1 SWAP8 MUL PUSH32 0xA66CC928B5EDB82AF9BD49922954155AB7B0942694BEA4CE44661D9A8736C688 DUP2 ADD DUP1 SLOAD SWAP5 SWAP1 SWAP11 AND SWAP4 SWAP1 SWAP7 AND SWAP3 SWAP1 SWAP3 OR SWAP1 SWAP8 SSTORE SWAP6 MLOAD PUSH32 0xA66CC928B5EDB82AF9BD49922954155AB7B0942694BEA4CE44661D9A8736C689 DUP5 ADD SSTORE SWAP1 MLOAD PUSH32 0xA66CC928B5EDB82AF9BD49922954155AB7B0942694BEA4CE44661D9A8736C68A DUP4 ADD SSTORE SWAP3 MLOAD PUSH32 0xA66CC928B5EDB82AF9BD49922954155AB7B0942694BEA4CE44661D9A8736C68B DUP3 ADD SSTORE SWAP1 MLOAD PUSH32 0xA66CC928B5EDB82AF9BD49922954155AB7B0942694BEA4CE44661D9A8736C68C SWAP1 SWAP2 ADD DUP1 SLOAD SWAP2 SWAP1 SWAP3 AND PUSH2 0xFFFF NOT SWAP1 SWAP2 AND OR SWAP1 SSTORE PUSH1 0x9 SSTORE PUSH3 0x2AE JUMP JUMPDEST PUSH1 0x0 DUP1 PUSH1 0x0 DUP1 PUSH1 0x0 DUP1 PUSH1 0xC0 DUP8 DUP10 SUB SLT ISZERO PUSH3 0x22C JUMPI PUSH1 0x0 DUP1 REVERT JUMPDEST DUP7 MLOAD PUSH3 0x239 DUP2 PUSH3 0x295 JUMP JUMPDEST PUSH1 0x20 DUP9 ADD MLOAD SWAP1 SWAP7 POP PUSH3 0x24C DUP2 PUSH3 0x295 JUMP JUMPDEST PUSH1 0x40 DUP9 ADD MLOAD SWAP1 SWAP6 POP PUSH3 0x25F DUP2 PUSH3 0x295 JUMP JUMPDEST DUP1 SWAP5 POP POP PUSH1 0x60 DUP8 ADD MLOAD SWAP3 POP PUSH1 0x80 DUP8 ADD MLOAD SWAP2 POP PUSH1 0xA0 DUP8 ADD MLOAD PUSH2 0xFFFF DUP2 AND DUP2 EQ PUSH3 0x287 JUMPI PUSH1 0x0 DUP1 REVERT JUMPDEST DUP1 SWAP2 POP POP SWAP3 SWAP6 POP SWAP3 SWAP6 POP SWAP3 SWAP6 JUMP JUMPDEST PUSH1 0x1 PUSH1 0x1 PUSH1 0xA0 SHL SUB DUP2 AND DUP2 EQ PUSH3 0x2AB JUMPI PUSH1 0x0 DUP1 REVERT JUMPDEST POP JUMP JUMPDEST PUSH2 0x29FC DUP1 PUSH3 0x2BE PUSH1 0x0 CODECOPY PUSH1 0x0 RETURN INVALID PUSH1 0x80 PUSH1 0x40 MSTORE CALLVALUE DUP1 ISZERO PUSH2 0x10 JUMPI PUSH1 0x0 DUP1 REVERT JUMPDEST POP PUSH1 0x4 CALLDATASIZE LT PUSH2 0x274 JUMPI PUSH1 0x0 CALLDATALOAD PUSH1 0xE0 SHR DUP1 PUSH4 0x7CD07E47 GT PUSH2 0x151 JUMPI DUP1 PUSH4 0xA5B870C7 GT PUSH2 0xC3 JUMPI DUP1 PUSH4 0xC55B5E62 GT PUSH2 0x87 JUMPI DUP1 PUSH4 0xC55B5E62 EQ PUSH2 0x5BE JUMPI DUP1 PUSH4 0xD49E77CD EQ PUSH2 0x5D1 JUMPI DUP1 PUSH4 0xD8239D78 EQ PUSH2 0x5E4 JUMPI DUP1 PUSH4 0xD9638422 EQ PUSH2 0x5ED JUMPI DUP1 PUSH4 0xEBEBAD76 EQ PUSH2 0x600 JUMPI DUP1 PUSH4 0xF2FDE38B EQ PUSH2 0x613 JUMPI PUSH1 0x0 DUP1 REVERT JUMPDEST DUP1 PUSH4 0xA5B870C7 EQ PUSH2 0x56E JUMPI DUP1 PUSH4 0xA6C1A224 EQ PUSH2 0x581 JUMPI DUP1 PUSH4 0xAF61474F EQ PUSH2 0x594 JUMPI DUP1 PUSH4 0xB491CCBA EQ PUSH2 0x5A2 JUMPI DUP1 PUSH4 0xBF27C437 EQ PUSH2 0x5AB JUMPI PUSH1 0x0 DUP1 REVERT JUMPDEST DUP1 PUSH4 0x8D88A90E GT PUSH2 0x115 JUMPI DUP1 PUSH4 0x8D88A90E EQ PUSH2 0x4C6 JUMPI DUP1 PUSH4 0x8DA5CB5B EQ PUSH2 0x4D9 JUMPI DUP1 PUSH4 0x8DBB1E3A EQ PUSH2 0x4EA JUMPI DUP1 PUSH4 0x8DBDBE6D EQ PUSH2 0x4FD JUMPI DUP1 PUSH4 0x93F1A40B EQ PUSH2 0x510 JUMPI DUP1 PUSH4 0x9A020580 EQ PUSH2 0x565 JUMPI PUSH1 0x0 DUP1 REVERT JUMPDEST DUP1 PUSH4 0x7CD07E47 EQ PUSH2 0x471 JUMPI DUP1 PUSH4 0x83DE03B5 EQ PUSH2 0x484 JUMPI DUP1 PUSH4 0x84E82A33 EQ PUSH2 0x497 JUMPI DUP1 PUSH4 0x8705FCD4 EQ PUSH2 0x4AA JUMPI DUP1 PUSH4 0x8AA28550 EQ PUSH2 0x4BD JUMPI PUSH1 0x0 DUP1 REVERT JUMPDEST DUP1 PUSH4 0x48CD4CB1 GT PUSH2 0x1EA JUMPI DUP1 PUSH4 0x5FFE6146 GT PUSH2 0x1AE JUMPI DUP1 PUSH4 0x5FFE6146 EQ PUSH2 0x3FF JUMPI DUP1 PUSH4 0x630B5BA1 EQ PUSH2 0x412 JUMPI DUP1 PUSH4 0x715018A6 EQ PUSH2 0x41A JUMPI DUP1 PUSH4 0x71543313 EQ PUSH2 0x422 JUMPI DUP1 PUSH4 0x71765D21 EQ PUSH2 0x42A JUMPI DUP1 PUSH4 0x7BB0B10A EQ PUSH2 0x44A JUMPI PUSH1 0x0 DUP1 REVERT JUMPDEST DUP1 PUSH4 0x48CD4CB1 EQ PUSH2 0x394 JUMPI DUP1 PUSH4 0x51EB05A6 EQ PUSH2 0x39D JUMPI DUP1 PUSH4 0x5312EA8E EQ PUSH2 0x3B0 JUMPI DUP1 PUSH4 0x57B48B1E EQ PUSH2 0x3C3 JUMPI DUP1 PUSH4 0x5B1EB875 EQ PUSH2 0x3EC JUMPI PUSH1 0x0 DUP1 REVERT JUMPDEST DUP1 PUSH4 0x1DD4850A GT PUSH2 0x23C JUMPI DUP1 PUSH4 0x1DD4850A EQ PUSH2 0x30A JUMPI DUP1 PUSH4 0x23CF3118 EQ PUSH2 0x31D JUMPI DUP1 PUSH4 0x41275358 EQ PUSH2 0x330 JUMPI DUP1 PUSH4 0x41441D3B EQ PUSH2 0x35B JUMPI DUP1 PUSH4 0x441A3E70 EQ PUSH2 0x36E JUMPI DUP1 PUSH4 0x454B0608 EQ PUSH2 0x381 JUMPI PUSH1 0x0 DUP1 REVERT JUMPDEST DUP1 PUSH4 0x81E3EDA EQ PUSH2 0x279 JUMPI DUP1 PUSH4 0xBA84CD2 EQ PUSH2 0x290 JUMPI DUP1 PUSH4 0x1058D281 EQ PUSH2 0x2A5 JUMPI DUP1 PUSH4 0x1526FE27 EQ PUSH2 0x2B8 JUMPI DUP1 PUSH4 0x17CAF6F1 EQ PUSH2 0x301 JUMPI JUMPDEST PUSH1 0x0 DUP1 REVERT JUMPDEST PUSH1 0x7 SLOAD JUMPDEST PUSH1 0x40 MLOAD SWAP1 DUP2 MSTORE PUSH1 0x20 ADD JUMPDEST PUSH1 0x40 MLOAD DUP1 SWAP2 SUB SWAP1 RETURN JUMPDEST PUSH2 0x2A3 PUSH2 0x29E CALLDATASIZE PUSH1 0x4 PUSH2 0x26FE JUMP JUMPDEST PUSH2 0x626 JUMP JUMPDEST STOP JUMPDEST PUSH2 0x2A3 PUSH2 0x2B3 CALLDATASIZE PUSH1 0x4 PUSH2 0x26FE JUMP JUMPDEST PUSH2 0x666 JUMP JUMPDEST PUSH2 0x2CB PUSH2 0x2C6 CALLDATASIZE PUSH1 0x4 PUSH2 0x26FE JUMP JUMPDEST PUSH2 0x7E1 JUMP JUMPDEST PUSH1 0x40 DUP1 MLOAD PUSH1 0x1 PUSH1 0x1 PUSH1 0xA0 SHL SUB SWAP1 SWAP7 AND DUP7 MSTORE PUSH1 0x20 DUP7 ADD SWAP5 SWAP1 SWAP5 MSTORE SWAP3 DUP5 ADD SWAP2 SWAP1 SWAP2 MSTORE PUSH1 0x60 DUP4 ADD MSTORE PUSH2 0xFFFF AND PUSH1 0x80 DUP3 ADD MSTORE PUSH1 0xA0 ADD PUSH2 0x287 JUMP JUMPDEST PUSH2 0x27D PUSH1 0x9 SLOAD DUP2 JUMP JUMPDEST PUSH2 0x2A3 PUSH2 0x318 CALLDATASIZE PUSH1 0x4 PUSH2 0x26FE JUMP JUMPDEST PUSH2 0x830 JUMP JUMPDEST PUSH2 0x2A3 PUSH2 0x32B CALLDATASIZE PUSH1 0x4 PUSH2 0x268C JUMP JUMPDEST PUSH2 0x85F JUMP JUMPDEST PUSH1 0x5 SLOAD PUSH2 0x343 SWAP1 PUSH1 0x1 PUSH1 0x1 PUSH1 0xA0 SHL SUB AND DUP2 JUMP JUMPDEST PUSH1 0x40 MLOAD PUSH1 0x1 PUSH1 0x1 PUSH1 0xA0 SHL SUB SWAP1 SWAP2 AND DUP2 MSTORE PUSH1 0x20 ADD PUSH2 0x287 JUMP JUMPDEST PUSH2 0x2A3 PUSH2 0x369 CALLDATASIZE PUSH1 0x4 PUSH2 0x26FE JUMP JUMPDEST PUSH2 0x8AB JUMP JUMPDEST PUSH2 0x2A3 PUSH2 0x37C CALLDATASIZE PUSH1 0x4 PUSH2 0x27B1 JUMP JUMPDEST PUSH2 0x9DA JUMP JUMPDEST PUSH2 0x2A3 PUSH2 0x38F CALLDATASIZE PUSH1 0x4 PUSH2 0x26FE JUMP JUMPDEST PUSH2 0xBA5 JUMP JUMPDEST PUSH2 0x27D PUSH1 0xA SLOAD DUP2 JUMP JUMPDEST PUSH2 0x2A3 PUSH2 0x3AB CALLDATASIZE PUSH1 0x4 PUSH2 0x26FE JUMP JUMPDEST PUSH2 0xE0C JUMP JUMPDEST PUSH2 0x2A3 PUSH2 0x3BE CALLDATASIZE PUSH1 0x4 PUSH2 0x26FE JUMP JUMPDEST PUSH2 0x1041 JUMP JUMPDEST PUSH2 0x27D PUSH2 0x3D1 CALLDATASIZE PUSH1 0x4 PUSH2 0x268C JUMP JUMPDEST PUSH1 0x1 PUSH1 0x1 PUSH1 0xA0 SHL SUB AND PUSH1 0x0 SWAP1 DUP2 MSTORE PUSH1 0xE PUSH1 0x20 MSTORE PUSH1 0x40 SWAP1 KECCAK256 SLOAD SWAP1 JUMP JUMPDEST PUSH2 0x2A3 PUSH2 0x3FA CALLDATASIZE PUSH1 0x4 PUSH2 0x26E3 JUMP JUMPDEST PUSH2 0x10DA JUMP JUMPDEST PUSH2 0x2A3 PUSH2 0x40D CALLDATASIZE PUSH1 0x4 PUSH2 0x26FE JUMP JUMPDEST PUSH2 0x111C JUMP JUMPDEST PUSH2 0x2A3 PUSH2 0x114B JUMP JUMPDEST PUSH2 0x2A3 PUSH2 0x1176 JUMP JUMPDEST PUSH2 0x2A3 PUSH2 0x11EA JUMP JUMPDEST PUSH2 0x27D PUSH2 0x438 CALLDATASIZE PUSH1 0x4 PUSH2 0x268C JUMP JUMPDEST PUSH1 0xE PUSH1 0x20 MSTORE PUSH1 0x0 SWAP1 DUP2 MSTORE PUSH1 0x40 SWAP1 KECCAK256 SLOAD DUP2 JUMP JUMPDEST PUSH1 0xC SLOAD PUSH2 0x45E SWAP1 PUSH3 0x10000 SWAP1 DIV PUSH2 0xFFFF AND DUP2 JUMP JUMPDEST PUSH1 0x40 MLOAD PUSH2 0xFFFF SWAP1 SWAP2 AND DUP2 MSTORE PUSH1 0x20 ADD PUSH2 0x287 JUMP JUMPDEST PUSH1 0x6 SLOAD PUSH2 0x343 SWAP1 PUSH1 0x1 PUSH1 0x1 PUSH1 0xA0 SHL SUB AND DUP2 JUMP JUMPDEST PUSH2 0x2A3 PUSH2 0x492 CALLDATASIZE PUSH1 0x4 PUSH2 0x26FE JUMP JUMPDEST PUSH2 0x1265 JUMP JUMPDEST PUSH2 0x2A3 PUSH2 0x4A5 CALLDATASIZE PUSH1 0x4 PUSH2 0x2760 JUMP JUMPDEST PUSH2 0x1294 JUMP JUMPDEST PUSH2 0x2A3 PUSH2 0x4B8 CALLDATASIZE PUSH1 0x4 PUSH2 0x268C JUMP JUMPDEST PUSH2 0x148E JUMP JUMPDEST PUSH2 0x27D PUSH1 0x4 SLOAD DUP2 JUMP JUMPDEST PUSH2 0x2A3 PUSH2 0x4D4 CALLDATASIZE PUSH1 0x4 PUSH2 0x268C JUMP JUMPDEST PUSH2 0x150A JUMP JUMPDEST PUSH1 0x0 SLOAD PUSH1 0x1 PUSH1 0x1 PUSH1 0xA0 SHL SUB AND PUSH2 0x343 JUMP JUMPDEST PUSH2 0x27D PUSH2 0x4F8 CALLDATASIZE PUSH1 0x4 PUSH2 0x27B1 JUMP JUMPDEST PUSH2 0x1572 JUMP JUMPDEST PUSH2 0x2A3 PUSH2 0x50B CALLDATASIZE PUSH1 0x4 PUSH2 0x27D3 JUMP JUMPDEST PUSH2 0x158F JUMP JUMPDEST PUSH2 0x54A PUSH2 0x51E CALLDATASIZE PUSH1 0x4 PUSH2 0x2730 JUMP JUMPDEST PUSH1 0x8 PUSH1 0x20 SWAP1 DUP2 MSTORE PUSH1 0x0 SWAP3 DUP4 MSTORE PUSH1 0x40 DUP1 DUP5 KECCAK256 SWAP1 SWAP2 MSTORE SWAP1 DUP3 MSTORE SWAP1 KECCAK256 DUP1 SLOAD PUSH1 0x1 DUP3 ADD SLOAD PUSH1 0x2 SWAP1 SWAP3 ADD SLOAD SWAP1 SWAP2 SWAP1 DUP4 JUMP JUMPDEST PUSH1 0x40 DUP1 MLOAD SWAP4 DUP5 MSTORE PUSH1 0x20 DUP5 ADD SWAP3 SWAP1 SWAP3 MSTORE SWAP1 DUP3 ADD MSTORE PUSH1 0x60 ADD PUSH2 0x287 JUMP JUMPDEST PUSH2 0x27D PUSH1 0x3 SLOAD DUP2 JUMP JUMPDEST PUSH1 0xF SLOAD PUSH2 0x343 SWAP1 PUSH1 0x1 PUSH1 0x1 PUSH1 0xA0 SHL SUB AND DUP2 JUMP JUMPDEST PUSH2 0x2A3 PUSH2 0x58F CALLDATASIZE PUSH1 0x4 PUSH2 0x26E3 JUMP JUMPDEST PUSH2 0x17D1 JUMP JUMPDEST PUSH1 0xC SLOAD PUSH2 0x45E SWAP1 PUSH2 0xFFFF AND DUP2 JUMP JUMPDEST PUSH2 0x27D PUSH1 0xB SLOAD DUP2 JUMP JUMPDEST PUSH2 0x2A3 PUSH2 0x5B9 CALLDATASIZE PUSH1 0x4 PUSH2 0x268C JUMP JUMPDEST PUSH2 0x181F JUMP JUMPDEST PUSH2 0x27D PUSH2 0x5CC CALLDATASIZE PUSH1 0x4 PUSH2 0x2730 JUMP JUMPDEST PUSH2 0x186B JUMP JUMPDEST PUSH1 0x2 SLOAD PUSH2 0x343 SWAP1 PUSH1 0x1 PUSH1 0x1 PUSH1 0xA0 SHL SUB AND DUP2 JUMP JUMPDEST PUSH2 0x27D PUSH1 0xD SLOAD DUP2 JUMP JUMPDEST PUSH2 0x2A3 PUSH2 0x5FB CALLDATASIZE PUSH1 0x4 PUSH2 0x280C JUMP JUMPDEST PUSH2 0x19D6 JUMP JUMPDEST PUSH1 0x1 SLOAD PUSH2 0x343 SWAP1 PUSH1 0x1 PUSH1 0x1 PUSH1 0xA0 SHL SUB AND DUP2 JUMP JUMPDEST PUSH2 0x2A3 PUSH2 0x621 CALLDATASIZE PUSH1 0x4 PUSH2 0x268C JUMP JUMPDEST PUSH2 0x1B5B JUMP JUMPDEST PUSH1 0x0 SLOAD PUSH1 0x1 PUSH1 0x1 PUSH1 0xA0 SHL SUB AND CALLER EQ PUSH2 0x659 JUMPI PUSH1 0x40 MLOAD PUSH3 0x461BCD PUSH1 0xE5 SHL DUP2 MSTORE PUSH1 0x4 ADD PUSH2 0x650 SWAP1 PUSH2 0x2888 JUMP JUMPDEST PUSH1 0x40 MLOAD DUP1 SWAP2 SUB SWAP1 REVERT JUMPDEST PUSH2 0x661 PUSH2 0x114B JUMP JUMPDEST PUSH1 0x3 SSTORE JUMP JUMPDEST PUSH1 0x0 PUSH1 0x7 PUSH1 0x0 DUP2 SLOAD DUP2 LT PUSH2 0x67C JUMPI PUSH2 0x67C PUSH2 0x298A JUMP JUMPDEST PUSH1 0x0 SWAP2 DUP3 MSTORE PUSH1 0x20 DUP1 DUP4 KECCAK256 CALLER DUP5 MSTORE PUSH32 0x5EFF886EA0CE6CA488A3D6E336D6C0F75F46D19B42C06CE5EE98E42C96D256C7 SWAP1 SWAP2 MSTORE PUSH1 0x40 SWAP1 SWAP3 KECCAK256 DUP1 SLOAD PUSH1 0x5 SWAP1 SWAP3 MUL SWAP1 SWAP3 ADD SWAP3 POP DUP4 GT ISZERO PUSH2 0x702 JUMPI PUSH1 0x40 MLOAD PUSH3 0x461BCD PUSH1 0xE5 SHL DUP2 MSTORE PUSH1 0x20 PUSH1 0x4 DUP3 ADD MSTORE PUSH1 0x12 PUSH1 0x24 DUP3 ADD MSTORE PUSH18 0x1DDA5D1A191C985DCE881B9BDD0819DBDBD9 PUSH1 0x72 SHL PUSH1 0x44 DUP3 ADD MSTORE PUSH1 0x64 ADD PUSH2 0x650 JUMP JUMPDEST PUSH2 0x70C PUSH1 0x0 PUSH2 0xE0C JUMP JUMPDEST PUSH1 0x0 PUSH2 0x746 DUP3 PUSH1 0x1 ADD SLOAD PUSH2 0x740 PUSH5 0xE8D4A51000 PUSH2 0x73A DUP8 PUSH1 0x3 ADD SLOAD DUP8 PUSH1 0x0 ADD SLOAD PUSH2 0x1C45 SWAP1 SWAP2 SWAP1 PUSH4 0xFFFFFFFF AND JUMP JUMPDEST SWAP1 PUSH2 0x1CC4 JUMP JUMPDEST SWAP1 PUSH2 0x1D1F JUMP JUMPDEST SWAP1 POP DUP1 ISZERO PUSH2 0x758 JUMPI PUSH2 0x758 CALLER DUP3 PUSH2 0x1D7B JUMP JUMPDEST DUP4 ISZERO PUSH2 0x782 JUMPI DUP2 SLOAD PUSH2 0x76A SWAP1 DUP6 PUSH2 0x1D1F JUMP JUMPDEST DUP3 SSTORE DUP3 SLOAD PUSH2 0x782 SWAP1 PUSH1 0x1 PUSH1 0x1 PUSH1 0xA0 SHL SUB AND CALLER DUP7 PUSH2 0x1ECC JUMP JUMPDEST PUSH1 0x3 DUP4 ADD SLOAD DUP3 SLOAD PUSH2 0x79D SWAP2 PUSH5 0xE8D4A51000 SWAP2 PUSH2 0x73A SWAP2 PUSH2 0x1C45 JUMP JUMPDEST PUSH1 0x1 DUP4 ADD SSTORE PUSH1 0x40 MLOAD DUP5 DUP2 MSTORE PUSH1 0x0 SWAP1 CALLER SWAP1 PUSH32 0xF279E6A1F5E320CCA91135676D9CB6E44CA8A08C0B88342BCDB1144F6511B568 SWAP1 PUSH1 0x20 ADD JUMPDEST PUSH1 0x40 MLOAD DUP1 SWAP2 SUB SWAP1 LOG3 POP POP POP POP JUMP JUMPDEST PUSH1 0x7 DUP2 DUP2 SLOAD DUP2 LT PUSH2 0x7F1 JUMPI PUSH1 0x0 DUP1 REVERT JUMPDEST PUSH1 0x0 SWAP2 DUP3 MSTORE PUSH1 0x20 SWAP1 SWAP2 KECCAK256 PUSH1 0x5 SWAP1 SWAP2 MUL ADD DUP1 SLOAD PUSH1 0x1 DUP3 ADD SLOAD PUSH1 0x2 DUP4 ADD SLOAD PUSH1 0x3 DUP5 ADD SLOAD PUSH1 0x4 SWAP1 SWAP5 ADD SLOAD PUSH1 0x1 PUSH1 0x1 PUSH1 0xA0 SHL SUB SWAP1 SWAP4 AND SWAP5 POP SWAP1 SWAP3 SWAP1 SWAP2 PUSH2 0xFFFF AND DUP6 JUMP JUMPDEST PUSH1 0x0 SLOAD PUSH1 0x1 PUSH1 0x1 PUSH1 0xA0 SHL SUB AND CALLER EQ PUSH2 0x85A JUMPI PUSH1 0x40 MLOAD PUSH3 0x461BCD PUSH1 0xE5 SHL DUP2 MSTORE PUSH1 0x4 ADD PUSH2 0x650 SWAP1 PUSH2 0x2888 JUMP JUMPDEST PUSH1 0xB SSTORE JUMP JUMPDEST PUSH1 0x0 SLOAD PUSH1 0x1 PUSH1 0x1 PUSH1 0xA0 SHL SUB AND CALLER EQ PUSH2 0x889 JUMPI PUSH1 0x40 MLOAD PUSH3 0x461BCD PUSH1 0xE5 SHL DUP2 MSTORE PUSH1 0x4 ADD PUSH2 0x650 SWAP1 PUSH2 0x2888 JUMP JUMPDEST PUSH1 0x6 DUP1 SLOAD PUSH1 0x1 PUSH1 0x1 PUSH1 0xA0 SHL SUB NOT AND PUSH1 0x1 PUSH1 0x1 PUSH1 0xA0 SHL SUB SWAP3 SWAP1 SWAP3 AND SWAP2 SWAP1 SWAP2 OR SWAP1 SSTORE JUMP JUMPDEST PUSH1 0x0 PUSH1 0x7 PUSH1 0x0 DUP2 SLOAD DUP2 LT PUSH2 0x8C1 JUMPI PUSH2 0x8C1 PUSH2 0x298A JUMP JUMPDEST PUSH1 0x0 SWAP2 DUP3 MSTORE PUSH1 0x20 DUP1 DUP4 KECCAK256 CALLER DUP5 MSTORE PUSH32 0x5EFF886EA0CE6CA488A3D6E336D6C0F75F46D19B42C06CE5EE98E42C96D256C7 SWAP1 SWAP2 MSTORE PUSH1 0x40 DUP4 KECCAK256 PUSH1 0x5 SWAP1 SWAP3 MUL ADD SWAP3 POP SWAP1 PUSH2 0x908 SWAP1 PUSH2 0xE0C JUMP JUMPDEST DUP1 SLOAD ISZERO PUSH2 0x951 JUMPI PUSH1 0x0 PUSH2 0x93D DUP3 PUSH1 0x1 ADD SLOAD PUSH2 0x740 PUSH5 0xE8D4A51000 PUSH2 0x73A DUP8 PUSH1 0x3 ADD SLOAD DUP8 PUSH1 0x0 ADD SLOAD PUSH2 0x1C45 SWAP1 SWAP2 SWAP1 PUSH4 0xFFFFFFFF AND JUMP JUMPDEST SWAP1 POP DUP1 ISZERO PUSH2 0x94F JUMPI PUSH2 0x94F CALLER DUP3 PUSH2 0x1D7B JUMP JUMPDEST POP JUMPDEST DUP3 ISZERO PUSH2 0x97D JUMPI DUP2 SLOAD PUSH2 0x96E SWAP1 PUSH1 0x1 PUSH1 0x1 PUSH1 0xA0 SHL SUB AND CALLER ADDRESS DUP7 PUSH2 0x1F2F JUMP JUMPDEST DUP1 SLOAD PUSH2 0x97A SWAP1 DUP5 PUSH2 0x1F67 JUMP JUMPDEST DUP2 SSTORE JUMPDEST PUSH1 0x3 DUP3 ADD SLOAD DUP2 SLOAD PUSH2 0x998 SWAP2 PUSH5 0xE8D4A51000 SWAP2 PUSH2 0x73A SWAP2 PUSH2 0x1C45 JUMP JUMPDEST PUSH1 0x1 DUP3 ADD SSTORE PUSH1 0x40 MLOAD DUP4 DUP2 MSTORE PUSH1 0x0 SWAP1 CALLER SWAP1 PUSH32 0x90890809C654F11D6E72A28FA60149770A0D11EC6C92319D6CEB2BB0A4EA1A15 SWAP1 PUSH1 0x20 ADD PUSH1 0x40 MLOAD DUP1 SWAP2 SUB SWAP1 LOG3 POP POP POP JUMP JUMPDEST PUSH1 0x0 PUSH1 0x7 DUP4 DUP2 SLOAD DUP2 LT PUSH2 0x9EF JUMPI PUSH2 0x9EF PUSH2 0x298A JUMP JUMPDEST PUSH1 0x0 SWAP2 DUP3 MSTORE PUSH1 0x20 DUP1 DUP4 KECCAK256 DUP7 DUP5 MSTORE PUSH1 0x8 DUP3 MSTORE PUSH1 0x40 DUP1 DUP6 KECCAK256 CALLER DUP7 MSTORE SWAP1 SWAP3 MSTORE SWAP3 KECCAK256 PUSH1 0xB SLOAD PUSH1 0x2 DUP3 ADD SLOAD PUSH1 0x5 SWAP1 SWAP4 MUL SWAP1 SWAP4 ADD SWAP4 POP SWAP2 PUSH2 0xA2A SWAP2 SWAP1 PUSH2 0x1F67 JUMP JUMPDEST TIMESTAMP GT PUSH2 0xA84 JUMPI PUSH1 0x40 MLOAD PUSH3 0x461BCD PUSH1 0xE5 SHL DUP2 MSTORE PUSH1 0x20 PUSH1 0x4 DUP3 ADD MSTORE PUSH1 0x23 PUSH1 0x24 DUP3 ADD MSTORE PUSH32 0x6465706F736974652074696D65206973206C617365207468656E207265717569 PUSH1 0x44 DUP3 ADD MSTORE PUSH3 0x1C9959 PUSH1 0xEA SHL PUSH1 0x64 DUP3 ADD MSTORE PUSH1 0x84 ADD PUSH2 0x650 JUMP JUMPDEST DUP1 SLOAD DUP4 GT ISZERO PUSH2 0xACA JUMPI PUSH1 0x40 MLOAD PUSH3 0x461BCD PUSH1 0xE5 SHL DUP2 MSTORE PUSH1 0x20 PUSH1 0x4 DUP3 ADD MSTORE PUSH1 0x12 PUSH1 0x24 DUP3 ADD MSTORE PUSH18 0x1DDA5D1A191C985DCE881B9BDD0819DBDBD9 PUSH1 0x72 SHL PUSH1 0x44 DUP3 ADD MSTORE PUSH1 0x64 ADD PUSH2 0x650 JUMP JUMPDEST PUSH2 0xAD3 DUP5 PUSH2 0xE0C JUMP JUMPDEST PUSH2 0xADC DUP5 PUSH2 0x1FC6 JUMP JUMPDEST PUSH1 0x0 PUSH2 0xB0A DUP3 PUSH1 0x1 ADD SLOAD PUSH2 0x740 PUSH5 0xE8D4A51000 PUSH2 0x73A DUP8 PUSH1 0x3 ADD SLOAD DUP8 PUSH1 0x0 ADD SLOAD PUSH2 0x1C45 SWAP1 SWAP2 SWAP1 PUSH4 0xFFFFFFFF AND JUMP JUMPDEST SWAP1 POP DUP1 ISZERO PUSH2 0xB1C JUMPI PUSH2 0xB1C CALLER DUP3 PUSH2 0x1D7B JUMP JUMPDEST DUP4 ISZERO PUSH2 0xB46 JUMPI DUP2 SLOAD PUSH2 0xB2E SWAP1 DUP6 PUSH2 0x1D1F JUMP JUMPDEST DUP3 SSTORE DUP3 SLOAD PUSH2 0xB46 SWAP1 PUSH1 0x1 PUSH1 0x1 PUSH1 0xA0 SHL SUB AND CALLER DUP7 PUSH2 0x1ECC JUMP JUMPDEST PUSH1 0x3 DUP4 ADD SLOAD DUP3 SLOAD PUSH2 0xB61 SWAP2 PUSH5 0xE8D4A51000 SWAP2 PUSH2 0x73A SWAP2 PUSH2 0x1C45 JUMP JUMPDEST PUSH1 0x1 DUP4 ADD SSTORE PUSH1 0x40 MLOAD DUP5 DUP2 MSTORE DUP6 SWAP1 CALLER SWAP1 PUSH32 0xF279E6A1F5E320CCA91135676D9CB6E44CA8A08C0B88342BCDB1144F6511B568 SWAP1 PUSH1 0x20 ADD JUMPDEST PUSH1 0x40 MLOAD DUP1 SWAP2 SUB SWAP1 LOG3 POP POP POP POP POP JUMP JUMPDEST PUSH1 0x6 SLOAD PUSH1 0x1 PUSH1 0x1 PUSH1 0xA0 SHL SUB AND PUSH2 0xBF4 JUMPI PUSH1 0x40 MLOAD PUSH3 0x461BCD PUSH1 0xE5 SHL DUP2 MSTORE PUSH1 0x20 PUSH1 0x4 DUP3 ADD MSTORE PUSH1 0x14 PUSH1 0x24 DUP3 ADD MSTORE PUSH20 0x36B4B3B930BA329D1037379036B4B3B930BA37B9 PUSH1 0x61 SHL PUSH1 0x44 DUP3 ADD MSTORE PUSH1 0x64 ADD PUSH2 0x650 JUMP JUMPDEST PUSH1 0x0 PUSH1 0x7 DUP3 DUP2 SLOAD DUP2 LT PUSH2 0xC09 JUMPI PUSH2 0xC09 PUSH2 0x298A JUMP JUMPDEST PUSH1 0x0 SWAP2 DUP3 MSTORE PUSH1 0x20 DUP3 KECCAK256 PUSH1 0x5 SWAP2 SWAP1 SWAP2 MUL ADD DUP1 SLOAD PUSH1 0x40 MLOAD PUSH4 0x70A08231 PUSH1 0xE0 SHL DUP2 MSTORE ADDRESS PUSH1 0x4 DUP3 ADD MSTORE SWAP2 SWAP4 POP PUSH1 0x1 PUSH1 0x1 PUSH1 0xA0 SHL SUB AND SWAP2 SWAP1 DUP3 SWAP1 PUSH4 0x70A08231 SWAP1 PUSH1 0x24 ADD PUSH1 0x20 PUSH1 0x40 MLOAD DUP1 DUP4 SUB DUP2 DUP7 DUP1 EXTCODESIZE ISZERO DUP1 ISZERO PUSH2 0xC5F JUMPI PUSH1 0x0 DUP1 REVERT JUMPDEST POP GAS STATICCALL ISZERO DUP1 ISZERO PUSH2 0xC73 JUMPI RETURNDATASIZE PUSH1 0x0 DUP1 RETURNDATACOPY RETURNDATASIZE PUSH1 0x0 REVERT JUMPDEST POP POP POP POP PUSH1 0x40 MLOAD RETURNDATASIZE PUSH1 0x1F NOT PUSH1 0x1F DUP3 ADD AND DUP3 ADD DUP1 PUSH1 0x40 MSTORE POP DUP2 ADD SWAP1 PUSH2 0xC97 SWAP2 SWAP1 PUSH2 0x2717 JUMP JUMPDEST PUSH1 0x6 SLOAD SWAP1 SWAP2 POP PUSH2 0xCB4 SWAP1 PUSH1 0x1 PUSH1 0x1 PUSH1 0xA0 SHL SUB DUP5 DUP2 AND SWAP2 AND DUP4 PUSH2 0x2046 JUMP JUMPDEST PUSH1 0x6 SLOAD PUSH1 0x40 MLOAD PUSH4 0xCE5494BB PUSH1 0xE0 SHL DUP2 MSTORE PUSH1 0x1 PUSH1 0x1 PUSH1 0xA0 SHL SUB DUP5 DUP2 AND PUSH1 0x4 DUP4 ADD MSTORE PUSH1 0x0 SWAP3 AND SWAP1 PUSH4 0xCE5494BB SWAP1 PUSH1 0x24 ADD PUSH1 0x20 PUSH1 0x40 MLOAD DUP1 DUP4 SUB DUP2 PUSH1 0x0 DUP8 DUP1 EXTCODESIZE ISZERO DUP1 ISZERO PUSH2 0xCFC JUMPI PUSH1 0x0 DUP1 REVERT JUMPDEST POP GAS CALL ISZERO DUP1 ISZERO PUSH2 0xD10 JUMPI RETURNDATASIZE PUSH1 0x0 DUP1 RETURNDATACOPY RETURNDATASIZE PUSH1 0x0 REVERT JUMPDEST POP POP POP POP PUSH1 0x40 MLOAD RETURNDATASIZE PUSH1 0x1F NOT PUSH1 0x1F DUP3 ADD AND DUP3 ADD DUP1 PUSH1 0x40 MSTORE POP DUP2 ADD SWAP1 PUSH2 0xD34 SWAP2 SWAP1 PUSH2 0x26A9 JUMP JUMPDEST PUSH1 0x40 MLOAD PUSH4 0x70A08231 PUSH1 0xE0 SHL DUP2 MSTORE ADDRESS PUSH1 0x4 DUP3 ADD MSTORE SWAP1 SWAP2 POP PUSH1 0x1 PUSH1 0x1 PUSH1 0xA0 SHL SUB DUP3 AND SWAP1 PUSH4 0x70A08231 SWAP1 PUSH1 0x24 ADD PUSH1 0x20 PUSH1 0x40 MLOAD DUP1 DUP4 SUB DUP2 DUP7 DUP1 EXTCODESIZE ISZERO DUP1 ISZERO PUSH2 0xD76 JUMPI PUSH1 0x0 DUP1 REVERT JUMPDEST POP GAS STATICCALL ISZERO DUP1 ISZERO PUSH2 0xD8A JUMPI RETURNDATASIZE PUSH1 0x0 DUP1 RETURNDATACOPY RETURNDATASIZE PUSH1 0x0 REVERT JUMPDEST POP POP POP POP PUSH1 0x40 MLOAD RETURNDATASIZE PUSH1 0x1F NOT PUSH1 0x1F DUP3 ADD AND DUP3 ADD DUP1 PUSH1 0x40 MSTORE POP DUP2 ADD SWAP1 PUSH2 0xDAE SWAP2 SWAP1 PUSH2 0x2717 JUMP JUMPDEST DUP3 EQ PUSH2 0xDEB JUMPI PUSH1 0x40 MLOAD PUSH3 0x461BCD PUSH1 0xE5 SHL DUP2 MSTORE PUSH1 0x20 PUSH1 0x4 DUP3 ADD MSTORE PUSH1 0xC PUSH1 0x24 DUP3 ADD MSTORE PUSH12 0x1B5A59DC985D194E88189859 PUSH1 0xA2 SHL PUSH1 0x44 DUP3 ADD MSTORE PUSH1 0x64 ADD PUSH2 0x650 JUMP JUMPDEST DUP4 SLOAD PUSH1 0x1 PUSH1 0x1 PUSH1 0xA0 SHL SUB NOT AND PUSH1 0x1 PUSH1 0x1 PUSH1 0xA0 SHL SUB SWAP2 SWAP1 SWAP2 AND OR SWAP1 SWAP3 SSTORE POP POP POP JUMP JUMPDEST PUSH1 0x0 PUSH1 0x7 DUP3 DUP2 SLOAD DUP2 LT PUSH2 0xE21 JUMPI PUSH2 0xE21 PUSH2 0x298A JUMP JUMPDEST SWAP1 PUSH1 0x0 MSTORE PUSH1 0x20 PUSH1 0x0 KECCAK256 SWAP1 PUSH1 0x5 MUL ADD SWAP1 POP DUP1 PUSH1 0x2 ADD SLOAD NUMBER GT PUSH2 0xE40 JUMPI POP POP JUMP JUMPDEST DUP1 SLOAD PUSH1 0x40 MLOAD PUSH4 0x70A08231 PUSH1 0xE0 SHL DUP2 MSTORE ADDRESS PUSH1 0x4 DUP3 ADD MSTORE PUSH1 0x0 SWAP2 PUSH1 0x1 PUSH1 0x1 PUSH1 0xA0 SHL SUB AND SWAP1 PUSH4 0x70A08231 SWAP1 PUSH1 0x24 ADD PUSH1 0x20 PUSH1 0x40 MLOAD DUP1 DUP4 SUB DUP2 DUP7 DUP1 EXTCODESIZE ISZERO DUP1 ISZERO PUSH2 0xE83 JUMPI PUSH1 0x0 DUP1 REVERT JUMPDEST POP GAS STATICCALL ISZERO DUP1 ISZERO PUSH2 0xE97 JUMPI RETURNDATASIZE PUSH1 0x0 DUP1 RETURNDATACOPY RETURNDATASIZE PUSH1 0x0 REVERT JUMPDEST POP POP POP POP PUSH1 0x40 MLOAD RETURNDATASIZE PUSH1 0x1F NOT PUSH1 0x1F DUP3 ADD AND DUP3 ADD DUP1 PUSH1 0x40 MSTORE POP DUP2 ADD SWAP1 PUSH2 0xEBB SWAP2 SWAP1 PUSH2 0x2717 JUMP JUMPDEST SWAP1 POP DUP1 ISZERO DUP1 PUSH2 0xECC JUMPI POP PUSH1 0x1 DUP3 ADD SLOAD ISZERO JUMPDEST ISZERO PUSH2 0xEDC JUMPI POP NUMBER PUSH1 0x2 SWAP1 SWAP2 ADD SSTORE POP JUMP JUMPDEST PUSH1 0x0 PUSH2 0xEEC DUP4 PUSH1 0x2 ADD SLOAD NUMBER PUSH2 0x1572 JUMP JUMPDEST SWAP1 POP PUSH1 0x0 PUSH2 0xF19 PUSH1 0x9 SLOAD PUSH2 0x73A DUP7 PUSH1 0x1 ADD SLOAD PUSH2 0xF13 PUSH1 0x3 SLOAD DUP8 PUSH2 0x1C45 SWAP1 SWAP2 SWAP1 PUSH4 0xFFFFFFFF AND JUMP JUMPDEST SWAP1 PUSH2 0x1C45 JUMP JUMPDEST PUSH1 0x1 SLOAD PUSH1 0x2 SLOAD SWAP2 SWAP3 POP PUSH1 0x1 PUSH1 0x1 PUSH1 0xA0 SHL SUB SWAP1 DUP2 AND SWAP2 PUSH4 0x40C10F19 SWAP2 AND PUSH2 0xF40 DUP5 PUSH1 0xA PUSH2 0x1CC4 JUMP JUMPDEST PUSH1 0x40 MLOAD PUSH1 0x1 PUSH1 0x1 PUSH1 0xE0 SHL SUB NOT PUSH1 0xE0 DUP6 SWAP1 SHL AND DUP2 MSTORE PUSH1 0x1 PUSH1 0x1 PUSH1 0xA0 SHL SUB SWAP1 SWAP3 AND PUSH1 0x4 DUP4 ADD MSTORE PUSH1 0x24 DUP3 ADD MSTORE PUSH1 0x44 ADD PUSH1 0x0 PUSH1 0x40 MLOAD DUP1 DUP4 SUB DUP2 PUSH1 0x0 DUP8 DUP1 EXTCODESIZE ISZERO DUP1 ISZERO PUSH2 0xF86 JUMPI PUSH1 0x0 DUP1 REVERT JUMPDEST POP GAS CALL ISZERO DUP1 ISZERO PUSH2 0xF9A JUMPI RETURNDATASIZE PUSH1 0x0 DUP1 RETURNDATACOPY RETURNDATASIZE PUSH1 0x0 REVERT JUMPDEST POP POP PUSH1 0x1 SLOAD PUSH1 0x40 MLOAD PUSH4 0x40C10F19 PUSH1 0xE0 SHL DUP2 MSTORE ADDRESS PUSH1 0x4 DUP3 ADD MSTORE PUSH1 0x24 DUP2 ADD DUP6 SWAP1 MSTORE PUSH1 0x1 PUSH1 0x1 PUSH1 0xA0 SHL SUB SWAP1 SWAP2 AND SWAP3 POP PUSH4 0x40C10F19 SWAP2 POP PUSH1 0x44 ADD PUSH1 0x0 PUSH1 0x40 MLOAD DUP1 DUP4 SUB DUP2 PUSH1 0x0 DUP8 DUP1 EXTCODESIZE ISZERO DUP1 ISZERO PUSH2 0xFEA JUMPI PUSH1 0x0 DUP1 REVERT JUMPDEST POP GAS CALL ISZERO DUP1 ISZERO PUSH2 0xFFE JUMPI RETURNDATASIZE PUSH1 0x0 DUP1 RETURNDATACOPY RETURNDATASIZE PUSH1 0x0 REVERT JUMPDEST POP POP POP POP PUSH2 0x102C PUSH2 0x1021 DUP5 PUSH2 0x73A PUSH5 0xE8D4A51000 DUP6 PUSH2 0x1C45 SWAP1 SWAP2 SWAP1 PUSH4 0xFFFFFFFF AND JUMP JUMPDEST PUSH1 0x3 DUP7 ADD SLOAD SWAP1 PUSH2 0x1F67 JUMP JUMPDEST PUSH1 0x3 DUP6 ADD SSTORE POP POP NUMBER PUSH1 0x2 SWAP1 SWAP3 ADD SWAP2 SWAP1 SWAP2 SSTORE POP POP JUMP JUMPDEST PUSH1 0x0 PUSH1 0x7 DUP3 DUP2 SLOAD DUP2 LT PUSH2 0x1056 JUMPI PUSH2 0x1056 PUSH2 0x298A JUMP JUMPDEST PUSH1 0x0 SWAP2 DUP3 MSTORE PUSH1 0x20 DUP1 DUP4 KECCAK256 DUP6 DUP5 MSTORE PUSH1 0x8 DUP3 MSTORE PUSH1 0x40 DUP1 DUP6 KECCAK256 CALLER DUP1 DUP8 MSTORE SWAP4 MSTORE DUP5 KECCAK256 DUP1 SLOAD DUP6 DUP3 SSTORE PUSH1 0x1 DUP3 ADD SWAP6 SWAP1 SWAP6 SSTORE PUSH1 0x5 SWAP1 SWAP4 MUL ADD DUP1 SLOAD SWAP1 SWAP5 POP SWAP2 SWAP3 SWAP2 PUSH2 0x10A6 SWAP2 PUSH1 0x1 PUSH1 0x1 PUSH1 0xA0 SHL SUB SWAP2 SWAP1 SWAP2 AND SWAP1 DUP4 PUSH2 0x1ECC JUMP JUMPDEST PUSH1 0x40 MLOAD DUP2 DUP2 MSTORE DUP5 SWAP1 CALLER SWAP1 PUSH32 0xBB757047C2B5F3974FE26B7C10F732E7BCE710B0952A71082702781E62AE0595 SWAP1 PUSH1 0x20 ADD PUSH2 0x7D3 JUMP JUMPDEST PUSH1 0x0 SLOAD PUSH1 0x1 PUSH1 0x1 PUSH1 0xA0 SHL SUB AND CALLER EQ PUSH2 0x1104 JUMPI PUSH1 0x40 MLOAD PUSH3 0x461BCD PUSH1 0xE5 SHL DUP2 MSTORE PUSH1 0x4 ADD PUSH2 0x650 SWAP1 PUSH2 0x2888 JUMP JUMPDEST PUSH1 0xC DUP1 SLOAD PUSH2 0xFFFF NOT AND PUSH2 0xFFFF SWAP3 SWAP1 SWAP3 AND SWAP2 SWAP1 SWAP2 OR SWAP1 SSTORE JUMP JUMPDEST PUSH1 0x0 SLOAD PUSH1 0x1 PUSH1 0x1 PUSH1 0xA0 SHL SUB AND CALLER EQ PUSH2 0x1146 JUMPI PUSH1 0x40 MLOAD PUSH3 0x461BCD PUSH1 0xE5 SHL DUP2 MSTORE PUSH1 0x4 ADD PUSH2 0x650 SWAP1 PUSH2 0x2888 JUMP JUMPDEST PUSH1 0x4 SSTORE JUMP JUMPDEST PUSH1 0x7 SLOAD PUSH1 0x0 JUMPDEST DUP2 DUP2 LT ISZERO PUSH2 0x1172 JUMPI PUSH2 0x1162 DUP2 PUSH2 0xE0C JUMP JUMPDEST PUSH2 0x116B DUP2 PUSH2 0x2959 JUMP JUMPDEST SWAP1 POP PUSH2 0x1151 JUMP JUMPDEST POP POP JUMP JUMPDEST PUSH1 0x0 SLOAD PUSH1 0x1 PUSH1 0x1 PUSH1 0xA0 SHL SUB AND CALLER EQ PUSH2 0x11A0 JUMPI PUSH1 0x40 MLOAD PUSH3 0x461BCD PUSH1 0xE5 SHL DUP2 MSTORE PUSH1 0x4 ADD PUSH2 0x650 SWAP1 PUSH2 0x2888 JUMP JUMPDEST PUSH1 0x0 DUP1 SLOAD PUSH1 0x40 MLOAD PUSH1 0x1 PUSH1 0x1 PUSH1 0xA0 SHL SUB SWAP1 SWAP2 AND SWAP1 PUSH32 0x8BE0079C531659141344CD1FD0A4F28419497F9722A3DAAFE3B4186F6B6457E0 SWAP1 DUP4 SWAP1 LOG3 PUSH1 0x0 DUP1 SLOAD PUSH1 0x1 PUSH1 0x1 PUSH1 0xA0 SHL SUB NOT AND SWAP1 SSTORE JUMP JUMPDEST CALLER PUSH1 0x0 DUP2 DUP2 MSTORE PUSH1 0xE PUSH1 0x20 MSTORE PUSH1 0x40 SWAP1 DUP2 SWAP1 KECCAK256 SLOAD PUSH1 0x1 SLOAD SWAP2 MLOAD PUSH4 0x40C10F19 PUSH1 0xE0 SHL DUP2 MSTORE PUSH1 0x4 DUP2 ADD SWAP4 SWAP1 SWAP4 MSTORE PUSH1 0x24 DUP4 ADD DUP2 SWAP1 MSTORE SWAP2 PUSH1 0x1 PUSH1 0x1 PUSH1 0xA0 SHL SUB SWAP1 SWAP2 AND SWAP1 PUSH4 0x40C10F19 SWAP1 PUSH1 0x44 ADD PUSH1 0x0 PUSH1 0x40 MLOAD DUP1 DUP4 SUB DUP2 PUSH1 0x0 DUP8 DUP1 EXTCODESIZE ISZERO DUP1 ISZERO PUSH2 0x124A JUMPI PUSH1 0x0 DUP1 REVERT JUMPDEST POP GAS CALL ISZERO DUP1 ISZERO PUSH2 0x125E JUMPI RETURNDATASIZE PUSH1 0x0 DUP1 RETURNDATACOPY RETURNDATASIZE PUSH1 0x0 REVERT JUMPDEST POP POP POP POP POP JUMP JUMPDEST PUSH1 0x0 SLOAD PUSH1 0x1 PUSH1 0x1 PUSH1 0xA0 SHL SUB AND CALLER EQ PUSH2 0x128F JUMPI PUSH1 0x40 MLOAD PUSH3 0x461BCD PUSH1 0xE5 SHL DUP2 MSTORE PUSH1 0x4 ADD PUSH2 0x650 SWAP1 PUSH2 0x2888 JUMP JUMPDEST PUSH1 0xD SSTORE JUMP JUMPDEST PUSH1 0x0 SLOAD PUSH1 0x1 PUSH1 0x1 PUSH1 0xA0 SHL SUB AND CALLER EQ PUSH2 0x12BE JUMPI PUSH1 0x40 MLOAD PUSH3 0x461BCD PUSH1 0xE5 SHL DUP2 MSTORE PUSH1 0x4 ADD PUSH2 0x650 SWAP1 PUSH2 0x2888 JUMP JUMPDEST PUSH2 0x2710 DUP3 PUSH2 0xFFFF AND GT ISZERO PUSH2 0x1322 JUMPI PUSH1 0x40 MLOAD PUSH3 0x461BCD PUSH1 0xE5 SHL DUP2 MSTORE PUSH1 0x20 PUSH1 0x4 DUP3 ADD MSTORE PUSH1 0x25 PUSH1 0x24 DUP3 ADD MSTORE PUSH32 0x6164643A20696E76616C6964206465706F736974206665652062617369732070 PUSH1 0x44 DUP3 ADD MSTORE PUSH5 0x6F696E7473 PUSH1 0xD8 SHL PUSH1 0x64 DUP3 ADD MSTORE PUSH1 0x84 ADD PUSH2 0x650 JUMP JUMPDEST DUP1 ISZERO PUSH2 0x1330 JUMPI PUSH2 0x1330 PUSH2 0x114B JUMP JUMPDEST PUSH1 0x0 PUSH1 0xA SLOAD NUMBER GT PUSH2 0x1343 JUMPI PUSH1 0xA SLOAD PUSH2 0x1345 JUMP JUMPDEST NUMBER JUMPDEST PUSH1 0x9 SLOAD SWAP1 SWAP2 POP PUSH2 0x1355 SWAP1 DUP7 PUSH2 0x1F67 JUMP JUMPDEST PUSH1 0x9 SSTORE PUSH1 0x40 DUP1 MLOAD PUSH1 0xA0 DUP2 ADD DUP3 MSTORE PUSH1 0x1 PUSH1 0x1 PUSH1 0xA0 SHL SUB DUP7 DUP2 AND DUP3 MSTORE PUSH1 0x20 DUP3 ADD DUP9 DUP2 MSTORE SWAP3 DUP3 ADD DUP5 DUP2 MSTORE PUSH1 0x0 PUSH1 0x60 DUP5 ADD DUP2 DUP2 MSTORE PUSH2 0xFFFF DUP10 DUP2 AND PUSH1 0x80 DUP8 ADD SWAP1 DUP2 MSTORE PUSH1 0x7 DUP1 SLOAD PUSH1 0x1 DUP2 ADD DUP3 SSTORE SWAP5 MSTORE SWAP6 MLOAD PUSH32 0xA66CC928B5EDB82AF9BD49922954155AB7B0942694BEA4CE44661D9A8736C688 PUSH1 0x5 SWAP1 SWAP5 MUL SWAP4 DUP5 ADD DUP1 SLOAD PUSH1 0x1 PUSH1 0x1 PUSH1 0xA0 SHL SUB NOT AND SWAP2 SWAP1 SWAP7 AND OR SWAP1 SWAP5 SSTORE SWAP5 MLOAD PUSH32 0xA66CC928B5EDB82AF9BD49922954155AB7B0942694BEA4CE44661D9A8736C689 DUP3 ADD SSTORE SWAP1 MLOAD PUSH32 0xA66CC928B5EDB82AF9BD49922954155AB7B0942694BEA4CE44661D9A8736C68A DUP3 ADD SSTORE SWAP3 MLOAD PUSH32 0xA66CC928B5EDB82AF9BD49922954155AB7B0942694BEA4CE44661D9A8736C68B DUP5 ADD SSTORE SWAP1 MLOAD PUSH32 0xA66CC928B5EDB82AF9BD49922954155AB7B0942694BEA4CE44661D9A8736C68C SWAP1 SWAP3 ADD DUP1 SLOAD PUSH2 0xFFFF NOT AND SWAP3 SWAP1 SWAP2 AND SWAP2 SWAP1 SWAP2 OR SWAP1 SSTORE PUSH2 0x125E PUSH2 0x216A JUMP JUMPDEST PUSH1 0x5 SLOAD PUSH1 0x1 PUSH1 0x1 PUSH1 0xA0 SHL SUB AND CALLER EQ PUSH2 0x14E8 JUMPI PUSH1 0x40 MLOAD PUSH3 0x461BCD PUSH1 0xE5 SHL DUP2 MSTORE PUSH1 0x20 PUSH1 0x4 DUP3 ADD MSTORE PUSH1 0x18 PUSH1 0x24 DUP3 ADD MSTORE PUSH32 0x736574466565416464726573733A20464F5242494444454E0000000000000000 PUSH1 0x44 DUP3 ADD MSTORE PUSH1 0x64 ADD PUSH2 0x650 JUMP JUMPDEST PUSH1 0x5 DUP1 SLOAD PUSH1 0x1 PUSH1 0x1 PUSH1 0xA0 SHL SUB NOT AND PUSH1 0x1 PUSH1 0x1 PUSH1 0xA0 SHL SUB SWAP3 SWAP1 SWAP3 AND SWAP2 SWAP1 SWAP2 OR SWAP1 SSTORE JUMP JUMPDEST PUSH1 0x2 SLOAD PUSH1 0x1 PUSH1 0x1 PUSH1 0xA0 SHL SUB AND CALLER EQ PUSH2 0x1550 JUMPI PUSH1 0x40 MLOAD PUSH3 0x461BCD PUSH1 0xE5 SHL DUP2 MSTORE PUSH1 0x20 PUSH1 0x4 DUP3 ADD MSTORE PUSH1 0x9 PUSH1 0x24 DUP3 ADD MSTORE PUSH9 0x6465763A207775743F PUSH1 0xB8 SHL PUSH1 0x44 DUP3 ADD MSTORE PUSH1 0x64 ADD PUSH2 0x650 JUMP JUMPDEST PUSH1 0x2 DUP1 SLOAD PUSH1 0x1 PUSH1 0x1 PUSH1 0xA0 SHL SUB NOT AND PUSH1 0x1 PUSH1 0x1 PUSH1 0xA0 SHL SUB SWAP3 SWAP1 SWAP3 AND SWAP2 SWAP1 SWAP2 OR SWAP1 SSTORE JUMP JUMPDEST PUSH1 0x4 SLOAD PUSH1 0x0 SWAP1 PUSH2 0x1586 SWAP1 PUSH2 0xF13 DUP5 DUP7 PUSH2 0x1D1F JUMP JUMPDEST SWAP1 POP JUMPDEST SWAP3 SWAP2 POP POP JUMP JUMPDEST PUSH1 0x0 PUSH1 0x7 DUP5 DUP2 SLOAD DUP2 LT PUSH2 0x15A4 JUMPI PUSH2 0x15A4 PUSH2 0x298A JUMP JUMPDEST PUSH1 0x0 SWAP2 DUP3 MSTORE PUSH1 0x20 DUP1 DUP4 KECCAK256 DUP8 DUP5 MSTORE PUSH1 0x8 DUP3 MSTORE PUSH1 0x40 DUP1 DUP6 KECCAK256 CALLER DUP7 MSTORE SWAP1 SWAP3 MSTORE SWAP3 KECCAK256 PUSH1 0x5 SWAP1 SWAP2 MUL SWAP1 SWAP2 ADD SWAP2 POP PUSH2 0x15D5 DUP6 PUSH2 0xE0C JUMP JUMPDEST PUSH1 0x0 DUP5 GT DUP1 ISZERO PUSH2 0x15EF JUMPI POP PUSH1 0xF SLOAD PUSH1 0x1 PUSH1 0x1 PUSH1 0xA0 SHL SUB AND ISZERO ISZERO JUMPDEST DUP1 ISZERO PUSH2 0x1603 JUMPI POP PUSH1 0x1 PUSH1 0x1 PUSH1 0xA0 SHL SUB DUP4 AND ISZERO ISZERO JUMPDEST DUP1 ISZERO PUSH2 0x1618 JUMPI POP PUSH1 0x1 PUSH1 0x1 PUSH1 0xA0 SHL SUB DUP4 AND CALLER EQ ISZERO JUMPDEST DUP1 ISZERO PUSH2 0x1623 JUMPI POP DUP1 SLOAD ISZERO JUMPDEST ISZERO PUSH2 0x168E JUMPI PUSH1 0xF SLOAD PUSH1 0x40 MLOAD PUSH4 0xC7F7B6B PUSH1 0xE0 SHL DUP2 MSTORE CALLER PUSH1 0x4 DUP3 ADD MSTORE PUSH1 0x1 PUSH1 0x1 PUSH1 0xA0 SHL SUB DUP6 DUP2 AND PUSH1 0x24 DUP4 ADD MSTORE SWAP1 SWAP2 AND SWAP1 PUSH4 0xC7F7B6B SWAP1 PUSH1 0x44 ADD PUSH1 0x0 PUSH1 0x40 MLOAD DUP1 DUP4 SUB DUP2 PUSH1 0x0 DUP8 DUP1 EXTCODESIZE ISZERO DUP1 ISZERO PUSH2 0x1675 JUMPI PUSH1 0x0 DUP1 REVERT JUMPDEST POP GAS CALL ISZERO DUP1 ISZERO PUSH2 0x1689 JUMPI RETURNDATASIZE PUSH1 0x0 DUP1 RETURNDATACOPY RETURNDATASIZE PUSH1 0x0 REVERT JUMPDEST POP POP POP POP JUMPDEST PUSH2 0x1697 DUP6 PUSH2 0x1FC6 JUMP JUMPDEST DUP1 SLOAD ISZERO PUSH2 0x16E4 JUMPI PUSH1 0x0 PUSH2 0x16CC DUP3 PUSH1 0x1 ADD SLOAD PUSH2 0x740 PUSH5 0xE8D4A51000 PUSH2 0x73A DUP8 PUSH1 0x3 ADD SLOAD DUP8 PUSH1 0x0 ADD SLOAD PUSH2 0x1C45 SWAP1 SWAP2 SWAP1 PUSH4 0xFFFFFFFF AND JUMP JUMPDEST SWAP1 POP DUP1 ISZERO PUSH2 0x16DE JUMPI PUSH2 0x16DE CALLER DUP3 PUSH2 0x1D7B JUMP JUMPDEST POP PUSH2 0x16EB JUMP JUMPDEST TIMESTAMP PUSH1 0x2 DUP3 ADD SSTORE JUMPDEST DUP4 ISZERO PUSH2 0x177D JUMPI DUP2 SLOAD PUSH2 0x1708 SWAP1 PUSH1 0x1 PUSH1 0x1 PUSH1 0xA0 SHL SUB AND CALLER ADDRESS DUP8 PUSH2 0x1F2F JUMP JUMPDEST PUSH1 0x4 DUP3 ADD SLOAD PUSH2 0xFFFF AND ISZERO PUSH2 0x176E JUMPI PUSH1 0x4 DUP3 ADD SLOAD PUSH1 0x0 SWAP1 PUSH2 0x1735 SWAP1 PUSH2 0x2710 SWAP1 PUSH2 0x73A SWAP1 DUP9 SWAP1 PUSH2 0xFFFF AND PUSH2 0x1C45 JUMP JUMPDEST PUSH1 0x5 SLOAD DUP5 SLOAD SWAP2 SWAP3 POP PUSH2 0x1754 SWAP2 PUSH1 0x1 PUSH1 0x1 PUSH1 0xA0 SHL SUB SWAP1 DUP2 AND SWAP2 AND DUP4 PUSH2 0x1ECC JUMP JUMPDEST DUP2 SLOAD PUSH2 0x1766 SWAP1 DUP3 SWAP1 PUSH2 0x740 SWAP1 DUP9 PUSH2 0x1F67 JUMP JUMPDEST DUP3 SSTORE POP PUSH2 0x177D JUMP JUMPDEST DUP1 SLOAD PUSH2 0x177A SWAP1 DUP6 PUSH2 0x1F67 JUMP JUMPDEST DUP2 SSTORE JUMPDEST PUSH1 0x3 DUP3 ADD SLOAD DUP2 SLOAD PUSH2 0x1798 SWAP2 PUSH5 0xE8D4A51000 SWAP2 PUSH2 0x73A SWAP2 PUSH2 0x1C45 JUMP JUMPDEST PUSH1 0x1 DUP3 ADD SSTORE PUSH1 0x40 MLOAD DUP5 DUP2 MSTORE DUP6 SWAP1 CALLER SWAP1 PUSH32 0x90890809C654F11D6E72A28FA60149770A0D11EC6C92319D6CEB2BB0A4EA1A15 SWAP1 PUSH1 0x20 ADD PUSH2 0xB96 JUMP JUMPDEST PUSH1 0x0 SLOAD PUSH1 0x1 PUSH1 0x1 PUSH1 0xA0 SHL SUB AND CALLER EQ PUSH2 0x17FB JUMPI PUSH1 0x40 MLOAD PUSH3 0x461BCD PUSH1 0xE5 SHL DUP2 MSTORE PUSH1 0x4 ADD PUSH2 0x650 SWAP1 PUSH2 0x2888 JUMP JUMPDEST PUSH1 0xC DUP1 SLOAD PUSH2 0xFFFF SWAP1 SWAP3 AND PUSH3 0x10000 MUL PUSH4 0xFFFF0000 NOT SWAP1 SWAP3 AND SWAP2 SWAP1 SWAP2 OR SWAP1 SSTORE TIMESTAMP PUSH1 0xD SSTORE JUMP JUMPDEST PUSH1 0x0 SLOAD PUSH1 0x1 PUSH1 0x1 PUSH1 0xA0 SHL SUB AND CALLER EQ PUSH2 0x1849 JUMPI PUSH1 0x40 MLOAD PUSH3 0x461BCD PUSH1 0xE5 SHL DUP2 MSTORE PUSH1 0x4 ADD PUSH2 0x650 SWAP1 PUSH2 0x2888 JUMP JUMPDEST PUSH1 0xF DUP1 SLOAD PUSH1 0x1 PUSH1 0x1 PUSH1 0xA0 SHL SUB NOT AND PUSH1 0x1 PUSH1 0x1 PUSH1 0xA0 SHL SUB SWAP3 SWAP1 SWAP3 AND SWAP2 SWAP1 SWAP2 OR SWAP1 SSTORE JUMP JUMPDEST PUSH1 0x0 DUP1 PUSH1 0x7 DUP5 DUP2 SLOAD DUP2 LT PUSH2 0x1881 JUMPI PUSH2 0x1881 PUSH2 0x298A JUMP JUMPDEST PUSH1 0x0 SWAP2 DUP3 MSTORE PUSH1 0x20 DUP1 DUP4 KECCAK256 DUP8 DUP5 MSTORE PUSH1 0x8 DUP3 MSTORE PUSH1 0x40 DUP1 DUP6 KECCAK256 PUSH1 0x1 PUSH1 0x1 PUSH1 0xA0 SHL SUB DUP10 DUP2 AND DUP8 MSTORE SWAP4 MSTORE DUP1 DUP6 KECCAK256 PUSH1 0x5 SWAP5 SWAP1 SWAP5 MUL SWAP1 SWAP2 ADD PUSH1 0x3 DUP2 ADD SLOAD DUP2 SLOAD SWAP3 MLOAD PUSH4 0x70A08231 PUSH1 0xE0 SHL DUP2 MSTORE ADDRESS PUSH1 0x4 DUP3 ADD MSTORE SWAP2 SWAP7 POP SWAP4 SWAP5 SWAP3 SWAP2 SWAP1 SWAP2 AND SWAP1 PUSH4 0x70A08231 SWAP1 PUSH1 0x24 ADD PUSH1 0x20 PUSH1 0x40 MLOAD DUP1 DUP4 SUB DUP2 DUP7 DUP1 EXTCODESIZE ISZERO DUP1 ISZERO PUSH2 0x18F7 JUMPI PUSH1 0x0 DUP1 REVERT JUMPDEST POP GAS STATICCALL ISZERO DUP1 ISZERO PUSH2 0x190B JUMPI RETURNDATASIZE PUSH1 0x0 DUP1 RETURNDATACOPY RETURNDATASIZE PUSH1 0x0 REVERT JUMPDEST POP POP POP POP PUSH1 0x40 MLOAD RETURNDATASIZE PUSH1 0x1F NOT PUSH1 0x1F DUP3 ADD AND DUP3 ADD DUP1 PUSH1 0x40 MSTORE POP DUP2 ADD SWAP1 PUSH2 0x192F SWAP2 SWAP1 PUSH2 0x2717 JUMP JUMPDEST SWAP1 POP DUP4 PUSH1 0x2 ADD SLOAD NUMBER GT DUP1 ISZERO PUSH2 0x1943 JUMPI POP DUP1 ISZERO ISZERO JUMPDEST ISZERO PUSH2 0x19A3 JUMPI PUSH1 0x0 PUSH2 0x1958 DUP6 PUSH1 0x2 ADD SLOAD NUMBER PUSH2 0x1572 JUMP JUMPDEST SWAP1 POP PUSH1 0x0 PUSH2 0x197F PUSH1 0x9 SLOAD PUSH2 0x73A DUP9 PUSH1 0x1 ADD SLOAD PUSH2 0xF13 PUSH1 0x3 SLOAD DUP8 PUSH2 0x1C45 SWAP1 SWAP2 SWAP1 PUSH4 0xFFFFFFFF AND JUMP JUMPDEST SWAP1 POP PUSH2 0x199E PUSH2 0x1997 DUP5 PUSH2 0x73A DUP5 PUSH5 0xE8D4A51000 PUSH2 0x1C45 JUMP JUMPDEST DUP6 SWAP1 PUSH2 0x1F67 JUMP JUMPDEST SWAP4 POP POP POP JUMPDEST PUSH2 0x19CB DUP4 PUSH1 0x1 ADD SLOAD PUSH2 0x740 PUSH5 0xE8D4A51000 PUSH2 0x73A DUP7 DUP9 PUSH1 0x0 ADD SLOAD PUSH2 0x1C45 SWAP1 SWAP2 SWAP1 PUSH4 0xFFFFFFFF AND JUMP JUMPDEST SWAP8 SWAP7 POP POP POP POP POP POP POP JUMP JUMPDEST PUSH1 0x0 SLOAD PUSH1 0x1 PUSH1 0x1 PUSH1 0xA0 SHL SUB AND CALLER EQ PUSH2 0x1A00 JUMPI PUSH1 0x40 MLOAD PUSH3 0x461BCD PUSH1 0xE5 SHL DUP2 MSTORE PUSH1 0x4 ADD PUSH2 0x650 SWAP1 PUSH2 0x2888 JUMP JUMPDEST PUSH2 0x2710 DUP3 PUSH2 0xFFFF AND GT ISZERO PUSH2 0x1A64 JUMPI PUSH1 0x40 MLOAD PUSH3 0x461BCD PUSH1 0xE5 SHL DUP2 MSTORE PUSH1 0x20 PUSH1 0x4 DUP3 ADD MSTORE PUSH1 0x25 PUSH1 0x24 DUP3 ADD MSTORE PUSH32 0x7365743A20696E76616C6964206465706F736974206665652062617369732070 PUSH1 0x44 DUP3 ADD MSTORE PUSH5 0x6F696E7473 PUSH1 0xD8 SHL PUSH1 0x64 DUP3 ADD MSTORE PUSH1 0x84 ADD PUSH2 0x650 JUMP JUMPDEST DUP1 ISZERO PUSH2 0x1A72 JUMPI PUSH2 0x1A72 PUSH2 0x114B JUMP JUMPDEST PUSH2 0x1AB5 DUP4 PUSH2 0x1AAF PUSH1 0x7 DUP8 DUP2 SLOAD DUP2 LT PUSH2 0x1A8C JUMPI PUSH2 0x1A8C PUSH2 0x298A JUMP JUMPDEST SWAP1 PUSH1 0x0 MSTORE PUSH1 0x20 PUSH1 0x0 KECCAK256 SWAP1 PUSH1 0x5 MUL ADD PUSH1 0x1 ADD SLOAD PUSH1 0x9 SLOAD PUSH2 0x1D1F SWAP1 SWAP2 SWAP1 PUSH4 0xFFFFFFFF AND JUMP JUMPDEST SWAP1 PUSH2 0x1F67 JUMP JUMPDEST PUSH1 0x9 DUP2 SWAP1 SSTORE POP PUSH1 0x0 PUSH1 0x7 DUP6 DUP2 SLOAD DUP2 LT PUSH2 0x1AD0 JUMPI PUSH2 0x1AD0 PUSH2 0x298A JUMP JUMPDEST SWAP1 PUSH1 0x0 MSTORE PUSH1 0x20 PUSH1 0x0 KECCAK256 SWAP1 PUSH1 0x5 MUL ADD PUSH1 0x1 ADD SLOAD SWAP1 POP DUP4 PUSH1 0x7 DUP7 DUP2 SLOAD DUP2 LT PUSH2 0x1AF8 JUMPI PUSH2 0x1AF8 PUSH2 0x298A JUMP JUMPDEST SWAP1 PUSH1 0x0 MSTORE PUSH1 0x20 PUSH1 0x0 KECCAK256 SWAP1 PUSH1 0x5 MUL ADD PUSH1 0x1 ADD DUP2 SWAP1 SSTORE POP DUP3 PUSH1 0x7 DUP7 DUP2 SLOAD DUP2 LT PUSH2 0x1B21 JUMPI PUSH2 0x1B21 PUSH2 0x298A JUMP JUMPDEST SWAP1 PUSH1 0x0 MSTORE PUSH1 0x20 PUSH1 0x0 KECCAK256 SWAP1 PUSH1 0x5 MUL ADD PUSH1 0x4 ADD PUSH1 0x0 PUSH2 0x100 EXP DUP2 SLOAD DUP2 PUSH2 0xFFFF MUL NOT AND SWAP1 DUP4 PUSH2 0xFFFF AND MUL OR SWAP1 SSTORE POP DUP4 DUP2 EQ PUSH2 0x125E JUMPI PUSH2 0x125E PUSH2 0x216A JUMP JUMPDEST PUSH1 0x0 SLOAD PUSH1 0x1 PUSH1 0x1 PUSH1 0xA0 SHL SUB AND CALLER EQ PUSH2 0x1B85 JUMPI PUSH1 0x40 MLOAD PUSH3 0x461BCD PUSH1 0xE5 SHL DUP2 MSTORE PUSH1 0x4 ADD PUSH2 0x650 SWAP1 PUSH2 0x2888 JUMP JUMPDEST PUSH1 0x1 PUSH1 0x1 PUSH1 0xA0 SHL SUB DUP2 AND PUSH2 0x1BEA JUMPI PUSH1 0x40 MLOAD PUSH3 0x461BCD PUSH1 0xE5 SHL DUP2 MSTORE PUSH1 0x20 PUSH1 0x4 DUP3 ADD MSTORE PUSH1 0x26 PUSH1 0x24 DUP3 ADD MSTORE PUSH32 0x4F776E61626C653A206E6577206F776E657220697320746865207A65726F2061 PUSH1 0x44 DUP3 ADD MSTORE PUSH6 0x646472657373 PUSH1 0xD0 SHL PUSH1 0x64 DUP3 ADD MSTORE PUSH1 0x84 ADD PUSH2 0x650 JUMP JUMPDEST PUSH1 0x0 DUP1 SLOAD PUSH1 0x40 MLOAD PUSH1 0x1 PUSH1 0x1 PUSH1 0xA0 SHL SUB DUP1 DUP6 AND SWAP4 SWAP3 AND SWAP2 PUSH32 0x8BE0079C531659141344CD1FD0A4F28419497F9722A3DAAFE3B4186F6B6457E0 SWAP2 LOG3 PUSH1 0x0 DUP1 SLOAD PUSH1 0x1 PUSH1 0x1 PUSH1 0xA0 SHL SUB NOT AND PUSH1 0x1 PUSH1 0x1 PUSH1 0xA0 SHL SUB SWAP3 SWAP1 SWAP3 AND SWAP2 SWAP1 SWAP2 OR SWAP1 SSTORE JUMP JUMPDEST PUSH1 0x0 DUP3 PUSH2 0x1C54 JUMPI POP PUSH1 0x0 PUSH2 0x1589 JUMP JUMPDEST PUSH1 0x0 PUSH2 0x1C60 DUP4 DUP6 PUSH2 0x28F7 JUMP JUMPDEST SWAP1 POP DUP3 PUSH2 0x1C6D DUP6 DUP4 PUSH2 0x28D5 JUMP JUMPDEST EQ PUSH2 0x1586 JUMPI PUSH1 0x40 MLOAD PUSH3 0x461BCD PUSH1 0xE5 SHL DUP2 MSTORE PUSH1 0x20 PUSH1 0x4 DUP3 ADD MSTORE PUSH1 0x21 PUSH1 0x24 DUP3 ADD MSTORE PUSH32 0x536166654D6174683A206D756C7469706C69636174696F6E206F766572666C6F PUSH1 0x44 DUP3 ADD MSTORE PUSH1 0x77 PUSH1 0xF8 SHL PUSH1 0x64 DUP3 ADD MSTORE PUSH1 0x84 ADD PUSH2 0x650 JUMP JUMPDEST PUSH1 0x0 DUP1 DUP3 GT PUSH2 0x1D15 JUMPI PUSH1 0x40 MLOAD PUSH3 0x461BCD PUSH1 0xE5 SHL DUP2 MSTORE PUSH1 0x20 PUSH1 0x4 DUP3 ADD MSTORE PUSH1 0x1A PUSH1 0x24 DUP3 ADD MSTORE PUSH32 0x536166654D6174683A206469766973696F6E206279207A65726F000000000000 PUSH1 0x44 DUP3 ADD MSTORE PUSH1 0x64 ADD PUSH2 0x650 JUMP JUMPDEST PUSH2 0x1586 DUP3 DUP5 PUSH2 0x28D5 JUMP JUMPDEST PUSH1 0x0 DUP3 DUP3 GT ISZERO PUSH2 0x1D71 JUMPI PUSH1 0x40 MLOAD PUSH3 0x461BCD PUSH1 0xE5 SHL DUP2 MSTORE PUSH1 0x20 PUSH1 0x4 DUP3 ADD MSTORE PUSH1 0x1E PUSH1 0x24 DUP3 ADD MSTORE PUSH32 0x536166654D6174683A207375627472616374696F6E206F766572666C6F770000 PUSH1 0x44 DUP3 ADD MSTORE PUSH1 0x64 ADD PUSH2 0x650 JUMP JUMPDEST PUSH2 0x1586 DUP3 DUP5 PUSH2 0x2916 JUMP JUMPDEST PUSH1 0x1 SLOAD PUSH1 0x40 MLOAD PUSH4 0x70A08231 PUSH1 0xE0 SHL DUP2 MSTORE ADDRESS PUSH1 0x4 DUP3 ADD MSTORE PUSH1 0x0 SWAP2 PUSH1 0x1 PUSH1 0x1 PUSH1 0xA0 SHL SUB AND SWAP1 PUSH4 0x70A08231 SWAP1 PUSH1 0x24 ADD PUSH1 0x20 PUSH1 0x40 MLOAD DUP1 DUP4 SUB DUP2 DUP7 DUP1 EXTCODESIZE ISZERO DUP1 ISZERO PUSH2 0x1DBF JUMPI PUSH1 0x0 DUP1 REVERT JUMPDEST POP GAS STATICCALL ISZERO DUP1 ISZERO PUSH2 0x1DD3 JUMPI RETURNDATASIZE PUSH1 0x0 DUP1 RETURNDATACOPY RETURNDATASIZE PUSH1 0x0 REVERT JUMPDEST POP POP POP POP PUSH1 0x40 MLOAD RETURNDATASIZE PUSH1 0x1F NOT PUSH1 0x1F DUP3 ADD AND DUP3 ADD DUP1 PUSH1 0x40 MSTORE POP DUP2 ADD SWAP1 PUSH2 0x1DF7 SWAP2 SWAP1 PUSH2 0x2717 JUMP JUMPDEST SWAP1 POP DUP1 DUP3 GT ISZERO PUSH2 0x1E8E JUMPI PUSH1 0x1 SLOAD PUSH1 0x40 MLOAD PUSH4 0xA9059CBB PUSH1 0xE0 SHL DUP2 MSTORE PUSH1 0x1 PUSH1 0x1 PUSH1 0xA0 SHL SUB DUP6 DUP2 AND PUSH1 0x4 DUP4 ADD MSTORE PUSH1 0x24 DUP3 ADD DUP5 SWAP1 MSTORE SWAP1 SWAP2 AND SWAP1 PUSH4 0xA9059CBB SWAP1 PUSH1 0x44 ADD JUMPDEST PUSH1 0x20 PUSH1 0x40 MLOAD DUP1 DUP4 SUB DUP2 PUSH1 0x0 DUP8 DUP1 EXTCODESIZE ISZERO DUP1 ISZERO PUSH2 0x1E50 JUMPI PUSH1 0x0 DUP1 REVERT JUMPDEST POP GAS CALL ISZERO DUP1 ISZERO PUSH2 0x1E64 JUMPI RETURNDATASIZE PUSH1 0x0 DUP1 RETURNDATACOPY RETURNDATASIZE PUSH1 0x0 REVERT JUMPDEST POP POP POP POP PUSH1 0x40 MLOAD RETURNDATASIZE PUSH1 0x1F NOT PUSH1 0x1F DUP3 ADD AND DUP3 ADD DUP1 PUSH1 0x40 MSTORE POP DUP2 ADD SWAP1 PUSH2 0x1E88 SWAP2 SWAP1 PUSH2 0x26C6 JUMP JUMPDEST POP POP POP POP JUMP JUMPDEST PUSH1 0x1 SLOAD PUSH1 0x40 MLOAD PUSH4 0xA9059CBB PUSH1 0xE0 SHL DUP2 MSTORE PUSH1 0x1 PUSH1 0x1 PUSH1 0xA0 SHL SUB DUP6 DUP2 AND PUSH1 0x4 DUP4 ADD MSTORE PUSH1 0x24 DUP3 ADD DUP5 SWAP1 MSTORE SWAP1 SWAP2 AND SWAP1 PUSH4 0xA9059CBB SWAP1 PUSH1 0x44 ADD PUSH2 0x1E36 JUMP JUMPDEST POP POP POP JUMP JUMPDEST PUSH1 0x40 MLOAD PUSH1 0x1 PUSH1 0x1 PUSH1 0xA0 SHL SUB DUP4 AND PUSH1 0x24 DUP3 ADD MSTORE PUSH1 0x44 DUP2 ADD DUP3 SWAP1 MSTORE PUSH2 0x1EC7 SWAP1 DUP5 SWAP1 PUSH4 0xA9059CBB PUSH1 0xE0 SHL SWAP1 PUSH1 0x64 ADD JUMPDEST PUSH1 0x40 DUP1 MLOAD PUSH1 0x1F NOT DUP2 DUP5 SUB ADD DUP2 MSTORE SWAP2 SWAP1 MSTORE PUSH1 0x20 DUP2 ADD DUP1 MLOAD PUSH1 0x1 PUSH1 0x1 PUSH1 0xE0 SHL SUB AND PUSH1 0x1 PUSH1 0x1 PUSH1 0xE0 SHL SUB NOT SWAP1 SWAP4 AND SWAP3 SWAP1 SWAP3 OR SWAP1 SWAP2 MSTORE PUSH2 0x2226 JUMP JUMPDEST PUSH1 0x40 MLOAD PUSH1 0x1 PUSH1 0x1 PUSH1 0xA0 SHL SUB DUP1 DUP6 AND PUSH1 0x24 DUP4 ADD MSTORE DUP4 AND PUSH1 0x44 DUP3 ADD MSTORE PUSH1 0x64 DUP2 ADD DUP3 SWAP1 MSTORE PUSH2 0x1E88 SWAP1 DUP6 SWAP1 PUSH4 0x23B872DD PUSH1 0xE0 SHL SWAP1 PUSH1 0x84 ADD PUSH2 0x1EF8 JUMP JUMPDEST PUSH1 0x0 DUP1 PUSH2 0x1F74 DUP4 DUP6 PUSH2 0x28BD JUMP JUMPDEST SWAP1 POP DUP4 DUP2 LT ISZERO PUSH2 0x1586 JUMPI PUSH1 0x40 MLOAD PUSH3 0x461BCD PUSH1 0xE5 SHL DUP2 MSTORE PUSH1 0x20 PUSH1 0x4 DUP3 ADD MSTORE PUSH1 0x1B PUSH1 0x24 DUP3 ADD MSTORE PUSH32 0x536166654D6174683A206164646974696F6E206F766572666C6F770000000000 PUSH1 0x44 DUP3 ADD MSTORE PUSH1 0x64 ADD PUSH2 0x650 JUMP JUMPDEST PUSH1 0x0 PUSH1 0x7 DUP3 DUP2 SLOAD DUP2 LT PUSH2 0x1FDB JUMPI PUSH2 0x1FDB PUSH2 0x298A JUMP JUMPDEST PUSH1 0x0 SWAP2 DUP3 MSTORE PUSH1 0x20 DUP1 DUP4 KECCAK256 DUP6 DUP5 MSTORE PUSH1 0x8 DUP3 MSTORE PUSH1 0x40 DUP1 DUP6 KECCAK256 CALLER DUP7 MSTORE SWAP1 SWAP3 MSTORE SWAP1 DUP4 KECCAK256 PUSH1 0x1 DUP2 ADD SLOAD PUSH1 0x3 PUSH1 0x5 SWAP1 SWAP5 MUL SWAP1 SWAP3 ADD SWAP3 DUP4 ADD SLOAD DUP2 SLOAD SWAP4 SWAP6 POP SWAP1 SWAP4 SWAP3 PUSH2 0x202F SWAP3 SWAP2 PUSH2 0x740 SWAP2 PUSH5 0xE8D4A51000 SWAP2 PUSH2 0x73A SWAP2 SWAP1 PUSH2 0x1C45 JUMP JUMPDEST SWAP1 POP DUP1 ISZERO PUSH2 0x1E88 JUMPI PUSH2 0x1E88 CALLER DUP3 DUP5 PUSH1 0x2 ADD SLOAD PUSH2 0x22F8 JUMP JUMPDEST DUP1 ISZERO DUP1 PUSH2 0x20CF JUMPI POP PUSH1 0x40 MLOAD PUSH4 0x6EB1769F PUSH1 0xE1 SHL DUP2 MSTORE ADDRESS PUSH1 0x4 DUP3 ADD MSTORE PUSH1 0x1 PUSH1 0x1 PUSH1 0xA0 SHL SUB DUP4 DUP2 AND PUSH1 0x24 DUP4 ADD MSTORE DUP5 AND SWAP1 PUSH4 0xDD62ED3E SWAP1 PUSH1 0x44 ADD PUSH1 0x20 PUSH1 0x40 MLOAD DUP1 DUP4 SUB DUP2 DUP7 DUP1 EXTCODESIZE ISZERO DUP1 ISZERO PUSH2 0x2095 JUMPI PUSH1 0x0 DUP1 REVERT JUMPDEST POP GAS STATICCALL ISZERO DUP1 ISZERO PUSH2 0x20A9 JUMPI RETURNDATASIZE PUSH1 0x0 DUP1 RETURNDATACOPY RETURNDATASIZE PUSH1 0x0 REVERT JUMPDEST POP POP POP POP PUSH1 0x40 MLOAD RETURNDATASIZE PUSH1 0x1F NOT PUSH1 0x1F DUP3 ADD AND DUP3 ADD DUP1 PUSH1 0x40 MSTORE POP DUP2 ADD SWAP1 PUSH2 0x20CD SWAP2 SWAP1 PUSH2 0x2717 JUMP JUMPDEST ISZERO JUMPDEST PUSH2 0x213A JUMPI PUSH1 0x40 MLOAD PUSH3 0x461BCD PUSH1 0xE5 SHL DUP2 MSTORE PUSH1 0x20 PUSH1 0x4 DUP3 ADD MSTORE PUSH1 0x36 PUSH1 0x24 DUP3 ADD MSTORE PUSH32 0x5361666542455032303A20617070726F76652066726F6D206E6F6E2D7A65726F PUSH1 0x44 DUP3 ADD MSTORE PUSH22 0x20746F206E6F6E2D7A65726F20616C6C6F77616E6365 PUSH1 0x50 SHL PUSH1 0x64 DUP3 ADD MSTORE PUSH1 0x84 ADD PUSH2 0x650 JUMP JUMPDEST PUSH1 0x40 MLOAD PUSH1 0x1 PUSH1 0x1 PUSH1 0xA0 SHL SUB DUP4 AND PUSH1 0x24 DUP3 ADD MSTORE PUSH1 0x44 DUP2 ADD DUP3 SWAP1 MSTORE PUSH2 0x1EC7 SWAP1 DUP5 SWAP1 PUSH4 0x95EA7B3 PUSH1 0xE0 SHL SWAP1 PUSH1 0x64 ADD PUSH2 0x1EF8 JUMP JUMPDEST PUSH1 0x7 SLOAD PUSH1 0x0 PUSH1 0x1 JUMPDEST DUP3 DUP2 LT ISZERO PUSH2 0x21C3 JUMPI PUSH2 0x21B1 PUSH1 0x7 DUP3 DUP2 SLOAD DUP2 LT PUSH2 0x2190 JUMPI PUSH2 0x2190 PUSH2 0x298A JUMP JUMPDEST SWAP1 PUSH1 0x0 MSTORE PUSH1 0x20 PUSH1 0x0 KECCAK256 SWAP1 PUSH1 0x5 MUL ADD PUSH1 0x1 ADD SLOAD DUP4 PUSH2 0x1F67 SWAP1 SWAP2 SWAP1 PUSH4 0xFFFFFFFF AND JUMP JUMPDEST SWAP2 POP PUSH2 0x21BC DUP2 PUSH2 0x2959 JUMP JUMPDEST SWAP1 POP PUSH2 0x2172 JUMP JUMPDEST POP DUP1 ISZERO PUSH2 0x1172 JUMPI PUSH2 0x21D5 DUP2 PUSH1 0x3 PUSH2 0x1CC4 JUMP JUMPDEST SWAP1 POP PUSH2 0x21F2 DUP2 PUSH2 0x1AAF PUSH1 0x7 PUSH1 0x0 DUP2 SLOAD DUP2 LT PUSH2 0x1A8C JUMPI PUSH2 0x1A8C PUSH2 0x298A JUMP JUMPDEST PUSH1 0x9 DUP2 SWAP1 SSTORE POP DUP1 PUSH1 0x7 PUSH1 0x0 DUP2 SLOAD DUP2 LT PUSH2 0x220D JUMPI PUSH2 0x220D PUSH2 0x298A JUMP JUMPDEST SWAP1 PUSH1 0x0 MSTORE PUSH1 0x20 PUSH1 0x0 KECCAK256 SWAP1 PUSH1 0x5 MUL ADD PUSH1 0x1 ADD DUP2 SWAP1 SSTORE POP POP POP JUMP JUMPDEST PUSH1 0x0 PUSH2 0x227B DUP3 PUSH1 0x40 MLOAD DUP1 PUSH1 0x40 ADD PUSH1 0x40 MSTORE DUP1 PUSH1 0x20 DUP2 MSTORE PUSH1 0x20 ADD PUSH32 0x5361666542455032303A206C6F772D6C6576656C2063616C6C206661696C6564 DUP2 MSTORE POP DUP6 PUSH1 0x1 PUSH1 0x1 PUSH1 0xA0 SHL SUB AND PUSH2 0x250B SWAP1 SWAP3 SWAP2 SWAP1 PUSH4 0xFFFFFFFF AND JUMP JUMPDEST DUP1 MLOAD SWAP1 SWAP2 POP ISZERO PUSH2 0x1EC7 JUMPI DUP1 DUP1 PUSH1 0x20 ADD SWAP1 MLOAD DUP2 ADD SWAP1 PUSH2 0x2299 SWAP2 SWAP1 PUSH2 0x26C6 JUMP JUMPDEST PUSH2 0x1EC7 JUMPI PUSH1 0x40 MLOAD PUSH3 0x461BCD PUSH1 0xE5 SHL DUP2 MSTORE PUSH1 0x20 PUSH1 0x4 DUP3 ADD MSTORE PUSH1 0x2A PUSH1 0x24 DUP3 ADD MSTORE PUSH32 0x5361666542455032303A204245503230206F7065726174696F6E20646964206E PUSH1 0x44 DUP3 ADD MSTORE PUSH10 0x1BDD081CDD58D8D95959 PUSH1 0xB2 SHL PUSH1 0x64 DUP3 ADD MSTORE PUSH1 0x84 ADD PUSH2 0x650 JUMP JUMPDEST PUSH1 0x0 DUP1 PUSH1 0xD SLOAD GT DUP1 ISZERO PUSH2 0x230C JUMPI POP PUSH1 0xD SLOAD DUP3 GT JUMPDEST ISZERO PUSH2 0x2324 JUMPI POP PUSH1 0xC SLOAD PUSH3 0x10000 SWAP1 DIV PUSH2 0xFFFF AND PUSH2 0x232D JUMP JUMPDEST POP PUSH1 0xC SLOAD PUSH2 0xFFFF AND JUMPDEST PUSH1 0xF SLOAD PUSH1 0x1 PUSH1 0x1 PUSH1 0xA0 SHL SUB AND ISZERO DUP1 ISZERO SWAP1 PUSH2 0x2347 JUMPI POP PUSH1 0x0 DUP2 GT JUMPDEST ISZERO PUSH2 0x1E88 JUMPI PUSH1 0xF SLOAD PUSH1 0x40 MLOAD PUSH4 0x4A9FEFC7 PUSH1 0xE0 SHL DUP2 MSTORE PUSH1 0x1 PUSH1 0x1 PUSH1 0xA0 SHL SUB DUP7 DUP2 AND PUSH1 0x4 DUP4 ADD MSTORE PUSH1 0x0 SWAP3 AND SWAP1 PUSH4 0x4A9FEFC7 SWAP1 PUSH1 0x24 ADD PUSH1 0x20 PUSH1 0x40 MLOAD DUP1 DUP4 SUB DUP2 DUP7 DUP1 EXTCODESIZE ISZERO DUP1 ISZERO PUSH2 0x2392 JUMPI PUSH1 0x0 DUP1 REVERT JUMPDEST POP GAS STATICCALL ISZERO DUP1 ISZERO PUSH2 0x23A6 JUMPI RETURNDATASIZE PUSH1 0x0 DUP1 RETURNDATACOPY RETURNDATASIZE PUSH1 0x0 REVERT JUMPDEST POP POP POP POP PUSH1 0x40 MLOAD RETURNDATASIZE PUSH1 0x1F NOT PUSH1 0x1F DUP3 ADD AND DUP3 ADD DUP1 PUSH1 0x40 MSTORE POP DUP2 ADD SWAP1 PUSH2 0x23CA SWAP2 SWAP1 PUSH2 0x26A9 JUMP JUMPDEST SWAP1 POP PUSH1 0x0 PUSH2 0x23DE PUSH2 0x2710 PUSH2 0x73A DUP8 DUP7 PUSH2 0x1C45 JUMP JUMPDEST SWAP1 POP PUSH1 0x1 PUSH1 0x1 PUSH1 0xA0 SHL SUB DUP3 AND ISZERO DUP1 ISZERO SWAP1 PUSH2 0x23F8 JUMPI POP PUSH1 0x0 DUP2 GT JUMPDEST ISZERO PUSH2 0x2503 JUMPI PUSH1 0x1 PUSH1 0x1 PUSH1 0xA0 SHL SUB DUP3 AND PUSH1 0x0 SWAP1 DUP2 MSTORE PUSH1 0xE PUSH1 0x20 MSTORE PUSH1 0x40 SWAP1 KECCAK256 SLOAD PUSH2 0x2421 SWAP1 DUP3 SWAP1 PUSH2 0x28BD JUMP JUMPDEST PUSH1 0x1 PUSH1 0x1 PUSH1 0xA0 SHL SUB DUP4 DUP2 AND PUSH1 0x0 DUP2 DUP2 MSTORE PUSH1 0xE PUSH1 0x20 MSTORE PUSH1 0x40 SWAP1 DUP2 SWAP1 KECCAK256 SWAP4 SWAP1 SWAP4 SSTORE PUSH1 0x1 SLOAD SWAP3 MLOAD PUSH4 0x40C10F19 PUSH1 0xE0 SHL DUP2 MSTORE PUSH1 0x4 DUP2 ADD SWAP2 SWAP1 SWAP2 MSTORE PUSH1 0x24 DUP2 ADD DUP5 SWAP1 MSTORE SWAP2 AND SWAP1 PUSH4 0x40C10F19 SWAP1 PUSH1 0x44 ADD PUSH1 0x0 PUSH1 0x40 MLOAD DUP1 DUP4 SUB DUP2 PUSH1 0x0 DUP8 DUP1 EXTCODESIZE ISZERO DUP1 ISZERO PUSH2 0x2484 JUMPI PUSH1 0x0 DUP1 REVERT JUMPDEST POP GAS CALL ISZERO DUP1 ISZERO PUSH2 0x2498 JUMPI RETURNDATASIZE PUSH1 0x0 DUP1 RETURNDATACOPY RETURNDATASIZE PUSH1 0x0 REVERT JUMPDEST POP POP PUSH1 0xF SLOAD PUSH1 0x40 MLOAD PUSH4 0x1B82D297 PUSH1 0xE3 SHL DUP2 MSTORE PUSH1 0x1 PUSH1 0x1 PUSH1 0xA0 SHL SUB DUP7 DUP2 AND PUSH1 0x4 DUP4 ADD MSTORE PUSH1 0x24 DUP3 ADD DUP7 SWAP1 MSTORE SWAP1 SWAP2 AND SWAP3 POP PUSH4 0xDC1694B8 SWAP2 POP PUSH1 0x44 ADD PUSH1 0x0 PUSH1 0x40 MLOAD DUP1 DUP4 SUB DUP2 PUSH1 0x0 DUP8 DUP1 EXTCODESIZE ISZERO DUP1 ISZERO PUSH2 0x24EA JUMPI PUSH1 0x0 DUP1 REVERT JUMPDEST POP GAS CALL ISZERO DUP1 ISZERO PUSH2 0x24FE JUMPI RETURNDATASIZE PUSH1 0x0 DUP1 RETURNDATACOPY RETURNDATASIZE PUSH1 0x0 REVERT JUMPDEST POP POP POP POP JUMPDEST POP POP POP POP POP POP JUMP JUMPDEST PUSH1 0x60 PUSH2 0x251A DUP5 DUP5 PUSH1 0x0 DUP6 PUSH2 0x2524 JUMP JUMPDEST SWAP1 POP JUMPDEST SWAP4 SWAP3 POP POP POP JUMP JUMPDEST PUSH1 0x60 DUP3 SELFBALANCE LT ISZERO PUSH2 0x2585 JUMPI PUSH1 0x40 MLOAD PUSH3 0x461BCD PUSH1 0xE5 SHL DUP2 MSTORE PUSH1 0x20 PUSH1 0x4 DUP3 ADD MSTORE PUSH1 0x26 PUSH1 0x24 DUP3 ADD MSTORE PUSH32 0x416464726573733A20696E73756666696369656E742062616C616E636520666F PUSH1 0x44 DUP3 ADD MSTORE PUSH6 0x1C8818D85B1B PUSH1 0xD2 SHL PUSH1 0x64 DUP3 ADD MSTORE PUSH1 0x84 ADD PUSH2 0x650 JUMP JUMPDEST DUP5 EXTCODESIZE PUSH2 0x25D3 JUMPI PUSH1 0x40 MLOAD PUSH3 0x461BCD PUSH1 0xE5 SHL DUP2 MSTORE PUSH1 0x20 PUSH1 0x4 DUP3 ADD MSTORE PUSH1 0x1D PUSH1 0x24 DUP3 ADD MSTORE PUSH32 0x416464726573733A2063616C6C20746F206E6F6E2D636F6E7472616374000000 PUSH1 0x44 DUP3 ADD MSTORE PUSH1 0x64 ADD PUSH2 0x650 JUMP JUMPDEST PUSH1 0x0 DUP1 DUP7 PUSH1 0x1 PUSH1 0x1 PUSH1 0xA0 SHL SUB AND DUP6 DUP8 PUSH1 0x40 MLOAD PUSH2 0x25EF SWAP2 SWAP1 PUSH2 0x2839 JUMP JUMPDEST PUSH1 0x0 PUSH1 0x40 MLOAD DUP1 DUP4 SUB DUP2 DUP6 DUP8 GAS CALL SWAP3 POP POP POP RETURNDATASIZE DUP1 PUSH1 0x0 DUP2 EQ PUSH2 0x262C JUMPI PUSH1 0x40 MLOAD SWAP2 POP PUSH1 0x1F NOT PUSH1 0x3F RETURNDATASIZE ADD AND DUP3 ADD PUSH1 0x40 MSTORE RETURNDATASIZE DUP3 MSTORE RETURNDATASIZE PUSH1 0x0 PUSH1 0x20 DUP5 ADD RETURNDATACOPY PUSH2 0x2631 JUMP JUMPDEST PUSH1 0x60 SWAP2 POP JUMPDEST POP SWAP2 POP SWAP2 POP PUSH2 0x19CB DUP3 DUP3 DUP7 PUSH1 0x60 DUP4 ISZERO PUSH2 0x264B JUMPI POP DUP2 PUSH2 0x251D JUMP JUMPDEST DUP3 MLOAD ISZERO PUSH2 0x265B JUMPI DUP3 MLOAD DUP1 DUP5 PUSH1 0x20 ADD REVERT JUMPDEST DUP2 PUSH1 0x40 MLOAD PUSH3 0x461BCD PUSH1 0xE5 SHL DUP2 MSTORE PUSH1 0x4 ADD PUSH2 0x650 SWAP2 SWAP1 PUSH2 0x2855 JUMP JUMPDEST DUP1 CALLDATALOAD PUSH2 0xFFFF DUP2 AND DUP2 EQ PUSH2 0x2687 JUMPI PUSH1 0x0 DUP1 REVERT JUMPDEST SWAP2 SWAP1 POP JUMP JUMPDEST PUSH1 0x0 PUSH1 0x20 DUP3 DUP5 SUB SLT ISZERO PUSH2 0x269E JUMPI PUSH1 0x0 DUP1 REVERT JUMPDEST DUP2 CALLDATALOAD PUSH2 0x1586 DUP2 PUSH2 0x29A0 JUMP JUMPDEST PUSH1 0x0 PUSH1 0x20 DUP3 DUP5 SUB SLT ISZERO PUSH2 0x26BB JUMPI PUSH1 0x0 DUP1 REVERT JUMPDEST DUP2 MLOAD PUSH2 0x1586 DUP2 PUSH2 0x29A0 JUMP JUMPDEST PUSH1 0x0 PUSH1 0x20 DUP3 DUP5 SUB SLT ISZERO PUSH2 0x26D8 JUMPI PUSH1 0x0 DUP1 REVERT JUMPDEST DUP2 MLOAD PUSH2 0x1586 DUP2 PUSH2 0x29B8 JUMP JUMPDEST PUSH1 0x0 PUSH1 0x20 DUP3 DUP5 SUB SLT ISZERO PUSH2 0x26F5 JUMPI PUSH1 0x0 DUP1 REVERT JUMPDEST PUSH2 0x1586 DUP3 PUSH2 0x2675 JUMP JUMPDEST PUSH1 0x0 PUSH1 0x20 DUP3 DUP5 SUB SLT ISZERO PUSH2 0x2710 JUMPI PUSH1 0x0 DUP1 REVERT JUMPDEST POP CALLDATALOAD SWAP2 SWAP1 POP JUMP JUMPDEST PUSH1 0x0 PUSH1 0x20 DUP3 DUP5 SUB SLT ISZERO PUSH2 0x2729 JUMPI PUSH1 0x0 DUP1 REVERT JUMPDEST POP MLOAD SWAP2 SWAP1 POP JUMP JUMPDEST PUSH1 0x0 DUP1 PUSH1 0x40 DUP4 DUP6 SUB SLT ISZERO PUSH2 0x2743 JUMPI PUSH1 0x0 DUP1 REVERT JUMPDEST DUP3 CALLDATALOAD SWAP2 POP PUSH1 0x20 DUP4 ADD CALLDATALOAD PUSH2 0x2755 DUP2 PUSH2 0x29A0 JUMP JUMPDEST DUP1 SWAP2 POP POP SWAP3 POP SWAP3 SWAP1 POP JUMP JUMPDEST PUSH1 0x0 DUP1 PUSH1 0x0 DUP1 PUSH1 0x80 DUP6 DUP8 SUB SLT ISZERO PUSH2 0x2776 JUMPI PUSH1 0x0 DUP1 REVERT JUMPDEST DUP5 CALLDATALOAD SWAP4 POP PUSH1 0x20 DUP6 ADD CALLDATALOAD PUSH2 0x2788 DUP2 PUSH2 0x29A0 JUMP JUMPDEST SWAP3 POP PUSH2 0x2796 PUSH1 0x40 DUP7 ADD PUSH2 0x2675 JUMP JUMPDEST SWAP2 POP PUSH1 0x60 DUP6 ADD CALLDATALOAD PUSH2 0x27A6 DUP2 PUSH2 0x29B8 JUMP JUMPDEST SWAP4 SWAP7 SWAP3 SWAP6 POP SWAP1 SWAP4 POP POP JUMP JUMPDEST PUSH1 0x0 DUP1 PUSH1 0x40 DUP4 DUP6 SUB SLT ISZERO PUSH2 0x27C4 JUMPI PUSH1 0x0 DUP1 REVERT JUMPDEST POP POP DUP1 CALLDATALOAD SWAP3 PUSH1 0x20 SWAP1 SWAP2 ADD CALLDATALOAD SWAP2 POP JUMP JUMPDEST PUSH1 0x0 DUP1 PUSH1 0x0 PUSH1 0x60 DUP5 DUP7 SUB SLT ISZERO PUSH2 0x27E8 JUMPI PUSH1 0x0 DUP1 REVERT JUMPDEST DUP4 CALLDATALOAD SWAP3 POP PUSH1 0x20 DUP5 ADD CALLDATALOAD SWAP2 POP PUSH1 0x40 DUP5 ADD CALLDATALOAD PUSH2 0x2801 DUP2 PUSH2 0x29A0 JUMP JUMPDEST DUP1 SWAP2 POP POP SWAP3 POP SWAP3 POP SWAP3 JUMP JUMPDEST PUSH1 0x0 DUP1 PUSH1 0x0 DUP1 PUSH1 0x80 DUP6 DUP8 SUB SLT ISZERO PUSH2 0x2822 JUMPI PUSH1 0x0 DUP1 REVERT JUMPDEST DUP5 CALLDATALOAD SWAP4 POP PUSH1 0x20 DUP6 ADD CALLDATALOAD SWAP3 POP PUSH2 0x2796 PUSH1 0x40 DUP7 ADD PUSH2 0x2675 JUMP JUMPDEST PUSH1 0x0 DUP3 MLOAD PUSH2 0x284B DUP2 DUP5 PUSH1 0x20 DUP8 ADD PUSH2 0x292D JUMP JUMPDEST SWAP2 SWAP1 SWAP2 ADD SWAP3 SWAP2 POP POP JUMP JUMPDEST PUSH1 0x20 DUP2 MSTORE PUSH1 0x0 DUP3 MLOAD DUP1 PUSH1 0x20 DUP5 ADD MSTORE PUSH2 0x2874 DUP2 PUSH1 0x40 DUP6 ADD PUSH1 0x20 DUP8 ADD PUSH2 0x292D JUMP JUMPDEST PUSH1 0x1F ADD PUSH1 0x1F NOT AND SWAP2 SWAP1 SWAP2 ADD PUSH1 0x40 ADD SWAP3 SWAP2 POP POP JUMP JUMPDEST PUSH1 0x20 DUP1 DUP3 MSTORE DUP2 DUP2 ADD MSTORE PUSH32 0x4F776E61626C653A2063616C6C6572206973206E6F7420746865206F776E6572 PUSH1 0x40 DUP3 ADD MSTORE PUSH1 0x60 ADD SWAP1 JUMP JUMPDEST PUSH1 0x0 DUP3 NOT DUP3 GT ISZERO PUSH2 0x28D0 JUMPI PUSH2 0x28D0 PUSH2 0x2974 JUMP JUMPDEST POP ADD SWAP1 JUMP JUMPDEST PUSH1 0x0 DUP3 PUSH2 0x28F2 JUMPI PUSH4 0x4E487B71 PUSH1 0xE0 SHL PUSH1 0x0 MSTORE PUSH1 0x12 PUSH1 0x4 MSTORE PUSH1 0x24 PUSH1 0x0 REVERT JUMPDEST POP DIV SWAP1 JUMP JUMPDEST PUSH1 0x0 DUP2 PUSH1 0x0 NOT DIV DUP4 GT DUP3 ISZERO ISZERO AND ISZERO PUSH2 0x2911 JUMPI PUSH2 0x2911 PUSH2 0x2974 JUMP JUMPDEST POP MUL SWAP1 JUMP JUMPDEST PUSH1 0x0 DUP3 DUP3 LT ISZERO PUSH2 0x2928 JUMPI PUSH2 0x2928 PUSH2 0x2974 JUMP JUMPDEST POP SUB SWAP1 JUMP JUMPDEST PUSH1 0x0 JUMPDEST DUP4 DUP2 LT ISZERO PUSH2 0x2948 JUMPI DUP2 DUP2 ADD MLOAD DUP4 DUP3 ADD MSTORE PUSH1 0x20 ADD PUSH2 0x2930 JUMP JUMPDEST DUP4 DUP2 GT ISZERO PUSH2 0x1E88 JUMPI POP POP PUSH1 0x0 SWAP2 ADD MSTORE JUMP JUMPDEST PUSH1 0x0 PUSH1 0x0 NOT DUP3 EQ ISZERO PUSH2 0x296D JUMPI PUSH2 0x296D PUSH2 0x2974 JUMP JUMPDEST POP PUSH1 0x1 ADD SWAP1 JUMP JUMPDEST PUSH4 0x4E487B71 PUSH1 0xE0 SHL PUSH1 0x0 MSTORE PUSH1 0x11 PUSH1 0x4 MSTORE PUSH1 0x24 PUSH1 0x0 REVERT JUMPDEST PUSH4 0x4E487B71 PUSH1 0xE0 SHL PUSH1 0x0 MSTORE PUSH1 0x32 PUSH1 0x4 MSTORE PUSH1 0x24 PUSH1 0x0 REVERT JUMPDEST PUSH1 0x1 PUSH1 0x1 PUSH1 0xA0 SHL SUB DUP2 AND DUP2 EQ PUSH2 0x29B5 JUMPI PUSH1 0x0 DUP1 REVERT JUMPDEST POP JUMP JUMPDEST DUP1 ISZERO ISZERO DUP2 EQ PUSH2 0x29B5 JUMPI PUSH1 0x0 DUP1 REVERT INVALID LOG2 PUSH5 0x6970667358 0x22 SLT KECCAK256 0xAB CALLCODE 0xCA 0xCF PUSH10 0x2CADD50935ABDE4AC951 MOD PUSH7 0xE5A5920E826D06 SWAP6 0x4B MSTORE SWAP6 GAS 0xEC ADDMOD 0xCF PUSH5 0x736F6C6343 STOP ADDMOD MOD STOP CALLER "
		},
		"gasEstimates": {
			"creation": {
				"codeDepositCost": "2149600",
				"executionCost": "infinite",
				"totalCost": "infinite"
			},
			"external": {
				"BONUS_MULTIPLIER()": "2418",
				"HarvestLockup()": "2395",
				"RedBerry()": "2469",
				"add(uint256,address,uint16,bool)": "infinite",
				"deposit(uint256,uint256,address)": "infinite",
				"dev(address)": "26754",
				"devaddr()": "2403",
				"emergencyWithdraw(uint256)": "infinite",
				"enterStaking(uint256)": "infinite",
				"feeAddress()": "2427",
				"getMultiplier(uint256,uint256)": "infinite",
				"getUserReferrerBalance(address)": "2636",
				"leaveStaking(uint256)": "infinite",
				"massUpdatePools()": "infinite",
				"migrate(uint256)": "infinite",
				"migrator()": "2383",
				"owner()": "2398",
				"pendingRedBerry(uint256,address)": "infinite",
				"poolInfo(uint256)": "13294",
				"poolLength()": "2317",
				"redBerryPerBlock()": "2439",
				"redBerryReferral()": "2382",
				"referralCommissionRateForAll()": "2402",
				"referralCommissionRateForNew()": "2479",
				"renounceOwnership()": "30254",
				"set(uint256,uint256,uint16,bool)": "infinite",
				"setAllReferralCommissionRate(uint16)": "26813",
				"setFeeAddress(address)": "26821",
				"setMigrator(address)": "26777",
				"setNewReferralCommissionRate(uint16)": "48862",
				"setRedBerryReferral(address)": "26842",
				"setTimeForNewReferralCommissionRate(uint256)": "24532",
				"startBlock()": "2330",
				"timeForSetNewCommissionRate()": "2372",
				"totalAllocPoint()": "2419",
				"transferOwnership(address)": "30552",
				"updateEmissionRate(uint256)": "infinite",
				"updateHarvestLookupTime(uint256)": "24510",
				"updateMultiplier(uint256)": "24509",
				"updatePool(uint256)": "infinite",
				"userInfo(uint256,address)": "7024",
				"userReferalAmount(address)": "2639",
				"widrowReferrerBalance()": "infinite",
				"withdraw(uint256,uint256)": "infinite"
			},
			"internal": {
				"payOrLockupPendingredb(uint256)": "infinite",
				"payReferralCommission(address,uint256,uint256)": "infinite",
				"safeRedBerryTransfer(address,uint256)": "infinite",
				"updateStakingPool()": "infinite"
			}
		},
		"methodIdentifiers": {
			"BONUS_MULTIPLIER()": "8aa28550",
			"HarvestLockup()": "b491ccba",
			"RedBerry()": "ebebad76",
			"add(uint256,address,uint16,bool)": "84e82a33",
			"deposit(uint256,uint256,address)": "8dbdbe6d",
			"dev(address)": "8d88a90e",
			"devaddr()": "d49e77cd",
			"emergencyWithdraw(uint256)": "5312ea8e",
			"enterStaking(uint256)": "41441d3b",
			"feeAddress()": "41275358",
			"getMultiplier(uint256,uint256)": "8dbb1e3a",
			"getUserReferrerBalance(address)": "57b48b1e",
			"leaveStaking(uint256)": "1058d281",
			"massUpdatePools()": "630b5ba1",
			"migrate(uint256)": "454b0608",
			"migrator()": "7cd07e47",
			"owner()": "8da5cb5b",
			"pendingRedBerry(uint256,address)": "c55b5e62",
			"poolInfo(uint256)": "1526fe27",
			"poolLength()": "081e3eda",
			"redBerryPerBlock()": "9a020580",
			"redBerryReferral()": "a5b870c7",
			"referralCommissionRateForAll()": "af61474f",
			"referralCommissionRateForNew()": "7bb0b10a",
			"renounceOwnership()": "715018a6",
			"set(uint256,uint256,uint16,bool)": "d9638422",
			"setAllReferralCommissionRate(uint16)": "5b1eb875",
			"setFeeAddress(address)": "8705fcd4",
			"setMigrator(address)": "23cf3118",
			"setNewReferralCommissionRate(uint16)": "a6c1a224",
			"setRedBerryReferral(address)": "bf27c437",
			"setTimeForNewReferralCommissionRate(uint256)": "83de03b5",
			"startBlock()": "48cd4cb1",
			"timeForSetNewCommissionRate()": "d8239d78",
			"totalAllocPoint()": "17caf6f1",
			"transferOwnership(address)": "f2fde38b",
			"updateEmissionRate(uint256)": "0ba84cd2",
			"updateHarvestLookupTime(uint256)": "1dd4850a",
			"updateMultiplier(uint256)": "5ffe6146",
			"updatePool(uint256)": "51eb05a6",
			"userInfo(uint256,address)": "93f1a40b",
			"userReferalAmount(address)": "71765d21",
			"widrowReferrerBalance()": "71543313",
			"withdraw(uint256,uint256)": "441a3e70"
		}
	},
	"abi": [
		{
			"inputs": [
				{
					"internalType": "contract RedBerryToken",
					"name": "_redBerry",
					"type": "address"
				},
				{
					"internalType": "address",
					"name": "_devaddr",
					"type": "address"
				},
				{
					"internalType": "address",
					"name": "_feeAddress",
					"type": "address"
				},
				{
					"internalType": "uint256",
					"name": "_redBerryPerBlock",
					"type": "uint256"
				},
				{
					"internalType": "uint256",
					"name": "_startBlock",
					"type": "uint256"
				},
				{
					"internalType": "uint16",
					"name": "_depositFeeBP",
					"type": "uint16"
				}
			],
			"stateMutability": "nonpayable",
			"type": "constructor"
		},
		{
			"anonymous": false,
			"inputs": [
				{
					"indexed": true,
					"internalType": "address",
					"name": "user",
					"type": "address"
				},
				{
					"indexed": true,
					"internalType": "uint256",
					"name": "pid",
					"type": "uint256"
				},
				{
					"indexed": false,
					"internalType": "uint256",
					"name": "amount",
					"type": "uint256"
				}
			],
			"name": "Deposit",
			"type": "event"
		},
		{
			"anonymous": false,
			"inputs": [
				{
					"indexed": true,
					"internalType": "address",
					"name": "user",
					"type": "address"
				},
				{
					"indexed": true,
					"internalType": "uint256",
					"name": "pid",
					"type": "uint256"
				},
				{
					"indexed": false,
					"internalType": "uint256",
					"name": "amount",
					"type": "uint256"
				}
			],
			"name": "EmergencyWithdraw",
			"type": "event"
		},
		{
			"anonymous": false,
			"inputs": [
				{
					"indexed": true,
					"internalType": "address",
					"name": "previousOwner",
					"type": "address"
				},
				{
					"indexed": true,
					"internalType": "address",
					"name": "newOwner",
					"type": "address"
				}
			],
			"name": "OwnershipTransferred",
			"type": "event"
		},
		{
			"anonymous": false,
			"inputs": [
				{
					"indexed": true,
					"internalType": "address",
					"name": "user",
					"type": "address"
				},
				{
					"indexed": true,
					"internalType": "uint256",
					"name": "pid",
					"type": "uint256"
				},
				{
					"indexed": false,
					"internalType": "uint256",
					"name": "amount",
					"type": "uint256"
				}
			],
			"name": "Withdraw",
			"type": "event"
		},
		{
			"inputs": [],
			"name": "BONUS_MULTIPLIER",
			"outputs": [
				{
					"internalType": "uint256",
					"name": "",
					"type": "uint256"
				}
			],
			"stateMutability": "view",
			"type": "function"
		},
		{
			"inputs": [],
			"name": "HarvestLockup",
			"outputs": [
				{
					"internalType": "uint256",
					"name": "",
					"type": "uint256"
				}
			],
			"stateMutability": "view",
			"type": "function"
		},
		{
			"inputs": [],
			"name": "RedBerry",
			"outputs": [
				{
					"internalType": "contract RedBerryToken",
					"name": "",
					"type": "address"
				}
			],
			"stateMutability": "view",
			"type": "function"
		},
		{
			"inputs": [
				{
					"internalType": "uint256",
					"name": "_allocPoint",
					"type": "uint256"
				},
				{
					"internalType": "contract IBEP20",
					"name": "_lpToken",
					"type": "address"
				},
				{
					"internalType": "uint16",
					"name": "_depositFeeBP",
					"type": "uint16"
				},
				{
					"internalType": "bool",
					"name": "_withUpdate",
					"type": "bool"
				}
			],
			"name": "add",
			"outputs": [],
			"stateMutability": "nonpayable",
			"type": "function"
		},
		{
			"inputs": [
				{
					"internalType": "uint256",
					"name": "_pid",
					"type": "uint256"
				},
				{
					"internalType": "uint256",
					"name": "_amount",
					"type": "uint256"
				},
				{
					"internalType": "address",
					"name": "_referrer",
					"type": "address"
				}
			],
			"name": "deposit",
			"outputs": [],
			"stateMutability": "nonpayable",
			"type": "function"
		},
		{
			"inputs": [
				{
					"internalType": "address",
					"name": "_devaddr",
					"type": "address"
				}
			],
			"name": "dev",
			"outputs": [],
			"stateMutability": "nonpayable",
			"type": "function"
		},
		{
			"inputs": [],
			"name": "devaddr",
			"outputs": [
				{
					"internalType": "address",
					"name": "",
					"type": "address"
				}
			],
			"stateMutability": "view",
			"type": "function"
		},
		{
			"inputs": [
				{
					"internalType": "uint256",
					"name": "_pid",
					"type": "uint256"
				}
			],
			"name": "emergencyWithdraw",
			"outputs": [],
			"stateMutability": "nonpayable",
			"type": "function"
		},
		{
			"inputs": [
				{
					"internalType": "uint256",
					"name": "_amount",
					"type": "uint256"
				}
			],
			"name": "enterStaking",
			"outputs": [],
			"stateMutability": "nonpayable",
			"type": "function"
		},
		{
			"inputs": [],
			"name": "feeAddress",
			"outputs": [
				{
					"internalType": "address",
					"name": "",
					"type": "address"
				}
			],
			"stateMutability": "view",
			"type": "function"
		},
		{
			"inputs": [
				{
					"internalType": "uint256",
					"name": "_from",
					"type": "uint256"
				},
				{
					"internalType": "uint256",
					"name": "_to",
					"type": "uint256"
				}
			],
			"name": "getMultiplier",
			"outputs": [
				{
					"internalType": "uint256",
					"name": "",
					"type": "uint256"
				}
			],
			"stateMutability": "view",
			"type": "function"
		},
		{
			"inputs": [
				{
					"internalType": "address",
					"name": "_address",
					"type": "address"
				}
			],
			"name": "getUserReferrerBalance",
			"outputs": [
				{
					"internalType": "uint256",
					"name": "",
					"type": "uint256"
				}
			],
			"stateMutability": "view",
			"type": "function"
		},
		{
			"inputs": [
				{
					"internalType": "uint256",
					"name": "_amount",
					"type": "uint256"
				}
			],
			"name": "leaveStaking",
			"outputs": [],
			"stateMutability": "nonpayable",
			"type": "function"
		},
		{
			"inputs": [],
			"name": "massUpdatePools",
			"outputs": [],
			"stateMutability": "nonpayable",
			"type": "function"
		},
		{
			"inputs": [
				{
					"internalType": "uint256",
					"name": "_pid",
					"type": "uint256"
				}
			],
			"name": "migrate",
			"outputs": [],
			"stateMutability": "nonpayable",
			"type": "function"
		},
		{
			"inputs": [],
			"name": "migrator",
			"outputs": [
				{
					"internalType": "contract IMigratorChef",
					"name": "",
					"type": "address"
				}
			],
			"stateMutability": "view",
			"type": "function"
		},
		{
			"inputs": [],
			"name": "owner",
			"outputs": [
				{
					"internalType": "address",
					"name": "",
					"type": "address"
				}
			],
			"stateMutability": "view",
			"type": "function"
		},
		{
			"inputs": [
				{
					"internalType": "uint256",
					"name": "_pid",
					"type": "uint256"
				},
				{
					"internalType": "address",
					"name": "_user",
					"type": "address"
				}
			],
			"name": "pendingRedBerry",
			"outputs": [
				{
					"internalType": "uint256",
					"name": "",
					"type": "uint256"
				}
			],
			"stateMutability": "view",
			"type": "function"
		},
		{
			"inputs": [
				{
					"internalType": "uint256",
					"name": "",
					"type": "uint256"
				}
			],
			"name": "poolInfo",
			"outputs": [
				{
					"internalType": "contract IBEP20",
					"name": "lpToken",
					"type": "address"
				},
				{
					"internalType": "uint256",
					"name": "allocPoint",
					"type": "uint256"
				},
				{
					"internalType": "uint256",
					"name": "lastRewardBlock",
					"type": "uint256"
				},
				{
					"internalType": "uint256",
					"name": "accRedBerryPerShare",
					"type": "uint256"
				},
				{
					"internalType": "uint16",
					"name": "depositFeeBP",
					"type": "uint16"
				}
			],
			"stateMutability": "view",
			"type": "function"
		},
		{
			"inputs": [],
			"name": "poolLength",
			"outputs": [
				{
					"internalType": "uint256",
					"name": "",
					"type": "uint256"
				}
			],
			"stateMutability": "view",
			"type": "function"
		},
		{
			"inputs": [],
			"name": "redBerryPerBlock",
			"outputs": [
				{
					"internalType": "uint256",
					"name": "",
					"type": "uint256"
				}
			],
			"stateMutability": "view",
			"type": "function"
		},
		{
			"inputs": [],
			"name": "redBerryReferral",
			"outputs": [
				{
					"internalType": "contract IRedBerryReferral",
					"name": "",
					"type": "address"
				}
			],
			"stateMutability": "view",
			"type": "function"
		},
		{
			"inputs": [],
			"name": "referralCommissionRateForAll",
			"outputs": [
				{
					"internalType": "uint16",
					"name": "",
					"type": "uint16"
				}
			],
			"stateMutability": "view",
			"type": "function"
		},
		{
			"inputs": [],
			"name": "referralCommissionRateForNew",
			"outputs": [
				{
					"internalType": "uint16",
					"name": "",
					"type": "uint16"
				}
			],
			"stateMutability": "view",
			"type": "function"
		},
		{
			"inputs": [],
			"name": "renounceOwnership",
			"outputs": [],
			"stateMutability": "nonpayable",
			"type": "function"
		},
		{
			"inputs": [
				{
					"internalType": "uint256",
					"name": "_pid",
					"type": "uint256"
				},
				{
					"internalType": "uint256",
					"name": "_allocPoint",
					"type": "uint256"
				},
				{
					"internalType": "uint16",
					"name": "_depositFeeBP",
					"type": "uint16"
				},
				{
					"internalType": "bool",
					"name": "_withUpdate",
					"type": "bool"
				}
			],
			"name": "set",
			"outputs": [],
			"stateMutability": "nonpayable",
			"type": "function"
		},
		{
			"inputs": [
				{
					"internalType": "uint16",
					"name": "_commitionRate",
					"type": "uint16"
				}
			],
			"name": "setAllReferralCommissionRate",
			"outputs": [],
			"stateMutability": "nonpayable",
			"type": "function"
		},
		{
			"inputs": [
				{
					"internalType": "address",
					"name": "_feeAddress",
					"type": "address"
				}
			],
			"name": "setFeeAddress",
			"outputs": [],
			"stateMutability": "nonpayable",
			"type": "function"
		},
		{
			"inputs": [
				{
					"internalType": "contract IMigratorChef",
					"name": "_migrator",
					"type": "address"
				}
			],
			"name": "setMigrator",
			"outputs": [],
			"stateMutability": "nonpayable",
			"type": "function"
		},
		{
			"inputs": [
				{
					"internalType": "uint16",
					"name": "_commitionRate",
					"type": "uint16"
				}
			],
			"name": "setNewReferralCommissionRate",
			"outputs": [],
			"stateMutability": "nonpayable",
			"type": "function"
		},
		{
			"inputs": [
				{
					"internalType": "contract IRedBerryReferral",
					"name": "_redBerryReferral",
					"type": "address"
				}
			],
			"name": "setRedBerryReferral",
			"outputs": [],
			"stateMutability": "nonpayable",
			"type": "function"
		},
		{
			"inputs": [
				{
					"internalType": "uint256",
					"name": "_time",
					"type": "uint256"
				}
			],
			"name": "setTimeForNewReferralCommissionRate",
			"outputs": [],
			"stateMutability": "nonpayable",
			"type": "function"
		},
		{
			"inputs": [],
			"name": "startBlock",
			"outputs": [
				{
					"internalType": "uint256",
					"name": "",
					"type": "uint256"
				}
			],
			"stateMutability": "view",
			"type": "function"
		},
		{
			"inputs": [],
			"name": "timeForSetNewCommissionRate",
			"outputs": [
				{
					"internalType": "uint256",
					"name": "",
					"type": "uint256"
				}
			],
			"stateMutability": "view",
			"type": "function"
		},
		{
			"inputs": [],
			"name": "totalAllocPoint",
			"outputs": [
				{
					"internalType": "uint256",
					"name": "",
					"type": "uint256"
				}
			],
			"stateMutability": "view",
			"type": "function"
		},
		{
			"inputs": [
				{
					"internalType": "address",
					"name": "newOwner",
					"type": "address"
				}
			],
			"name": "transferOwnership",
			"outputs": [],
			"stateMutability": "nonpayable",
			"type": "function"
		},
		{
			"inputs": [
				{
					"internalType": "uint256",
					"name": "_redBerryPerBlock",
					"type": "uint256"
				}
			],
			"name": "updateEmissionRate",
			"outputs": [],
			"stateMutability": "nonpayable",
			"type": "function"
		},
		{
			"inputs": [
				{
					"internalType": "uint256",
					"name": "_time",
					"type": "uint256"
				}
			],
			"name": "updateHarvestLookupTime",
			"outputs": [],
			"stateMutability": "nonpayable",
			"type": "function"
		},
		{
			"inputs": [
				{
					"internalType": "uint256",
					"name": "multiplierNumber",
					"type": "uint256"
				}
			],
			"name": "updateMultiplier",
			"outputs": [],
			"stateMutability": "nonpayable",
			"type": "function"
		},
		{
			"inputs": [
				{
					"internalType": "uint256",
					"name": "_pid",
					"type": "uint256"
				}
			],
			"name": "updatePool",
			"outputs": [],
			"stateMutability": "nonpayable",
			"type": "function"
		},
		{
			"inputs": [
				{
					"internalType": "uint256",
					"name": "",
					"type": "uint256"
				},
				{
					"internalType": "address",
					"name": "",
					"type": "address"
				}
			],
			"name": "userInfo",
			"outputs": [
				{
					"internalType": "uint256",
					"name": "amount",
					"type": "uint256"
				},
				{
					"internalType": "uint256",
					"name": "rewardDebt",
					"type": "uint256"
				},
				{
					"internalType": "uint256",
					"name": "depositeTime",
					"type": "uint256"
				}
			],
			"stateMutability": "view",
			"type": "function"
		},
		{
			"inputs": [
				{
					"internalType": "address",
					"name": "",
					"type": "address"
				}
			],
			"name": "userReferalAmount",
			"outputs": [
				{
					"internalType": "uint256",
					"name": "",
					"type": "uint256"
				}
			],
			"stateMutability": "view",
			"type": "function"
		},
		{
			"inputs": [],
			"name": "widrowReferrerBalance",
			"outputs": [],
			"stateMutability": "nonpayable",
			"type": "function"
		},
		{
			"inputs": [
				{
					"internalType": "uint256",
					"name": "_pid",
					"type": "uint256"
				},
				{
					"internalType": "uint256",
					"name": "_amount",
					"type": "uint256"
				}
			],
			"name": "withdraw",
			"outputs": [],
			"stateMutability": "nonpayable",
			"type": "function"
		}
	]
}