{
	"data": {
		"bytecode": {
			"linkReferences": {},
			"object": "60e060405260c86006556019600755600a6008556203f4806009553480156200002757600080fd5b506040516200296a3803806200296a8339810160408190526200004a9162000504565b600080546001600160a01b031916339081178255604051909182917f8be0079c531659141344cd1fd0a4f28419497f9722a3daafe3b4186f6b6457e0908290a3506000805460ff60a01b191690556001600160601b0319606086811b821660805285811b821660a05284901b1660c052600480546001600160a01b038481166001600160a01b03199283161790925560058054848416921691909117905562000108908616846000196200188e62000113602090811b91909117901c565b50505050506200063d565b801580620001a15750604051636eb1769f60e11b81523060048201526001600160a01b03838116602483015284169063dd62ed3e9060440160206040518083038186803b1580156200016457600080fd5b505afa15801562000179573d6000803e3d6000fd5b505050506040513d601f19601f820116820180604052508101906200019f919062000584565b155b620002195760405162461bcd60e51b815260206004820152603660248201527f5361666545524332303a20617070726f76652066726f6d206e6f6e2d7a65726f60448201527f20746f206e6f6e2d7a65726f20616c6c6f77616e63650000000000000000000060648201526084015b60405180910390fd5b604080516001600160a01b038416602482015260448082018490528251808303909101815260649091019091526020810180516001600160e01b0390811663095ea7b360e01b17909152620002719185916200027616565b505050565b6000620002d2826040518060400160405280602081526020017f5361666545524332303a206c6f772d6c6576656c2063616c6c206661696c6564815250856001600160a01b03166200035460201b620019ea179092919060201c565b805190915015620002715780806020019051810190620002f39190620004e0565b620002715760405162461bcd60e51b815260206004820152602a60248201527f5361666545524332303a204552433230206f7065726174696f6e20646964206e6044820152691bdd081cdd58d8d9595960b21b606482015260840162000210565b60606200036584846000856200036f565b90505b9392505050565b606082471015620003d25760405162461bcd60e51b815260206004820152602660248201527f416464726573733a20696e73756666696369656e742062616c616e636520666f6044820152651c8818d85b1b60d21b606482015260840162000210565b843b620004225760405162461bcd60e51b815260206004820152601d60248201527f416464726573733a2063616c6c20746f206e6f6e2d636f6e7472616374000000604482015260640162000210565b600080866001600160a01b031685876040516200044091906200059e565b60006040518083038185875af1925050503d80600081146200047f576040519150601f19603f3d011682016040523d82523d6000602084013e62000484565b606091505b50909250905062000497828286620004a2565b979650505050505050565b60608315620004b357508162000368565b825115620004c45782518084602001fd5b8160405162461bcd60e51b8152600401620002109190620005bc565b600060208284031215620004f357600080fd5b815180151581146200036857600080fd5b600080600080600060a086880312156200051d57600080fd5b85516200052a8162000624565b60208701519095506200053d8162000624565b6040870151909450620005508162000624565b6060870151909350620005638162000624565b6080870151909250620005768162000624565b809150509295509295909350565b6000602082840312156200059757600080fd5b5051919050565b60008251620005b2818460208701620005f1565b9190910192915050565b6020815260008251806020840152620005dd816040850160208701620005f1565b601f01601f19169190910160400192915050565b60005b838110156200060e578181015183820152602001620005f4565b838111156200061e576000848401525b50505050565b6001600160a01b03811681146200063a57600080fd5b50565b60805160601c60a05160601c60c05160601c612284620006e6600039600081816104ac0152818161051e0152818161086f01528181610b5f01528181610f3f015281816111a1015281816114c50152611c8b01526000818161044c01526115e70152600081816104d30152818161094f015281816109cb01528181610c0001528181610c5501528181610ce001528181610fdf0152818161138d015261155701526122846000f3fe608060405234801561001057600080fd5b506004361061023d5760003560e01c8063853828b61161013b578063db2e21bc116100b8578063f0f442601161007c578063f0f442601461046e578063f2fde38b14610481578063f851a44014610494578063fb1db278146104a7578063fc0c546a146104ce57600080fd5b8063db2e21bc1461041a578063def68a9c14610422578063df10b4e614610435578063e941fa781461043e578063ec78e8321461044757600080fd5b8063b60f0531116100ff578063b60f0531146103e2578063b6ac642a146103eb578063b6b55f25146103fe578063bdca916514610411578063d4b0de2f146102db57600080fd5b8063853828b6146103af57806387788782146103b75780638da5cb5b146103c057806390321e1a146103d1578063a6eba5d1146103da57600080fd5b80634641257d116101c957806370897b231161018d57806370897b231461037c578063715018a61461038f578063722713f71461039757806377c7b8fc1461039f5780638456cb59146103a757600080fd5b80634641257d1461031157806348a0d754146103195780635c975abb1461032157806361d027b31461033e578063704b6c021461036957600080fd5b80632ad5a53f116102105780632ad5a53f146102db5780632cfc5f01146102e35780632e1a7d4d146102ed5780633a98ef39146103005780633f4ba83a1461030957600080fd5b806318b0b108146102425780631959a0021461025d5780631efac1b8146102b357806326465826146102c8575b600080fd5b61024a6104f5565b6040519081526020015b60405180910390f35b61029361026b366004611fc3565b6001602081905260009182526040909120805491810154600282015460039092015490919084565b604080519485526020850193909352918301526060820152608001610254565b6102c66102c136600461200e565b6105d8565b005b6102c66102d636600461200e565b610689565b61024a606481565b61024a6203f48081565b6102c66102fb36600461200e565b61071a565b61024a60025481565b6102c6610a34565b6102c6610ae1565b61024a610cc8565b600054600160a01b900460ff166040519015158152602001610254565b600554610351906001600160a01b031681565b6040516001600160a01b039091168152602001610254565b6102c6610377366004611fc3565b610d67565b6102c661038a36600461200e565b610e02565b6102c6610ea2565b61024a610f16565b61024a611065565b6102c6611098565b6102c661111f565b61024a60065481565b6000546001600160a01b0316610351565b61024a60075481565b61024a611178565b61024a60035481565b6102c66103f936600461200e565b61122e565b6102c661040c36600461200e565b6112c7565b61024a6101f481565b6102c6611485565b6102c6610430366004611fc3565b61152b565b61024a60095481565b61024a60085481565b6103517f000000000000000000000000000000000000000000000000000000000000000081565b6102c661047c366004611fc3565b611709565b6102c661048f366004611fc3565b6117a4565b600454610351906001600160a01b031681565b6103517f000000000000000000000000000000000000000000000000000000000000000081565b6103517f000000000000000000000000000000000000000000000000000000000000000081565b6040516362adaf3160e11b81526000600482018190523060248301529081906001600160a01b037f0000000000000000000000000000000000000000000000000000000000000000169063c55b5e629060440160206040518083038186803b15801561056057600080fd5b505afa158015610574573d6000803e3d6000fd5b505050506040513d601f19601f820116820180604052508101906105989190612027565b90506105ac6105a5610cc8565b8290611a01565b905060006105d16127106105cb60075485611a6090919063ffffffff16565b90611adf565b9392505050565b6004546001600160a01b0316331461060b5760405162461bcd60e51b815260040161060290612177565b60405180910390fd5b6203f4808111156106845760405162461bcd60e51b815260206004820152603d60248201527f7769746864726177466565506572696f642063616e6e6f74206265206d6f726560448201527f207468616e204d41585f57495448445241575f4645455f504552494f440000006064820152608401610602565b600955565b6004546001600160a01b031633146106b35760405162461bcd60e51b815260040161060290612177565b60648111156107155760405162461bcd60e51b815260206004820152602860248201527f63616c6c4665652063616e6e6f74206265206d6f7265207468616e204d41585f60448201526743414c4c5f46454560c01b6064820152608401610602565b600755565b333b156107395760405162461bcd60e51b815260040161060290612149565b3332146107585760405162461bcd60e51b8152600401610602906120b3565b336000908152600160205260409020816107aa5760405162461bcd60e51b81526020600482015260136024820152724e6f7468696e6720746f20776974686472617760681b6044820152606401610602565b80548211156107fb5760405162461bcd60e51b815260206004820152601f60248201527f576974686472617720616d6f756e7420657863656564732062616c616e6365006044820152606401610602565b60006108156002546105cb8561080f610f16565b90611a60565b82549091506108249084611b3a565b82556002546108339084611b3a565b6002556000610840610cc8565b9050818110156109065760006108568383611b3a565b604051631058d28160e01b8152600481018290529091507f00000000000000000000000000000000000000000000000000000000000000006001600160a01b031690631058d28190602401600060405180830381600087803b1580156108bb57600080fd5b505af11580156108cf573d6000803e3d6000fd5b5050505060006108dd610cc8565b905060006108eb8285611b3a565b905082811015610902576108ff8482611a01565b94505b5050505b600954600184015461091791611a01565b42101561098657600061093b6127106105cb60085486611a6090919063ffffffff16565b600554909150610978906001600160a01b037f00000000000000000000000000000000000000000000000000000000000000008116911683611b96565b6109828382611b3a565b9250505b8254156109b0576109a66002546105cb61099e610f16565b865490611a60565b60028401556109b8565b600060028401555b4260038401556109f26001600160a01b037f0000000000000000000000000000000000000000000000000000000000000000163384611b96565b604080518381526020810186905233917ff279e6a1f5e320cca91135676d9cb6e44ca8a08c0b88342bcdb1144f6511b56891015b60405180910390a250505050565b6004546001600160a01b03163314610a5e5760405162461bcd60e51b815260040161060290612177565b600054600160a01b900460ff16610aae5760405162461bcd60e51b815260206004820152601460248201527314185d5cd8589b194e881b9bdd081c185d5cd95960621b6044820152606401610602565b610ab6611bc6565b6040517f7805862f689e2f13df9f062ff482ad3ad112aca9e0847911ed832e158c525b3390600090a1565b333b15610b005760405162461bcd60e51b815260040161060290612149565b333214610b1f5760405162461bcd60e51b8152600401610602906120b3565b600054600160a01b900460ff1615610b495760405162461bcd60e51b8152600401610602906120ea565b604051631058d28160e01b8152600060048201527f00000000000000000000000000000000000000000000000000000000000000006001600160a01b031690631058d28190602401600060405180830381600087803b158015610bab57600080fd5b505af1158015610bbf573d6000803e3d6000fd5b505050506000610bcd610cc8565b90506000610bec6127106105cb60065485611a6090919063ffffffff16565b600554909150610c29906001600160a01b037f00000000000000000000000000000000000000000000000000000000000000008116911683611b96565b6000610c466127106105cb60075486611a6090919063ffffffff16565b9050610c7c6001600160a01b037f0000000000000000000000000000000000000000000000000000000000000000163383611b96565b610c84611c63565b42600355604080518381526020810183905233917f71bab65ced2e5750775a0613be067df48ef06cf92a496ebf7663ae0660924954910160405180910390a2505050565b6040516370a0823160e01b81523060048201526000907f00000000000000000000000000000000000000000000000000000000000000006001600160a01b0316906370a082319060240160206040518083038186803b158015610d2a57600080fd5b505afa158015610d3e573d6000803e3d6000fd5b505050506040513d601f19601f82011682018060405250810190610d629190612027565b905090565b6000546001600160a01b03163314610d915760405162461bcd60e51b815260040161060290612114565b6001600160a01b038116610de05760405162461bcd60e51b815260206004820152601660248201527543616e6e6f74206265207a65726f206164647265737360501b6044820152606401610602565b600480546001600160a01b0319166001600160a01b0392909216919091179055565b6004546001600160a01b03163314610e2c5760405162461bcd60e51b815260040161060290612177565b6101f4811115610e9d5760405162461bcd60e51b815260206004820152603660248201527f706572666f726d616e63654665652063616e6e6f74206265206d6f7265207468604482015275616e204d41585f504552464f524d414e43455f46454560501b6064820152608401610602565b600655565b6000546001600160a01b03163314610ecc5760405162461bcd60e51b815260040161060290612114565b600080546040516001600160a01b03909116907f8be0079c531659141344cd1fd0a4f28419497f9722a3daafe3b4186f6b6457e0908390a3600080546001600160a01b0319169055565b6040516393f1a40b60e01b81526000600482018190523060248301529081906001600160a01b037f000000000000000000000000000000000000000000000000000000000000000016906393f1a40b90604401604080518083038186803b158015610f8057600080fd5b505afa158015610f94573d6000803e3d6000fd5b505050506040513d601f19601f82011682018060405250810190610fb89190612040565b506040516370a0823160e01b815230600482015290915061105f9082906001600160a01b037f000000000000000000000000000000000000000000000000000000000000000016906370a082319060240160206040518083038186803b15801561102157600080fd5b505afa158015611035573d6000803e3d6000fd5b505050506040513d601f19601f820116820180604052508101906110599190612027565b90611a01565b91505090565b600060025460001461108b57610d626002546105cb670de0b6b3a764000061080f610f16565b50670de0b6b3a764000090565b6004546001600160a01b031633146110c25760405162461bcd60e51b815260040161060290612177565b600054600160a01b900460ff16156110ec5760405162461bcd60e51b8152600401610602906120ea565b6110f4611cf3565b6040517f6985a02210a168e66602d3235cb6db0e70f92b3ba4d376a33c0f3d9434bff62590600090a1565b333b1561113e5760405162461bcd60e51b815260040161060290612149565b33321461115d5760405162461bcd60e51b8152600401610602906120b3565b336000908152600160205260409020546111769061071a565b565b6040516362adaf3160e11b81526000600482018190523060248301529081906001600160a01b037f0000000000000000000000000000000000000000000000000000000000000000169063c55b5e629060440160206040518083038186803b1580156111e357600080fd5b505afa1580156111f7573d6000803e3d6000fd5b505050506040513d601f19601f8201168201806040525081019061121b9190612027565b90506112286105a5610cc8565b92915050565b6004546001600160a01b031633146112585760405162461bcd60e51b815260040161060290612177565b60648111156112c25760405162461bcd60e51b815260206004820152603060248201527f77697468647261774665652063616e6e6f74206265206d6f7265207468616e2060448201526f4d41585f57495448445241575f46454560801b6064820152608401610602565b600855565b600054600160a01b900460ff16156112f15760405162461bcd60e51b8152600401610602906120ea565b333b156113105760405162461bcd60e51b815260040161060290612149565b33321461132f5760405162461bcd60e51b8152600401610602906120b3565b600081116113745760405162461bcd60e51b8152602060048201526012602482015271139bdd1a1a5b99c81d1bc819195c1bdcda5d60721b6044820152606401610602565b600061137e610f16565b90506113b56001600160a01b037f000000000000000000000000000000000000000000000000000000000000000016333085611d58565b60006002546000146113e1576113da826105cb60025486611a6090919063ffffffff16565b90506113e4565b50815b33600090815260016020526040902080546113ff9083611a01565b81554260018201556002546114149083611a01565b6002819055611430906105cb611428610f16565b845490611a60565b6002820155426003820155611443611c63565b6040805185815260208101849052429181019190915233907f36af321ec8d3c75236829c5317affd40ddb308863a1236d2d277a4025cccee1e90606001610a26565b6004546001600160a01b031633146114af5760405162461bcd60e51b815260040161060290612177565b604051632989754760e11b8152600060048201527f00000000000000000000000000000000000000000000000000000000000000006001600160a01b031690635312ea8e90602401600060405180830381600087803b15801561151157600080fd5b505af1158015611525573d6000803e3d6000fd5b50505050565b6004546001600160a01b031633146115555760405162461bcd60e51b815260040161060290612177565b7f00000000000000000000000000000000000000000000000000000000000000006001600160a01b0316816001600160a01b031614156115e55760405162461bcd60e51b815260206004820152602560248201527f546f6b656e2063616e6e6f742062652073616d65206173206465706f736974206044820152643a37b5b2b760d91b6064820152608401610602565b7f00000000000000000000000000000000000000000000000000000000000000006001600160a01b0316816001600160a01b031614156116755760405162461bcd60e51b815260206004820152602560248201527f546f6b656e2063616e6e6f742062652073616d652061732072656365697074206044820152643a37b5b2b760d91b6064820152608401610602565b6040516370a0823160e01b81523060048201526000906001600160a01b038316906370a082319060240160206040518083038186803b1580156116b757600080fd5b505afa1580156116cb573d6000803e3d6000fd5b505050506040513d601f19601f820116820180604052508101906116ef9190612027565b90506117056001600160a01b0383163383611b96565b5050565b6000546001600160a01b031633146117335760405162461bcd60e51b815260040161060290612114565b6001600160a01b0381166117825760405162461bcd60e51b815260206004820152601660248201527543616e6e6f74206265207a65726f206164647265737360501b6044820152606401610602565b600580546001600160a01b0319166001600160a01b0392909216919091179055565b6000546001600160a01b031633146117ce5760405162461bcd60e51b815260040161060290612114565b6001600160a01b0381166118335760405162461bcd60e51b815260206004820152602660248201527f4f776e61626c653a206e6577206f776e657220697320746865207a65726f206160448201526564647265737360d01b6064820152608401610602565b600080546040516001600160a01b03808516939216917f8be0079c531659141344cd1fd0a4f28419497f9722a3daafe3b4186f6b6457e091a3600080546001600160a01b0319166001600160a01b0392909216919091179055565b8015806119175750604051636eb1769f60e11b81523060048201526001600160a01b03838116602483015284169063dd62ed3e9060440160206040518083038186803b1580156118dd57600080fd5b505afa1580156118f1573d6000803e3d6000fd5b505050506040513d601f19601f820116820180604052508101906119159190612027565b155b6119825760405162461bcd60e51b815260206004820152603660248201527f5361666545524332303a20617070726f76652066726f6d206e6f6e2d7a65726f60448201527520746f206e6f6e2d7a65726f20616c6c6f77616e636560501b6064820152608401610602565b6040516001600160a01b0383166024820152604481018290526119e590849063095ea7b360e01b906064015b60408051601f198184030181529190526020810180516001600160e01b03166001600160e01b031990931692909217909152611d90565b505050565b60606119f98484600085611e62565b949350505050565b600080611a0e838561219c565b9050838110156105d15760405162461bcd60e51b815260206004820152601b60248201527f536166654d6174683a206164646974696f6e206f766572666c6f7700000000006044820152606401610602565b600082611a6f57506000611228565b6000611a7b83856121d6565b905082611a8885836121b4565b146105d15760405162461bcd60e51b815260206004820152602160248201527f536166654d6174683a206d756c7469706c69636174696f6e206f766572666c6f6044820152607760f81b6064820152608401610602565b6000808211611b305760405162461bcd60e51b815260206004820152601a60248201527f536166654d6174683a206469766973696f6e206279207a65726f0000000000006044820152606401610602565b6105d182846121b4565b600082821115611b8c5760405162461bcd60e51b815260206004820152601e60248201527f536166654d6174683a207375627472616374696f6e206f766572666c6f7700006044820152606401610602565b6105d182846121f5565b6040516001600160a01b0383166024820152604481018290526119e590849063a9059cbb60e01b906064016119ae565b600054600160a01b900460ff16611c165760405162461bcd60e51b815260206004820152601460248201527314185d5cd8589b194e881b9bdd081c185d5cd95960621b6044820152606401610602565b6000805460ff60a01b191690557f5db9ee0a495bf2e6ff9c91a7834c1ba4fdd244a5e8aa4e537bd38aeae4b073aa335b6040516001600160a01b03909116815260200160405180910390a1565b6000611c6d610cc8565b90508015611cf0576040516341441d3b60e01b8152600481018290527f00000000000000000000000000000000000000000000000000000000000000006001600160a01b0316906341441d3b90602401600060405180830381600087803b158015611cd757600080fd5b505af1158015611ceb573d6000803e3d6000fd5b505050505b50565b600054600160a01b900460ff1615611d1d5760405162461bcd60e51b8152600401610602906120ea565b6000805460ff60a01b1916600160a01b1790557f62e78cea01bee320cd4e420270b5ea74000d11b0c9f74754ebdbfc544b05a258611c463390565b6040516001600160a01b03808516602483015283166044820152606481018290526115259085906323b872dd60e01b906084016119ae565b6000611de5826040518060400160405280602081526020017f5361666545524332303a206c6f772d6c6576656c2063616c6c206661696c6564815250856001600160a01b03166119ea9092919063ffffffff16565b8051909150156119e55780806020019051810190611e039190611fec565b6119e55760405162461bcd60e51b815260206004820152602a60248201527f5361666545524332303a204552433230206f7065726174696f6e20646964206e6044820152691bdd081cdd58d8d9595960b21b6064820152608401610602565b606082471015611ec35760405162461bcd60e51b815260206004820152602660248201527f416464726573733a20696e73756666696369656e742062616c616e636520666f6044820152651c8818d85b1b60d21b6064820152608401610602565b843b611f115760405162461bcd60e51b815260206004820152601d60248201527f416464726573733a2063616c6c20746f206e6f6e2d636f6e74726163740000006044820152606401610602565b600080866001600160a01b03168587604051611f2d9190612064565b60006040518083038185875af1925050503d8060008114611f6a576040519150601f19603f3d011682016040523d82523d6000602084013e611f6f565b606091505b5091509150611f7f828286611f8a565b979650505050505050565b60608315611f995750816105d1565b825115611fa95782518084602001fd5b8160405162461bcd60e51b81526004016106029190612080565b600060208284031215611fd557600080fd5b81356001600160a01b03811681146105d157600080fd5b600060208284031215611ffe57600080fd5b815180151581146105d157600080fd5b60006020828403121561202057600080fd5b5035919050565b60006020828403121561203957600080fd5b5051919050565b6000806040838503121561205357600080fd5b505080516020909101519092909150565b6000825161207681846020870161220c565b9190910192915050565b602081526000825180602084015261209f81604085016020870161220c565b601f01601f19169190910160400192915050565b6020808252601a908201527f70726f787920636f6e7472616374206e6f7420616c6c6f776564000000000000604082015260600190565b60208082526010908201526f14185d5cd8589b194e881c185d5cd95960821b604082015260600190565b6020808252818101527f4f776e61626c653a2063616c6c6572206973206e6f7420746865206f776e6572604082015260600190565b60208082526014908201527318dbdb9d1c9858dd081b9bdd08185b1b1bddd95960621b604082015260600190565b6020808252600b908201526a61646d696e3a207775743f60a81b604082015260600190565b600082198211156121af576121af612238565b500190565b6000826121d157634e487b7160e01b600052601260045260246000fd5b500490565b60008160001904831182151516156121f0576121f0612238565b500290565b60008282101561220757612207612238565b500390565b60005b8381101561222757818101518382015260200161220f565b838111156115255750506000910152565b634e487b7160e01b600052601160045260246000fdfea26469706673582212206f513a3dc4b97cdc2fb8e774dbd05dcd21dde0429cde6ea08542c29049dc0c7664736f6c63430008060033",
			"opcodes": "PUSH1 0xE0 PUSH1 0x40 MSTORE PUSH1 0xC8 PUSH1 0x6 SSTORE PUSH1 0x19 PUSH1 0x7 SSTORE PUSH1 0xA PUSH1 0x8 SSTORE PUSH3 0x3F480 PUSH1 0x9 SSTORE CALLVALUE DUP1 ISZERO PUSH3 0x27 JUMPI PUSH1 0x0 DUP1 REVERT JUMPDEST POP PUSH1 0x40 MLOAD PUSH3 0x296A CODESIZE SUB DUP1 PUSH3 0x296A DUP4 CODECOPY DUP2 ADD PUSH1 0x40 DUP2 SWAP1 MSTORE PUSH3 0x4A SWAP2 PUSH3 0x504 JUMP JUMPDEST PUSH1 0x0 DUP1 SLOAD PUSH1 0x1 PUSH1 0x1 PUSH1 0xA0 SHL SUB NOT AND CALLER SWAP1 DUP2 OR DUP3 SSTORE PUSH1 0x40 MLOAD SWAP1 SWAP2 DUP3 SWAP2 PUSH32 0x8BE0079C531659141344CD1FD0A4F28419497F9722A3DAAFE3B4186F6B6457E0 SWAP1 DUP3 SWAP1 LOG3 POP PUSH1 0x0 DUP1 SLOAD PUSH1 0xFF PUSH1 0xA0 SHL NOT AND SWAP1 SSTORE PUSH1 0x1 PUSH1 0x1 PUSH1 0x60 SHL SUB NOT PUSH1 0x60 DUP7 DUP2 SHL DUP3 AND PUSH1 0x80 MSTORE DUP6 DUP2 SHL DUP3 AND PUSH1 0xA0 MSTORE DUP5 SWAP1 SHL AND PUSH1 0xC0 MSTORE PUSH1 0x4 DUP1 SLOAD PUSH1 0x1 PUSH1 0x1 PUSH1 0xA0 SHL SUB DUP5 DUP2 AND PUSH1 0x1 PUSH1 0x1 PUSH1 0xA0 SHL SUB NOT SWAP3 DUP4 AND OR SWAP1 SWAP3 SSTORE PUSH1 0x5 DUP1 SLOAD DUP5 DUP5 AND SWAP3 AND SWAP2 SWAP1 SWAP2 OR SWAP1 SSTORE PUSH3 0x108 SWAP1 DUP7 AND DUP5 PUSH1 0x0 NOT PUSH3 0x188E PUSH3 0x113 PUSH1 0x20 SWAP1 DUP2 SHL SWAP2 SWAP1 SWAP2 OR SWAP1 SHR JUMP JUMPDEST POP POP POP POP POP PUSH3 0x63D JUMP JUMPDEST DUP1 ISZERO DUP1 PUSH3 0x1A1 JUMPI POP PUSH1 0x40 MLOAD PUSH4 0x6EB1769F PUSH1 0xE1 SHL DUP2 MSTORE ADDRESS PUSH1 0x4 DUP3 ADD MSTORE PUSH1 0x1 PUSH1 0x1 PUSH1 0xA0 SHL SUB DUP4 DUP2 AND PUSH1 0x24 DUP4 ADD MSTORE DUP5 AND SWAP1 PUSH4 0xDD62ED3E SWAP1 PUSH1 0x44 ADD PUSH1 0x20 PUSH1 0x40 MLOAD DUP1 DUP4 SUB DUP2 DUP7 DUP1 EXTCODESIZE ISZERO DUP1 ISZERO PUSH3 0x164 JUMPI PUSH1 0x0 DUP1 REVERT JUMPDEST POP GAS STATICCALL ISZERO DUP1 ISZERO PUSH3 0x179 JUMPI RETURNDATASIZE PUSH1 0x0 DUP1 RETURNDATACOPY RETURNDATASIZE PUSH1 0x0 REVERT JUMPDEST POP POP POP POP PUSH1 0x40 MLOAD RETURNDATASIZE PUSH1 0x1F NOT PUSH1 0x1F DUP3 ADD AND DUP3 ADD DUP1 PUSH1 0x40 MSTORE POP DUP2 ADD SWAP1 PUSH3 0x19F SWAP2 SWAP1 PUSH3 0x584 JUMP JUMPDEST ISZERO JUMPDEST PUSH3 0x219 JUMPI PUSH1 0x40 MLOAD PUSH3 0x461BCD PUSH1 0xE5 SHL DUP2 MSTORE PUSH1 0x20 PUSH1 0x4 DUP3 ADD MSTORE PUSH1 0x36 PUSH1 0x24 DUP3 ADD MSTORE PUSH32 0x5361666545524332303A20617070726F76652066726F6D206E6F6E2D7A65726F PUSH1 0x44 DUP3 ADD MSTORE PUSH32 0x20746F206E6F6E2D7A65726F20616C6C6F77616E636500000000000000000000 PUSH1 0x64 DUP3 ADD MSTORE PUSH1 0x84 ADD JUMPDEST PUSH1 0x40 MLOAD DUP1 SWAP2 SUB SWAP1 REVERT JUMPDEST PUSH1 0x40 DUP1 MLOAD PUSH1 0x1 PUSH1 0x1 PUSH1 0xA0 SHL SUB DUP5 AND PUSH1 0x24 DUP3 ADD MSTORE PUSH1 0x44 DUP1 DUP3 ADD DUP5 SWAP1 MSTORE DUP3 MLOAD DUP1 DUP4 SUB SWAP1 SWAP2 ADD DUP2 MSTORE PUSH1 0x64 SWAP1 SWAP2 ADD SWAP1 SWAP2 MSTORE PUSH1 0x20 DUP2 ADD DUP1 MLOAD PUSH1 0x1 PUSH1 0x1 PUSH1 0xE0 SHL SUB SWAP1 DUP2 AND PUSH4 0x95EA7B3 PUSH1 0xE0 SHL OR SWAP1 SWAP2 MSTORE PUSH3 0x271 SWAP2 DUP6 SWAP2 PUSH3 0x276 AND JUMP JUMPDEST POP POP POP JUMP JUMPDEST PUSH1 0x0 PUSH3 0x2D2 DUP3 PUSH1 0x40 MLOAD DUP1 PUSH1 0x40 ADD PUSH1 0x40 MSTORE DUP1 PUSH1 0x20 DUP2 MSTORE PUSH1 0x20 ADD PUSH32 0x5361666545524332303A206C6F772D6C6576656C2063616C6C206661696C6564 DUP2 MSTORE POP DUP6 PUSH1 0x1 PUSH1 0x1 PUSH1 0xA0 SHL SUB AND PUSH3 0x354 PUSH1 0x20 SHL PUSH3 0x19EA OR SWAP1 SWAP3 SWAP2 SWAP1 PUSH1 0x20 SHR JUMP JUMPDEST DUP1 MLOAD SWAP1 SWAP2 POP ISZERO PUSH3 0x271 JUMPI DUP1 DUP1 PUSH1 0x20 ADD SWAP1 MLOAD DUP2 ADD SWAP1 PUSH3 0x2F3 SWAP2 SWAP1 PUSH3 0x4E0 JUMP JUMPDEST PUSH3 0x271 JUMPI PUSH1 0x40 MLOAD PUSH3 0x461BCD PUSH1 0xE5 SHL DUP2 MSTORE PUSH1 0x20 PUSH1 0x4 DUP3 ADD MSTORE PUSH1 0x2A PUSH1 0x24 DUP3 ADD MSTORE PUSH32 0x5361666545524332303A204552433230206F7065726174696F6E20646964206E PUSH1 0x44 DUP3 ADD MSTORE PUSH10 0x1BDD081CDD58D8D95959 PUSH1 0xB2 SHL PUSH1 0x64 DUP3 ADD MSTORE PUSH1 0x84 ADD PUSH3 0x210 JUMP JUMPDEST PUSH1 0x60 PUSH3 0x365 DUP5 DUP5 PUSH1 0x0 DUP6 PUSH3 0x36F JUMP JUMPDEST SWAP1 POP JUMPDEST SWAP4 SWAP3 POP POP POP JUMP JUMPDEST PUSH1 0x60 DUP3 SELFBALANCE LT ISZERO PUSH3 0x3D2 JUMPI PUSH1 0x40 MLOAD PUSH3 0x461BCD PUSH1 0xE5 SHL DUP2 MSTORE PUSH1 0x20 PUSH1 0x4 DUP3 ADD MSTORE PUSH1 0x26 PUSH1 0x24 DUP3 ADD MSTORE PUSH32 0x416464726573733A20696E73756666696369656E742062616C616E636520666F PUSH1 0x44 DUP3 ADD MSTORE PUSH6 0x1C8818D85B1B PUSH1 0xD2 SHL PUSH1 0x64 DUP3 ADD MSTORE PUSH1 0x84 ADD PUSH3 0x210 JUMP JUMPDEST DUP5 EXTCODESIZE PUSH3 0x422 JUMPI PUSH1 0x40 MLOAD PUSH3 0x461BCD PUSH1 0xE5 SHL DUP2 MSTORE PUSH1 0x20 PUSH1 0x4 DUP3 ADD MSTORE PUSH1 0x1D PUSH1 0x24 DUP3 ADD MSTORE PUSH32 0x416464726573733A2063616C6C20746F206E6F6E2D636F6E7472616374000000 PUSH1 0x44 DUP3 ADD MSTORE PUSH1 0x64 ADD PUSH3 0x210 JUMP JUMPDEST PUSH1 0x0 DUP1 DUP7 PUSH1 0x1 PUSH1 0x1 PUSH1 0xA0 SHL SUB AND DUP6 DUP8 PUSH1 0x40 MLOAD PUSH3 0x440 SWAP2 SWAP1 PUSH3 0x59E JUMP JUMPDEST PUSH1 0x0 PUSH1 0x40 MLOAD DUP1 DUP4 SUB DUP2 DUP6 DUP8 GAS CALL SWAP3 POP POP POP RETURNDATASIZE DUP1 PUSH1 0x0 DUP2 EQ PUSH3 0x47F JUMPI PUSH1 0x40 MLOAD SWAP2 POP PUSH1 0x1F NOT PUSH1 0x3F RETURNDATASIZE ADD AND DUP3 ADD PUSH1 0x40 MSTORE RETURNDATASIZE DUP3 MSTORE RETURNDATASIZE PUSH1 0x0 PUSH1 0x20 DUP5 ADD RETURNDATACOPY PUSH3 0x484 JUMP JUMPDEST PUSH1 0x60 SWAP2 POP JUMPDEST POP SWAP1 SWAP3 POP SWAP1 POP PUSH3 0x497 DUP3 DUP3 DUP7 PUSH3 0x4A2 JUMP JUMPDEST SWAP8 SWAP7 POP POP POP POP POP POP POP JUMP JUMPDEST PUSH1 0x60 DUP4 ISZERO PUSH3 0x4B3 JUMPI POP DUP2 PUSH3 0x368 JUMP JUMPDEST DUP3 MLOAD ISZERO PUSH3 0x4C4 JUMPI DUP3 MLOAD DUP1 DUP5 PUSH1 0x20 ADD REVERT JUMPDEST DUP2 PUSH1 0x40 MLOAD PUSH3 0x461BCD PUSH1 0xE5 SHL DUP2 MSTORE PUSH1 0x4 ADD PUSH3 0x210 SWAP2 SWAP1 PUSH3 0x5BC JUMP JUMPDEST PUSH1 0x0 PUSH1 0x20 DUP3 DUP5 SUB SLT ISZERO PUSH3 0x4F3 JUMPI PUSH1 0x0 DUP1 REVERT JUMPDEST DUP2 MLOAD DUP1 ISZERO ISZERO DUP2 EQ PUSH3 0x368 JUMPI PUSH1 0x0 DUP1 REVERT JUMPDEST PUSH1 0x0 DUP1 PUSH1 0x0 DUP1 PUSH1 0x0 PUSH1 0xA0 DUP7 DUP9 SUB SLT ISZERO PUSH3 0x51D JUMPI PUSH1 0x0 DUP1 REVERT JUMPDEST DUP6 MLOAD PUSH3 0x52A DUP2 PUSH3 0x624 JUMP JUMPDEST PUSH1 0x20 DUP8 ADD MLOAD SWAP1 SWAP6 POP PUSH3 0x53D DUP2 PUSH3 0x624 JUMP JUMPDEST PUSH1 0x40 DUP8 ADD MLOAD SWAP1 SWAP5 POP PUSH3 0x550 DUP2 PUSH3 0x624 JUMP JUMPDEST PUSH1 0x60 DUP8 ADD MLOAD SWAP1 SWAP4 POP PUSH3 0x563 DUP2 PUSH3 0x624 JUMP JUMPDEST PUSH1 0x80 DUP8 ADD MLOAD SWAP1 SWAP3 POP PUSH3 0x576 DUP2 PUSH3 0x624 JUMP JUMPDEST DUP1 SWAP2 POP POP SWAP3 SWAP6 POP SWAP3 SWAP6 SWAP1 SWAP4 POP JUMP JUMPDEST PUSH1 0x0 PUSH1 0x20 DUP3 DUP5 SUB SLT ISZERO PUSH3 0x597 JUMPI PUSH1 0x0 DUP1 REVERT JUMPDEST POP MLOAD SWAP2 SWAP1 POP JUMP JUMPDEST PUSH1 0x0 DUP3 MLOAD PUSH3 0x5B2 DUP2 DUP5 PUSH1 0x20 DUP8 ADD PUSH3 0x5F1 JUMP JUMPDEST SWAP2 SWAP1 SWAP2 ADD SWAP3 SWAP2 POP POP JUMP JUMPDEST PUSH1 0x20 DUP2 MSTORE PUSH1 0x0 DUP3 MLOAD DUP1 PUSH1 0x20 DUP5 ADD MSTORE PUSH3 0x5DD DUP2 PUSH1 0x40 DUP6 ADD PUSH1 0x20 DUP8 ADD PUSH3 0x5F1 JUMP JUMPDEST PUSH1 0x1F ADD PUSH1 0x1F NOT AND SWAP2 SWAP1 SWAP2 ADD PUSH1 0x40 ADD SWAP3 SWAP2 POP POP JUMP JUMPDEST PUSH1 0x0 JUMPDEST DUP4 DUP2 LT ISZERO PUSH3 0x60E JUMPI DUP2 DUP2 ADD MLOAD DUP4 DUP3 ADD MSTORE PUSH1 0x20 ADD PUSH3 0x5F4 JUMP JUMPDEST DUP4 DUP2 GT ISZERO PUSH3 0x61E JUMPI PUSH1 0x0 DUP5 DUP5 ADD MSTORE JUMPDEST POP POP POP POP JUMP JUMPDEST PUSH1 0x1 PUSH1 0x1 PUSH1 0xA0 SHL SUB DUP2 AND DUP2 EQ PUSH3 0x63A JUMPI PUSH1 0x0 DUP1 REVERT JUMPDEST POP JUMP JUMPDEST PUSH1 0x80 MLOAD PUSH1 0x60 SHR PUSH1 0xA0 MLOAD PUSH1 0x60 SHR PUSH1 0xC0 MLOAD PUSH1 0x60 SHR PUSH2 0x2284 PUSH3 0x6E6 PUSH1 0x0 CODECOPY PUSH1 0x0 DUP2 DUP2 PUSH2 0x4AC ADD MSTORE DUP2 DUP2 PUSH2 0x51E ADD MSTORE DUP2 DUP2 PUSH2 0x86F ADD MSTORE DUP2 DUP2 PUSH2 0xB5F ADD MSTORE DUP2 DUP2 PUSH2 0xF3F ADD MSTORE DUP2 DUP2 PUSH2 0x11A1 ADD MSTORE DUP2 DUP2 PUSH2 0x14C5 ADD MSTORE PUSH2 0x1C8B ADD MSTORE PUSH1 0x0 DUP2 DUP2 PUSH2 0x44C ADD MSTORE PUSH2 0x15E7 ADD MSTORE PUSH1 0x0 DUP2 DUP2 PUSH2 0x4D3 ADD MSTORE DUP2 DUP2 PUSH2 0x94F ADD MSTORE DUP2 DUP2 PUSH2 0x9CB ADD MSTORE DUP2 DUP2 PUSH2 0xC00 ADD MSTORE DUP2 DUP2 PUSH2 0xC55 ADD MSTORE DUP2 DUP2 PUSH2 0xCE0 ADD MSTORE DUP2 DUP2 PUSH2 0xFDF ADD MSTORE DUP2 DUP2 PUSH2 0x138D ADD MSTORE PUSH2 0x1557 ADD MSTORE PUSH2 0x2284 PUSH1 0x0 RETURN INVALID PUSH1 0x80 PUSH1 0x40 MSTORE CALLVALUE DUP1 ISZERO PUSH2 0x10 JUMPI PUSH1 0x0 DUP1 REVERT JUMPDEST POP PUSH1 0x4 CALLDATASIZE LT PUSH2 0x23D JUMPI PUSH1 0x0 CALLDATALOAD PUSH1 0xE0 SHR DUP1 PUSH4 0x853828B6 GT PUSH2 0x13B JUMPI DUP1 PUSH4 0xDB2E21BC GT PUSH2 0xB8 JUMPI DUP1 PUSH4 0xF0F44260 GT PUSH2 0x7C JUMPI DUP1 PUSH4 0xF0F44260 EQ PUSH2 0x46E JUMPI DUP1 PUSH4 0xF2FDE38B EQ PUSH2 0x481 JUMPI DUP1 PUSH4 0xF851A440 EQ PUSH2 0x494 JUMPI DUP1 PUSH4 0xFB1DB278 EQ PUSH2 0x4A7 JUMPI DUP1 PUSH4 0xFC0C546A EQ PUSH2 0x4CE JUMPI PUSH1 0x0 DUP1 REVERT JUMPDEST DUP1 PUSH4 0xDB2E21BC EQ PUSH2 0x41A JUMPI DUP1 PUSH4 0xDEF68A9C EQ PUSH2 0x422 JUMPI DUP1 PUSH4 0xDF10B4E6 EQ PUSH2 0x435 JUMPI DUP1 PUSH4 0xE941FA78 EQ PUSH2 0x43E JUMPI DUP1 PUSH4 0xEC78E832 EQ PUSH2 0x447 JUMPI PUSH1 0x0 DUP1 REVERT JUMPDEST DUP1 PUSH4 0xB60F0531 GT PUSH2 0xFF JUMPI DUP1 PUSH4 0xB60F0531 EQ PUSH2 0x3E2 JUMPI DUP1 PUSH4 0xB6AC642A EQ PUSH2 0x3EB JUMPI DUP1 PUSH4 0xB6B55F25 EQ PUSH2 0x3FE JUMPI DUP1 PUSH4 0xBDCA9165 EQ PUSH2 0x411 JUMPI DUP1 PUSH4 0xD4B0DE2F EQ PUSH2 0x2DB JUMPI PUSH1 0x0 DUP1 REVERT JUMPDEST DUP1 PUSH4 0x853828B6 EQ PUSH2 0x3AF JUMPI DUP1 PUSH4 0x87788782 EQ PUSH2 0x3B7 JUMPI DUP1 PUSH4 0x8DA5CB5B EQ PUSH2 0x3C0 JUMPI DUP1 PUSH4 0x90321E1A EQ PUSH2 0x3D1 JUMPI DUP1 PUSH4 0xA6EBA5D1 EQ PUSH2 0x3DA JUMPI PUSH1 0x0 DUP1 REVERT JUMPDEST DUP1 PUSH4 0x4641257D GT PUSH2 0x1C9 JUMPI DUP1 PUSH4 0x70897B23 GT PUSH2 0x18D JUMPI DUP1 PUSH4 0x70897B23 EQ PUSH2 0x37C JUMPI DUP1 PUSH4 0x715018A6 EQ PUSH2 0x38F JUMPI DUP1 PUSH4 0x722713F7 EQ PUSH2 0x397 JUMPI DUP1 PUSH4 0x77C7B8FC EQ PUSH2 0x39F JUMPI DUP1 PUSH4 0x8456CB59 EQ PUSH2 0x3A7 JUMPI PUSH1 0x0 DUP1 REVERT JUMPDEST DUP1 PUSH4 0x4641257D EQ PUSH2 0x311 JUMPI DUP1 PUSH4 0x48A0D754 EQ PUSH2 0x319 JUMPI DUP1 PUSH4 0x5C975ABB EQ PUSH2 0x321 JUMPI DUP1 PUSH4 0x61D027B3 EQ PUSH2 0x33E JUMPI DUP1 PUSH4 0x704B6C02 EQ PUSH2 0x369 JUMPI PUSH1 0x0 DUP1 REVERT JUMPDEST DUP1 PUSH4 0x2AD5A53F GT PUSH2 0x210 JUMPI DUP1 PUSH4 0x2AD5A53F EQ PUSH2 0x2DB JUMPI DUP1 PUSH4 0x2CFC5F01 EQ PUSH2 0x2E3 JUMPI DUP1 PUSH4 0x2E1A7D4D EQ PUSH2 0x2ED JUMPI DUP1 PUSH4 0x3A98EF39 EQ PUSH2 0x300 JUMPI DUP1 PUSH4 0x3F4BA83A EQ PUSH2 0x309 JUMPI PUSH1 0x0 DUP1 REVERT JUMPDEST DUP1 PUSH4 0x18B0B108 EQ PUSH2 0x242 JUMPI DUP1 PUSH4 0x1959A002 EQ PUSH2 0x25D JUMPI DUP1 PUSH4 0x1EFAC1B8 EQ PUSH2 0x2B3 JUMPI DUP1 PUSH4 0x26465826 EQ PUSH2 0x2C8 JUMPI JUMPDEST PUSH1 0x0 DUP1 REVERT JUMPDEST PUSH2 0x24A PUSH2 0x4F5 JUMP JUMPDEST PUSH1 0x40 MLOAD SWAP1 DUP2 MSTORE PUSH1 0x20 ADD JUMPDEST PUSH1 0x40 MLOAD DUP1 SWAP2 SUB SWAP1 RETURN JUMPDEST PUSH2 0x293 PUSH2 0x26B CALLDATASIZE PUSH1 0x4 PUSH2 0x1FC3 JUMP JUMPDEST PUSH1 0x1 PUSH1 0x20 DUP2 SWAP1 MSTORE PUSH1 0x0 SWAP2 DUP3 MSTORE PUSH1 0x40 SWAP1 SWAP2 KECCAK256 DUP1 SLOAD SWAP2 DUP2 ADD SLOAD PUSH1 0x2 DUP3 ADD SLOAD PUSH1 0x3 SWAP1 SWAP3 ADD SLOAD SWAP1 SWAP2 SWAP1 DUP5 JUMP JUMPDEST PUSH1 0x40 DUP1 MLOAD SWAP5 DUP6 MSTORE PUSH1 0x20 DUP6 ADD SWAP4 SWAP1 SWAP4 MSTORE SWAP2 DUP4 ADD MSTORE PUSH1 0x60 DUP3 ADD MSTORE PUSH1 0x80 ADD PUSH2 0x254 JUMP JUMPDEST PUSH2 0x2C6 PUSH2 0x2C1 CALLDATASIZE PUSH1 0x4 PUSH2 0x200E JUMP JUMPDEST PUSH2 0x5D8 JUMP JUMPDEST STOP JUMPDEST PUSH2 0x2C6 PUSH2 0x2D6 CALLDATASIZE PUSH1 0x4 PUSH2 0x200E JUMP JUMPDEST PUSH2 0x689 JUMP JUMPDEST PUSH2 0x24A PUSH1 0x64 DUP2 JUMP JUMPDEST PUSH2 0x24A PUSH3 0x3F480 DUP2 JUMP JUMPDEST PUSH2 0x2C6 PUSH2 0x2FB CALLDATASIZE PUSH1 0x4 PUSH2 0x200E JUMP JUMPDEST PUSH2 0x71A JUMP JUMPDEST PUSH2 0x24A PUSH1 0x2 SLOAD DUP2 JUMP JUMPDEST PUSH2 0x2C6 PUSH2 0xA34 JUMP JUMPDEST PUSH2 0x2C6 PUSH2 0xAE1 JUMP JUMPDEST PUSH2 0x24A PUSH2 0xCC8 JUMP JUMPDEST PUSH1 0x0 SLOAD PUSH1 0x1 PUSH1 0xA0 SHL SWAP1 DIV PUSH1 0xFF AND PUSH1 0x40 MLOAD SWAP1 ISZERO ISZERO DUP2 MSTORE PUSH1 0x20 ADD PUSH2 0x254 JUMP JUMPDEST PUSH1 0x5 SLOAD PUSH2 0x351 SWAP1 PUSH1 0x1 PUSH1 0x1 PUSH1 0xA0 SHL SUB AND DUP2 JUMP JUMPDEST PUSH1 0x40 MLOAD PUSH1 0x1 PUSH1 0x1 PUSH1 0xA0 SHL SUB SWAP1 SWAP2 AND DUP2 MSTORE PUSH1 0x20 ADD PUSH2 0x254 JUMP JUMPDEST PUSH2 0x2C6 PUSH2 0x377 CALLDATASIZE PUSH1 0x4 PUSH2 0x1FC3 JUMP JUMPDEST PUSH2 0xD67 JUMP JUMPDEST PUSH2 0x2C6 PUSH2 0x38A CALLDATASIZE PUSH1 0x4 PUSH2 0x200E JUMP JUMPDEST PUSH2 0xE02 JUMP JUMPDEST PUSH2 0x2C6 PUSH2 0xEA2 JUMP JUMPDEST PUSH2 0x24A PUSH2 0xF16 JUMP JUMPDEST PUSH2 0x24A PUSH2 0x1065 JUMP JUMPDEST PUSH2 0x2C6 PUSH2 0x1098 JUMP JUMPDEST PUSH2 0x2C6 PUSH2 0x111F JUMP JUMPDEST PUSH2 0x24A PUSH1 0x6 SLOAD DUP2 JUMP JUMPDEST PUSH1 0x0 SLOAD PUSH1 0x1 PUSH1 0x1 PUSH1 0xA0 SHL SUB AND PUSH2 0x351 JUMP JUMPDEST PUSH2 0x24A PUSH1 0x7 SLOAD DUP2 JUMP JUMPDEST PUSH2 0x24A PUSH2 0x1178 JUMP JUMPDEST PUSH2 0x24A PUSH1 0x3 SLOAD DUP2 JUMP JUMPDEST PUSH2 0x2C6 PUSH2 0x3F9 CALLDATASIZE PUSH1 0x4 PUSH2 0x200E JUMP JUMPDEST PUSH2 0x122E JUMP JUMPDEST PUSH2 0x2C6 PUSH2 0x40C CALLDATASIZE PUSH1 0x4 PUSH2 0x200E JUMP JUMPDEST PUSH2 0x12C7 JUMP JUMPDEST PUSH2 0x24A PUSH2 0x1F4 DUP2 JUMP JUMPDEST PUSH2 0x2C6 PUSH2 0x1485 JUMP JUMPDEST PUSH2 0x2C6 PUSH2 0x430 CALLDATASIZE PUSH1 0x4 PUSH2 0x1FC3 JUMP JUMPDEST PUSH2 0x152B JUMP JUMPDEST PUSH2 0x24A PUSH1 0x9 SLOAD DUP2 JUMP JUMPDEST PUSH2 0x24A PUSH1 0x8 SLOAD DUP2 JUMP JUMPDEST PUSH2 0x351 PUSH32 0x0 DUP2 JUMP JUMPDEST PUSH2 0x2C6 PUSH2 0x47C CALLDATASIZE PUSH1 0x4 PUSH2 0x1FC3 JUMP JUMPDEST PUSH2 0x1709 JUMP JUMPDEST PUSH2 0x2C6 PUSH2 0x48F CALLDATASIZE PUSH1 0x4 PUSH2 0x1FC3 JUMP JUMPDEST PUSH2 0x17A4 JUMP JUMPDEST PUSH1 0x4 SLOAD PUSH2 0x351 SWAP1 PUSH1 0x1 PUSH1 0x1 PUSH1 0xA0 SHL SUB AND DUP2 JUMP JUMPDEST PUSH2 0x351 PUSH32 0x0 DUP2 JUMP JUMPDEST PUSH2 0x351 PUSH32 0x0 DUP2 JUMP JUMPDEST PUSH1 0x40 MLOAD PUSH4 0x62ADAF31 PUSH1 0xE1 SHL DUP2 MSTORE PUSH1 0x0 PUSH1 0x4 DUP3 ADD DUP2 SWAP1 MSTORE ADDRESS PUSH1 0x24 DUP4 ADD MSTORE SWAP1 DUP2 SWAP1 PUSH1 0x1 PUSH1 0x1 PUSH1 0xA0 SHL SUB PUSH32 0x0 AND SWAP1 PUSH4 0xC55B5E62 SWAP1 PUSH1 0x44 ADD PUSH1 0x20 PUSH1 0x40 MLOAD DUP1 DUP4 SUB DUP2 DUP7 DUP1 EXTCODESIZE ISZERO DUP1 ISZERO PUSH2 0x560 JUMPI PUSH1 0x0 DUP1 REVERT JUMPDEST POP GAS STATICCALL ISZERO DUP1 ISZERO PUSH2 0x574 JUMPI RETURNDATASIZE PUSH1 0x0 DUP1 RETURNDATACOPY RETURNDATASIZE PUSH1 0x0 REVERT JUMPDEST POP POP POP POP PUSH1 0x40 MLOAD RETURNDATASIZE PUSH1 0x1F NOT PUSH1 0x1F DUP3 ADD AND DUP3 ADD DUP1 PUSH1 0x40 MSTORE POP DUP2 ADD SWAP1 PUSH2 0x598 SWAP2 SWAP1 PUSH2 0x2027 JUMP JUMPDEST SWAP1 POP PUSH2 0x5AC PUSH2 0x5A5 PUSH2 0xCC8 JUMP JUMPDEST DUP3 SWAP1 PUSH2 0x1A01 JUMP JUMPDEST SWAP1 POP PUSH1 0x0 PUSH2 0x5D1 PUSH2 0x2710 PUSH2 0x5CB PUSH1 0x7 SLOAD DUP6 PUSH2 0x1A60 SWAP1 SWAP2 SWAP1 PUSH4 0xFFFFFFFF AND JUMP JUMPDEST SWAP1 PUSH2 0x1ADF JUMP JUMPDEST SWAP4 SWAP3 POP POP POP JUMP JUMPDEST PUSH1 0x4 SLOAD PUSH1 0x1 PUSH1 0x1 PUSH1 0xA0 SHL SUB AND CALLER EQ PUSH2 0x60B JUMPI PUSH1 0x40 MLOAD PUSH3 0x461BCD PUSH1 0xE5 SHL DUP2 MSTORE PUSH1 0x4 ADD PUSH2 0x602 SWAP1 PUSH2 0x2177 JUMP JUMPDEST PUSH1 0x40 MLOAD DUP1 SWAP2 SUB SWAP1 REVERT JUMPDEST PUSH3 0x3F480 DUP2 GT ISZERO PUSH2 0x684 JUMPI PUSH1 0x40 MLOAD PUSH3 0x461BCD PUSH1 0xE5 SHL DUP2 MSTORE PUSH1 0x20 PUSH1 0x4 DUP3 ADD MSTORE PUSH1 0x3D PUSH1 0x24 DUP3 ADD MSTORE PUSH32 0x7769746864726177466565506572696F642063616E6E6F74206265206D6F7265 PUSH1 0x44 DUP3 ADD MSTORE PUSH32 0x207468616E204D41585F57495448445241575F4645455F504552494F44000000 PUSH1 0x64 DUP3 ADD MSTORE PUSH1 0x84 ADD PUSH2 0x602 JUMP JUMPDEST PUSH1 0x9 SSTORE JUMP JUMPDEST PUSH1 0x4 SLOAD PUSH1 0x1 PUSH1 0x1 PUSH1 0xA0 SHL SUB AND CALLER EQ PUSH2 0x6B3 JUMPI PUSH1 0x40 MLOAD PUSH3 0x461BCD PUSH1 0xE5 SHL DUP2 MSTORE PUSH1 0x4 ADD PUSH2 0x602 SWAP1 PUSH2 0x2177 JUMP JUMPDEST PUSH1 0x64 DUP2 GT ISZERO PUSH2 0x715 JUMPI PUSH1 0x40 MLOAD PUSH3 0x461BCD PUSH1 0xE5 SHL DUP2 MSTORE PUSH1 0x20 PUSH1 0x4 DUP3 ADD MSTORE PUSH1 0x28 PUSH1 0x24 DUP3 ADD MSTORE PUSH32 0x63616C6C4665652063616E6E6F74206265206D6F7265207468616E204D41585F PUSH1 0x44 DUP3 ADD MSTORE PUSH8 0x43414C4C5F464545 PUSH1 0xC0 SHL PUSH1 0x64 DUP3 ADD MSTORE PUSH1 0x84 ADD PUSH2 0x602 JUMP JUMPDEST PUSH1 0x7 SSTORE JUMP JUMPDEST CALLER EXTCODESIZE ISZERO PUSH2 0x739 JUMPI PUSH1 0x40 MLOAD PUSH3 0x461BCD PUSH1 0xE5 SHL DUP2 MSTORE PUSH1 0x4 ADD PUSH2 0x602 SWAP1 PUSH2 0x2149 JUMP JUMPDEST CALLER ORIGIN EQ PUSH2 0x758 JUMPI PUSH1 0x40 MLOAD PUSH3 0x461BCD PUSH1 0xE5 SHL DUP2 MSTORE PUSH1 0x4 ADD PUSH2 0x602 SWAP1 PUSH2 0x20B3 JUMP JUMPDEST CALLER PUSH1 0x0 SWAP1 DUP2 MSTORE PUSH1 0x1 PUSH1 0x20 MSTORE PUSH1 0x40 SWAP1 KECCAK256 DUP2 PUSH2 0x7AA JUMPI PUSH1 0x40 MLOAD PUSH3 0x461BCD PUSH1 0xE5 SHL DUP2 MSTORE PUSH1 0x20 PUSH1 0x4 DUP3 ADD MSTORE PUSH1 0x13 PUSH1 0x24 DUP3 ADD MSTORE PUSH19 0x4E6F7468696E6720746F207769746864726177 PUSH1 0x68 SHL PUSH1 0x44 DUP3 ADD MSTORE PUSH1 0x64 ADD PUSH2 0x602 JUMP JUMPDEST DUP1 SLOAD DUP3 GT ISZERO PUSH2 0x7FB JUMPI PUSH1 0x40 MLOAD PUSH3 0x461BCD PUSH1 0xE5 SHL DUP2 MSTORE PUSH1 0x20 PUSH1 0x4 DUP3 ADD MSTORE PUSH1 0x1F PUSH1 0x24 DUP3 ADD MSTORE PUSH32 0x576974686472617720616D6F756E7420657863656564732062616C616E636500 PUSH1 0x44 DUP3 ADD MSTORE PUSH1 0x64 ADD PUSH2 0x602 JUMP JUMPDEST PUSH1 0x0 PUSH2 0x815 PUSH1 0x2 SLOAD PUSH2 0x5CB DUP6 PUSH2 0x80F PUSH2 0xF16 JUMP JUMPDEST SWAP1 PUSH2 0x1A60 JUMP JUMPDEST DUP3 SLOAD SWAP1 SWAP2 POP PUSH2 0x824 SWAP1 DUP5 PUSH2 0x1B3A JUMP JUMPDEST DUP3 SSTORE PUSH1 0x2 SLOAD PUSH2 0x833 SWAP1 DUP5 PUSH2 0x1B3A JUMP JUMPDEST PUSH1 0x2 SSTORE PUSH1 0x0 PUSH2 0x840 PUSH2 0xCC8 JUMP JUMPDEST SWAP1 POP DUP2 DUP2 LT ISZERO PUSH2 0x906 JUMPI PUSH1 0x0 PUSH2 0x856 DUP4 DUP4 PUSH2 0x1B3A JUMP JUMPDEST PUSH1 0x40 MLOAD PUSH4 0x1058D281 PUSH1 0xE0 SHL DUP2 MSTORE PUSH1 0x4 DUP2 ADD DUP3 SWAP1 MSTORE SWAP1 SWAP2 POP PUSH32 0x0 PUSH1 0x1 PUSH1 0x1 PUSH1 0xA0 SHL SUB AND SWAP1 PUSH4 0x1058D281 SWAP1 PUSH1 0x24 ADD PUSH1 0x0 PUSH1 0x40 MLOAD DUP1 DUP4 SUB DUP2 PUSH1 0x0 DUP8 DUP1 EXTCODESIZE ISZERO DUP1 ISZERO PUSH2 0x8BB JUMPI PUSH1 0x0 DUP1 REVERT JUMPDEST POP GAS CALL ISZERO DUP1 ISZERO PUSH2 0x8CF JUMPI RETURNDATASIZE PUSH1 0x0 DUP1 RETURNDATACOPY RETURNDATASIZE PUSH1 0x0 REVERT JUMPDEST POP POP POP POP PUSH1 0x0 PUSH2 0x8DD PUSH2 0xCC8 JUMP JUMPDEST SWAP1 POP PUSH1 0x0 PUSH2 0x8EB DUP3 DUP6 PUSH2 0x1B3A JUMP JUMPDEST SWAP1 POP DUP3 DUP2 LT ISZERO PUSH2 0x902 JUMPI PUSH2 0x8FF DUP5 DUP3 PUSH2 0x1A01 JUMP JUMPDEST SWAP5 POP JUMPDEST POP POP POP JUMPDEST PUSH1 0x9 SLOAD PUSH1 0x1 DUP5 ADD SLOAD PUSH2 0x917 SWAP2 PUSH2 0x1A01 JUMP JUMPDEST TIMESTAMP LT ISZERO PUSH2 0x986 JUMPI PUSH1 0x0 PUSH2 0x93B PUSH2 0x2710 PUSH2 0x5CB PUSH1 0x8 SLOAD DUP7 PUSH2 0x1A60 SWAP1 SWAP2 SWAP1 PUSH4 0xFFFFFFFF AND JUMP JUMPDEST PUSH1 0x5 SLOAD SWAP1 SWAP2 POP PUSH2 0x978 SWAP1 PUSH1 0x1 PUSH1 0x1 PUSH1 0xA0 SHL SUB PUSH32 0x0 DUP2 AND SWAP2 AND DUP4 PUSH2 0x1B96 JUMP JUMPDEST PUSH2 0x982 DUP4 DUP3 PUSH2 0x1B3A JUMP JUMPDEST SWAP3 POP POP JUMPDEST DUP3 SLOAD ISZERO PUSH2 0x9B0 JUMPI PUSH2 0x9A6 PUSH1 0x2 SLOAD PUSH2 0x5CB PUSH2 0x99E PUSH2 0xF16 JUMP JUMPDEST DUP7 SLOAD SWAP1 PUSH2 0x1A60 JUMP JUMPDEST PUSH1 0x2 DUP5 ADD SSTORE PUSH2 0x9B8 JUMP JUMPDEST PUSH1 0x0 PUSH1 0x2 DUP5 ADD SSTORE JUMPDEST TIMESTAMP PUSH1 0x3 DUP5 ADD SSTORE PUSH2 0x9F2 PUSH1 0x1 PUSH1 0x1 PUSH1 0xA0 SHL SUB PUSH32 0x0 AND CALLER DUP5 PUSH2 0x1B96 JUMP JUMPDEST PUSH1 0x40 DUP1 MLOAD DUP4 DUP2 MSTORE PUSH1 0x20 DUP2 ADD DUP7 SWAP1 MSTORE CALLER SWAP2 PUSH32 0xF279E6A1F5E320CCA91135676D9CB6E44CA8A08C0B88342BCDB1144F6511B568 SWAP2 ADD JUMPDEST PUSH1 0x40 MLOAD DUP1 SWAP2 SUB SWAP1 LOG2 POP POP POP POP JUMP JUMPDEST PUSH1 0x4 SLOAD PUSH1 0x1 PUSH1 0x1 PUSH1 0xA0 SHL SUB AND CALLER EQ PUSH2 0xA5E JUMPI PUSH1 0x40 MLOAD PUSH3 0x461BCD PUSH1 0xE5 SHL DUP2 MSTORE PUSH1 0x4 ADD PUSH2 0x602 SWAP1 PUSH2 0x2177 JUMP JUMPDEST PUSH1 0x0 SLOAD PUSH1 0x1 PUSH1 0xA0 SHL SWAP1 DIV PUSH1 0xFF AND PUSH2 0xAAE JUMPI PUSH1 0x40 MLOAD PUSH3 0x461BCD PUSH1 0xE5 SHL DUP2 MSTORE PUSH1 0x20 PUSH1 0x4 DUP3 ADD MSTORE PUSH1 0x14 PUSH1 0x24 DUP3 ADD MSTORE PUSH20 0x14185D5CD8589B194E881B9BDD081C185D5CD959 PUSH1 0x62 SHL PUSH1 0x44 DUP3 ADD MSTORE PUSH1 0x64 ADD PUSH2 0x602 JUMP JUMPDEST PUSH2 0xAB6 PUSH2 0x1BC6 JUMP JUMPDEST PUSH1 0x40 MLOAD PUSH32 0x7805862F689E2F13DF9F062FF482AD3AD112ACA9E0847911ED832E158C525B33 SWAP1 PUSH1 0x0 SWAP1 LOG1 JUMP JUMPDEST CALLER EXTCODESIZE ISZERO PUSH2 0xB00 JUMPI PUSH1 0x40 MLOAD PUSH3 0x461BCD PUSH1 0xE5 SHL DUP2 MSTORE PUSH1 0x4 ADD PUSH2 0x602 SWAP1 PUSH2 0x2149 JUMP JUMPDEST CALLER ORIGIN EQ PUSH2 0xB1F JUMPI PUSH1 0x40 MLOAD PUSH3 0x461BCD PUSH1 0xE5 SHL DUP2 MSTORE PUSH1 0x4 ADD PUSH2 0x602 SWAP1 PUSH2 0x20B3 JUMP JUMPDEST PUSH1 0x0 SLOAD PUSH1 0x1 PUSH1 0xA0 SHL SWAP1 DIV PUSH1 0xFF AND ISZERO PUSH2 0xB49 JUMPI PUSH1 0x40 MLOAD PUSH3 0x461BCD PUSH1 0xE5 SHL DUP2 MSTORE PUSH1 0x4 ADD PUSH2 0x602 SWAP1 PUSH2 0x20EA JUMP JUMPDEST PUSH1 0x40 MLOAD PUSH4 0x1058D281 PUSH1 0xE0 SHL DUP2 MSTORE PUSH1 0x0 PUSH1 0x4 DUP3 ADD MSTORE PUSH32 0x0 PUSH1 0x1 PUSH1 0x1 PUSH1 0xA0 SHL SUB AND SWAP1 PUSH4 0x1058D281 SWAP1 PUSH1 0x24 ADD PUSH1 0x0 PUSH1 0x40 MLOAD DUP1 DUP4 SUB DUP2 PUSH1 0x0 DUP8 DUP1 EXTCODESIZE ISZERO DUP1 ISZERO PUSH2 0xBAB JUMPI PUSH1 0x0 DUP1 REVERT JUMPDEST POP GAS CALL ISZERO DUP1 ISZERO PUSH2 0xBBF JUMPI RETURNDATASIZE PUSH1 0x0 DUP1 RETURNDATACOPY RETURNDATASIZE PUSH1 0x0 REVERT JUMPDEST POP POP POP POP PUSH1 0x0 PUSH2 0xBCD PUSH2 0xCC8 JUMP JUMPDEST SWAP1 POP PUSH1 0x0 PUSH2 0xBEC PUSH2 0x2710 PUSH2 0x5CB PUSH1 0x6 SLOAD DUP6 PUSH2 0x1A60 SWAP1 SWAP2 SWAP1 PUSH4 0xFFFFFFFF AND JUMP JUMPDEST PUSH1 0x5 SLOAD SWAP1 SWAP2 POP PUSH2 0xC29 SWAP1 PUSH1 0x1 PUSH1 0x1 PUSH1 0xA0 SHL SUB PUSH32 0x0 DUP2 AND SWAP2 AND DUP4 PUSH2 0x1B96 JUMP JUMPDEST PUSH1 0x0 PUSH2 0xC46 PUSH2 0x2710 PUSH2 0x5CB PUSH1 0x7 SLOAD DUP7 PUSH2 0x1A60 SWAP1 SWAP2 SWAP1 PUSH4 0xFFFFFFFF AND JUMP JUMPDEST SWAP1 POP PUSH2 0xC7C PUSH1 0x1 PUSH1 0x1 PUSH1 0xA0 SHL SUB PUSH32 0x0 AND CALLER DUP4 PUSH2 0x1B96 JUMP JUMPDEST PUSH2 0xC84 PUSH2 0x1C63 JUMP JUMPDEST TIMESTAMP PUSH1 0x3 SSTORE PUSH1 0x40 DUP1 MLOAD DUP4 DUP2 MSTORE PUSH1 0x20 DUP2 ADD DUP4 SWAP1 MSTORE CALLER SWAP2 PUSH32 0x71BAB65CED2E5750775A0613BE067DF48EF06CF92A496EBF7663AE0660924954 SWAP2 ADD PUSH1 0x40 MLOAD DUP1 SWAP2 SUB SWAP1 LOG2 POP POP POP JUMP JUMPDEST PUSH1 0x40 MLOAD PUSH4 0x70A08231 PUSH1 0xE0 SHL DUP2 MSTORE ADDRESS PUSH1 0x4 DUP3 ADD MSTORE PUSH1 0x0 SWAP1 PUSH32 0x0 PUSH1 0x1 PUSH1 0x1 PUSH1 0xA0 SHL SUB AND SWAP1 PUSH4 0x70A08231 SWAP1 PUSH1 0x24 ADD PUSH1 0x20 PUSH1 0x40 MLOAD DUP1 DUP4 SUB DUP2 DUP7 DUP1 EXTCODESIZE ISZERO DUP1 ISZERO PUSH2 0xD2A JUMPI PUSH1 0x0 DUP1 REVERT JUMPDEST POP GAS STATICCALL ISZERO DUP1 ISZERO PUSH2 0xD3E JUMPI RETURNDATASIZE PUSH1 0x0 DUP1 RETURNDATACOPY RETURNDATASIZE PUSH1 0x0 REVERT JUMPDEST POP POP POP POP PUSH1 0x40 MLOAD RETURNDATASIZE PUSH1 0x1F NOT PUSH1 0x1F DUP3 ADD AND DUP3 ADD DUP1 PUSH1 0x40 MSTORE POP DUP2 ADD SWAP1 PUSH2 0xD62 SWAP2 SWAP1 PUSH2 0x2027 JUMP JUMPDEST SWAP1 POP SWAP1 JUMP JUMPDEST PUSH1 0x0 SLOAD PUSH1 0x1 PUSH1 0x1 PUSH1 0xA0 SHL SUB AND CALLER EQ PUSH2 0xD91 JUMPI PUSH1 0x40 MLOAD PUSH3 0x461BCD PUSH1 0xE5 SHL DUP2 MSTORE PUSH1 0x4 ADD PUSH2 0x602 SWAP1 PUSH2 0x2114 JUMP JUMPDEST PUSH1 0x1 PUSH1 0x1 PUSH1 0xA0 SHL SUB DUP2 AND PUSH2 0xDE0 JUMPI PUSH1 0x40 MLOAD PUSH3 0x461BCD PUSH1 0xE5 SHL DUP2 MSTORE PUSH1 0x20 PUSH1 0x4 DUP3 ADD MSTORE PUSH1 0x16 PUSH1 0x24 DUP3 ADD MSTORE PUSH22 0x43616E6E6F74206265207A65726F2061646472657373 PUSH1 0x50 SHL PUSH1 0x44 DUP3 ADD MSTORE PUSH1 0x64 ADD PUSH2 0x602 JUMP JUMPDEST PUSH1 0x4 DUP1 SLOAD PUSH1 0x1 PUSH1 0x1 PUSH1 0xA0 SHL SUB NOT AND PUSH1 0x1 PUSH1 0x1 PUSH1 0xA0 SHL SUB SWAP3 SWAP1 SWAP3 AND SWAP2 SWAP1 SWAP2 OR SWAP1 SSTORE JUMP JUMPDEST PUSH1 0x4 SLOAD PUSH1 0x1 PUSH1 0x1 PUSH1 0xA0 SHL SUB AND CALLER EQ PUSH2 0xE2C JUMPI PUSH1 0x40 MLOAD PUSH3 0x461BCD PUSH1 0xE5 SHL DUP2 MSTORE PUSH1 0x4 ADD PUSH2 0x602 SWAP1 PUSH2 0x2177 JUMP JUMPDEST PUSH2 0x1F4 DUP2 GT ISZERO PUSH2 0xE9D JUMPI PUSH1 0x40 MLOAD PUSH3 0x461BCD PUSH1 0xE5 SHL DUP2 MSTORE PUSH1 0x20 PUSH1 0x4 DUP3 ADD MSTORE PUSH1 0x36 PUSH1 0x24 DUP3 ADD MSTORE PUSH32 0x706572666F726D616E63654665652063616E6E6F74206265206D6F7265207468 PUSH1 0x44 DUP3 ADD MSTORE PUSH22 0x616E204D41585F504552464F524D414E43455F464545 PUSH1 0x50 SHL PUSH1 0x64 DUP3 ADD MSTORE PUSH1 0x84 ADD PUSH2 0x602 JUMP JUMPDEST PUSH1 0x6 SSTORE JUMP JUMPDEST PUSH1 0x0 SLOAD PUSH1 0x1 PUSH1 0x1 PUSH1 0xA0 SHL SUB AND CALLER EQ PUSH2 0xECC JUMPI PUSH1 0x40 MLOAD PUSH3 0x461BCD PUSH1 0xE5 SHL DUP2 MSTORE PUSH1 0x4 ADD PUSH2 0x602 SWAP1 PUSH2 0x2114 JUMP JUMPDEST PUSH1 0x0 DUP1 SLOAD PUSH1 0x40 MLOAD PUSH1 0x1 PUSH1 0x1 PUSH1 0xA0 SHL SUB SWAP1 SWAP2 AND SWAP1 PUSH32 0x8BE0079C531659141344CD1FD0A4F28419497F9722A3DAAFE3B4186F6B6457E0 SWAP1 DUP4 SWAP1 LOG3 PUSH1 0x0 DUP1 SLOAD PUSH1 0x1 PUSH1 0x1 PUSH1 0xA0 SHL SUB NOT AND SWAP1 SSTORE JUMP JUMPDEST PUSH1 0x40 MLOAD PUSH4 0x93F1A40B PUSH1 0xE0 SHL DUP2 MSTORE PUSH1 0x0 PUSH1 0x4 DUP3 ADD DUP2 SWAP1 MSTORE ADDRESS PUSH1 0x24 DUP4 ADD MSTORE SWAP1 DUP2 SWAP1 PUSH1 0x1 PUSH1 0x1 PUSH1 0xA0 SHL SUB PUSH32 0x0 AND SWAP1 PUSH4 0x93F1A40B SWAP1 PUSH1 0x44 ADD PUSH1 0x40 DUP1 MLOAD DUP1 DUP4 SUB DUP2 DUP7 DUP1 EXTCODESIZE ISZERO DUP1 ISZERO PUSH2 0xF80 JUMPI PUSH1 0x0 DUP1 REVERT JUMPDEST POP GAS STATICCALL ISZERO DUP1 ISZERO PUSH2 0xF94 JUMPI RETURNDATASIZE PUSH1 0x0 DUP1 RETURNDATACOPY RETURNDATASIZE PUSH1 0x0 REVERT JUMPDEST POP POP POP POP PUSH1 0x40 MLOAD RETURNDATASIZE PUSH1 0x1F NOT PUSH1 0x1F DUP3 ADD AND DUP3 ADD DUP1 PUSH1 0x40 MSTORE POP DUP2 ADD SWAP1 PUSH2 0xFB8 SWAP2 SWAP1 PUSH2 0x2040 JUMP JUMPDEST POP PUSH1 0x40 MLOAD PUSH4 0x70A08231 PUSH1 0xE0 SHL DUP2 MSTORE ADDRESS PUSH1 0x4 DUP3 ADD MSTORE SWAP1 SWAP2 POP PUSH2 0x105F SWAP1 DUP3 SWAP1 PUSH1 0x1 PUSH1 0x1 PUSH1 0xA0 SHL SUB PUSH32 0x0 AND SWAP1 PUSH4 0x70A08231 SWAP1 PUSH1 0x24 ADD PUSH1 0x20 PUSH1 0x40 MLOAD DUP1 DUP4 SUB DUP2 DUP7 DUP1 EXTCODESIZE ISZERO DUP1 ISZERO PUSH2 0x1021 JUMPI PUSH1 0x0 DUP1 REVERT JUMPDEST POP GAS STATICCALL ISZERO DUP1 ISZERO PUSH2 0x1035 JUMPI RETURNDATASIZE PUSH1 0x0 DUP1 RETURNDATACOPY RETURNDATASIZE PUSH1 0x0 REVERT JUMPDEST POP POP POP POP PUSH1 0x40 MLOAD RETURNDATASIZE PUSH1 0x1F NOT PUSH1 0x1F DUP3 ADD AND DUP3 ADD DUP1 PUSH1 0x40 MSTORE POP DUP2 ADD SWAP1 PUSH2 0x1059 SWAP2 SWAP1 PUSH2 0x2027 JUMP JUMPDEST SWAP1 PUSH2 0x1A01 JUMP JUMPDEST SWAP2 POP POP SWAP1 JUMP JUMPDEST PUSH1 0x0 PUSH1 0x2 SLOAD PUSH1 0x0 EQ PUSH2 0x108B JUMPI PUSH2 0xD62 PUSH1 0x2 SLOAD PUSH2 0x5CB PUSH8 0xDE0B6B3A7640000 PUSH2 0x80F PUSH2 0xF16 JUMP JUMPDEST POP PUSH8 0xDE0B6B3A7640000 SWAP1 JUMP JUMPDEST PUSH1 0x4 SLOAD PUSH1 0x1 PUSH1 0x1 PUSH1 0xA0 SHL SUB AND CALLER EQ PUSH2 0x10C2 JUMPI PUSH1 0x40 MLOAD PUSH3 0x461BCD PUSH1 0xE5 SHL DUP2 MSTORE PUSH1 0x4 ADD PUSH2 0x602 SWAP1 PUSH2 0x2177 JUMP JUMPDEST PUSH1 0x0 SLOAD PUSH1 0x1 PUSH1 0xA0 SHL SWAP1 DIV PUSH1 0xFF AND ISZERO PUSH2 0x10EC JUMPI PUSH1 0x40 MLOAD PUSH3 0x461BCD PUSH1 0xE5 SHL DUP2 MSTORE PUSH1 0x4 ADD PUSH2 0x602 SWAP1 PUSH2 0x20EA JUMP JUMPDEST PUSH2 0x10F4 PUSH2 0x1CF3 JUMP JUMPDEST PUSH1 0x40 MLOAD PUSH32 0x6985A02210A168E66602D3235CB6DB0E70F92B3BA4D376A33C0F3D9434BFF625 SWAP1 PUSH1 0x0 SWAP1 LOG1 JUMP JUMPDEST CALLER EXTCODESIZE ISZERO PUSH2 0x113E JUMPI PUSH1 0x40 MLOAD PUSH3 0x461BCD PUSH1 0xE5 SHL DUP2 MSTORE PUSH1 0x4 ADD PUSH2 0x602 SWAP1 PUSH2 0x2149 JUMP JUMPDEST CALLER ORIGIN EQ PUSH2 0x115D JUMPI PUSH1 0x40 MLOAD PUSH3 0x461BCD PUSH1 0xE5 SHL DUP2 MSTORE PUSH1 0x4 ADD PUSH2 0x602 SWAP1 PUSH2 0x20B3 JUMP JUMPDEST CALLER PUSH1 0x0 SWAP1 DUP2 MSTORE PUSH1 0x1 PUSH1 0x20 MSTORE PUSH1 0x40 SWAP1 KECCAK256 SLOAD PUSH2 0x1176 SWAP1 PUSH2 0x71A JUMP JUMPDEST JUMP JUMPDEST PUSH1 0x40 MLOAD PUSH4 0x62ADAF31 PUSH1 0xE1 SHL DUP2 MSTORE PUSH1 0x0 PUSH1 0x4 DUP3 ADD DUP2 SWAP1 MSTORE ADDRESS PUSH1 0x24 DUP4 ADD MSTORE SWAP1 DUP2 SWAP1 PUSH1 0x1 PUSH1 0x1 PUSH1 0xA0 SHL SUB PUSH32 0x0 AND SWAP1 PUSH4 0xC55B5E62 SWAP1 PUSH1 0x44 ADD PUSH1 0x20 PUSH1 0x40 MLOAD DUP1 DUP4 SUB DUP2 DUP7 DUP1 EXTCODESIZE ISZERO DUP1 ISZERO PUSH2 0x11E3 JUMPI PUSH1 0x0 DUP1 REVERT JUMPDEST POP GAS STATICCALL ISZERO DUP1 ISZERO PUSH2 0x11F7 JUMPI RETURNDATASIZE PUSH1 0x0 DUP1 RETURNDATACOPY RETURNDATASIZE PUSH1 0x0 REVERT JUMPDEST POP POP POP POP PUSH1 0x40 MLOAD RETURNDATASIZE PUSH1 0x1F NOT PUSH1 0x1F DUP3 ADD AND DUP3 ADD DUP1 PUSH1 0x40 MSTORE POP DUP2 ADD SWAP1 PUSH2 0x121B SWAP2 SWAP1 PUSH2 0x2027 JUMP JUMPDEST SWAP1 POP PUSH2 0x1228 PUSH2 0x5A5 PUSH2 0xCC8 JUMP JUMPDEST SWAP3 SWAP2 POP POP JUMP JUMPDEST PUSH1 0x4 SLOAD PUSH1 0x1 PUSH1 0x1 PUSH1 0xA0 SHL SUB AND CALLER EQ PUSH2 0x1258 JUMPI PUSH1 0x40 MLOAD PUSH3 0x461BCD PUSH1 0xE5 SHL DUP2 MSTORE PUSH1 0x4 ADD PUSH2 0x602 SWAP1 PUSH2 0x2177 JUMP JUMPDEST PUSH1 0x64 DUP2 GT ISZERO PUSH2 0x12C2 JUMPI PUSH1 0x40 MLOAD PUSH3 0x461BCD PUSH1 0xE5 SHL DUP2 MSTORE PUSH1 0x20 PUSH1 0x4 DUP3 ADD MSTORE PUSH1 0x30 PUSH1 0x24 DUP3 ADD MSTORE PUSH32 0x77697468647261774665652063616E6E6F74206265206D6F7265207468616E20 PUSH1 0x44 DUP3 ADD MSTORE PUSH16 0x4D41585F57495448445241575F464545 PUSH1 0x80 SHL PUSH1 0x64 DUP3 ADD MSTORE PUSH1 0x84 ADD PUSH2 0x602 JUMP JUMPDEST PUSH1 0x8 SSTORE JUMP JUMPDEST PUSH1 0x0 SLOAD PUSH1 0x1 PUSH1 0xA0 SHL SWAP1 DIV PUSH1 0xFF AND ISZERO PUSH2 0x12F1 JUMPI PUSH1 0x40 MLOAD PUSH3 0x461BCD PUSH1 0xE5 SHL DUP2 MSTORE PUSH1 0x4 ADD PUSH2 0x602 SWAP1 PUSH2 0x20EA JUMP JUMPDEST CALLER EXTCODESIZE ISZERO PUSH2 0x1310 JUMPI PUSH1 0x40 MLOAD PUSH3 0x461BCD PUSH1 0xE5 SHL DUP2 MSTORE PUSH1 0x4 ADD PUSH2 0x602 SWAP1 PUSH2 0x2149 JUMP JUMPDEST CALLER ORIGIN EQ PUSH2 0x132F JUMPI PUSH1 0x40 MLOAD PUSH3 0x461BCD PUSH1 0xE5 SHL DUP2 MSTORE PUSH1 0x4 ADD PUSH2 0x602 SWAP1 PUSH2 0x20B3 JUMP JUMPDEST PUSH1 0x0 DUP2 GT PUSH2 0x1374 JUMPI PUSH1 0x40 MLOAD PUSH3 0x461BCD PUSH1 0xE5 SHL DUP2 MSTORE PUSH1 0x20 PUSH1 0x4 DUP3 ADD MSTORE PUSH1 0x12 PUSH1 0x24 DUP3 ADD MSTORE PUSH18 0x139BDD1A1A5B99C81D1BC819195C1BDCDA5D PUSH1 0x72 SHL PUSH1 0x44 DUP3 ADD MSTORE PUSH1 0x64 ADD PUSH2 0x602 JUMP JUMPDEST PUSH1 0x0 PUSH2 0x137E PUSH2 0xF16 JUMP JUMPDEST SWAP1 POP PUSH2 0x13B5 PUSH1 0x1 PUSH1 0x1 PUSH1 0xA0 SHL SUB PUSH32 0x0 AND CALLER ADDRESS DUP6 PUSH2 0x1D58 JUMP JUMPDEST PUSH1 0x0 PUSH1 0x2 SLOAD PUSH1 0x0 EQ PUSH2 0x13E1 JUMPI PUSH2 0x13DA DUP3 PUSH2 0x5CB PUSH1 0x2 SLOAD DUP7 PUSH2 0x1A60 SWAP1 SWAP2 SWAP1 PUSH4 0xFFFFFFFF AND JUMP JUMPDEST SWAP1 POP PUSH2 0x13E4 JUMP JUMPDEST POP DUP2 JUMPDEST CALLER PUSH1 0x0 SWAP1 DUP2 MSTORE PUSH1 0x1 PUSH1 0x20 MSTORE PUSH1 0x40 SWAP1 KECCAK256 DUP1 SLOAD PUSH2 0x13FF SWAP1 DUP4 PUSH2 0x1A01 JUMP JUMPDEST DUP2 SSTORE TIMESTAMP PUSH1 0x1 DUP3 ADD SSTORE PUSH1 0x2 SLOAD PUSH2 0x1414 SWAP1 DUP4 PUSH2 0x1A01 JUMP JUMPDEST PUSH1 0x2 DUP2 SWAP1 SSTORE PUSH2 0x1430 SWAP1 PUSH2 0x5CB PUSH2 0x1428 PUSH2 0xF16 JUMP JUMPDEST DUP5 SLOAD SWAP1 PUSH2 0x1A60 JUMP JUMPDEST PUSH1 0x2 DUP3 ADD SSTORE TIMESTAMP PUSH1 0x3 DUP3 ADD SSTORE PUSH2 0x1443 PUSH2 0x1C63 JUMP JUMPDEST PUSH1 0x40 DUP1 MLOAD DUP6 DUP2 MSTORE PUSH1 0x20 DUP2 ADD DUP5 SWAP1 MSTORE TIMESTAMP SWAP2 DUP2 ADD SWAP2 SWAP1 SWAP2 MSTORE CALLER SWAP1 PUSH32 0x36AF321EC8D3C75236829C5317AFFD40DDB308863A1236D2D277A4025CCCEE1E SWAP1 PUSH1 0x60 ADD PUSH2 0xA26 JUMP JUMPDEST PUSH1 0x4 SLOAD PUSH1 0x1 PUSH1 0x1 PUSH1 0xA0 SHL SUB AND CALLER EQ PUSH2 0x14AF JUMPI PUSH1 0x40 MLOAD PUSH3 0x461BCD PUSH1 0xE5 SHL DUP2 MSTORE PUSH1 0x4 ADD PUSH2 0x602 SWAP1 PUSH2 0x2177 JUMP JUMPDEST PUSH1 0x40 MLOAD PUSH4 0x29897547 PUSH1 0xE1 SHL DUP2 MSTORE PUSH1 0x0 PUSH1 0x4 DUP3 ADD MSTORE PUSH32 0x0 PUSH1 0x1 PUSH1 0x1 PUSH1 0xA0 SHL SUB AND SWAP1 PUSH4 0x5312EA8E SWAP1 PUSH1 0x24 ADD PUSH1 0x0 PUSH1 0x40 MLOAD DUP1 DUP4 SUB DUP2 PUSH1 0x0 DUP8 DUP1 EXTCODESIZE ISZERO DUP1 ISZERO PUSH2 0x1511 JUMPI PUSH1 0x0 DUP1 REVERT JUMPDEST POP GAS CALL ISZERO DUP1 ISZERO PUSH2 0x1525 JUMPI RETURNDATASIZE PUSH1 0x0 DUP1 RETURNDATACOPY RETURNDATASIZE PUSH1 0x0 REVERT JUMPDEST POP POP POP POP JUMP JUMPDEST PUSH1 0x4 SLOAD PUSH1 0x1 PUSH1 0x1 PUSH1 0xA0 SHL SUB AND CALLER EQ PUSH2 0x1555 JUMPI PUSH1 0x40 MLOAD PUSH3 0x461BCD PUSH1 0xE5 SHL DUP2 MSTORE PUSH1 0x4 ADD PUSH2 0x602 SWAP1 PUSH2 0x2177 JUMP JUMPDEST PUSH32 0x0 PUSH1 0x1 PUSH1 0x1 PUSH1 0xA0 SHL SUB AND DUP2 PUSH1 0x1 PUSH1 0x1 PUSH1 0xA0 SHL SUB AND EQ ISZERO PUSH2 0x15E5 JUMPI PUSH1 0x40 MLOAD PUSH3 0x461BCD PUSH1 0xE5 SHL DUP2 MSTORE PUSH1 0x20 PUSH1 0x4 DUP3 ADD MSTORE PUSH1 0x25 PUSH1 0x24 DUP3 ADD MSTORE PUSH32 0x546F6B656E2063616E6E6F742062652073616D65206173206465706F73697420 PUSH1 0x44 DUP3 ADD MSTORE PUSH5 0x3A37B5B2B7 PUSH1 0xD9 SHL PUSH1 0x64 DUP3 ADD MSTORE PUSH1 0x84 ADD PUSH2 0x602 JUMP JUMPDEST PUSH32 0x0 PUSH1 0x1 PUSH1 0x1 PUSH1 0xA0 SHL SUB AND DUP2 PUSH1 0x1 PUSH1 0x1 PUSH1 0xA0 SHL SUB AND EQ ISZERO PUSH2 0x1675 JUMPI PUSH1 0x40 MLOAD PUSH3 0x461BCD PUSH1 0xE5 SHL DUP2 MSTORE PUSH1 0x20 PUSH1 0x4 DUP3 ADD MSTORE PUSH1 0x25 PUSH1 0x24 DUP3 ADD MSTORE PUSH32 0x546F6B656E2063616E6E6F742062652073616D65206173207265636569707420 PUSH1 0x44 DUP3 ADD MSTORE PUSH5 0x3A37B5B2B7 PUSH1 0xD9 SHL PUSH1 0x64 DUP3 ADD MSTORE PUSH1 0x84 ADD PUSH2 0x602 JUMP JUMPDEST PUSH1 0x40 MLOAD PUSH4 0x70A08231 PUSH1 0xE0 SHL DUP2 MSTORE ADDRESS PUSH1 0x4 DUP3 ADD MSTORE PUSH1 0x0 SWAP1 PUSH1 0x1 PUSH1 0x1 PUSH1 0xA0 SHL SUB DUP4 AND SWAP1 PUSH4 0x70A08231 SWAP1 PUSH1 0x24 ADD PUSH1 0x20 PUSH1 0x40 MLOAD DUP1 DUP4 SUB DUP2 DUP7 DUP1 EXTCODESIZE ISZERO DUP1 ISZERO PUSH2 0x16B7 JUMPI PUSH1 0x0 DUP1 REVERT JUMPDEST POP GAS STATICCALL ISZERO DUP1 ISZERO PUSH2 0x16CB JUMPI RETURNDATASIZE PUSH1 0x0 DUP1 RETURNDATACOPY RETURNDATASIZE PUSH1 0x0 REVERT JUMPDEST POP POP POP POP PUSH1 0x40 MLOAD RETURNDATASIZE PUSH1 0x1F NOT PUSH1 0x1F DUP3 ADD AND DUP3 ADD DUP1 PUSH1 0x40 MSTORE POP DUP2 ADD SWAP1 PUSH2 0x16EF SWAP2 SWAP1 PUSH2 0x2027 JUMP JUMPDEST SWAP1 POP PUSH2 0x1705 PUSH1 0x1 PUSH1 0x1 PUSH1 0xA0 SHL SUB DUP4 AND CALLER DUP4 PUSH2 0x1B96 JUMP JUMPDEST POP POP JUMP JUMPDEST PUSH1 0x0 SLOAD PUSH1 0x1 PUSH1 0x1 PUSH1 0xA0 SHL SUB AND CALLER EQ PUSH2 0x1733 JUMPI PUSH1 0x40 MLOAD PUSH3 0x461BCD PUSH1 0xE5 SHL DUP2 MSTORE PUSH1 0x4 ADD PUSH2 0x602 SWAP1 PUSH2 0x2114 JUMP JUMPDEST PUSH1 0x1 PUSH1 0x1 PUSH1 0xA0 SHL SUB DUP2 AND PUSH2 0x1782 JUMPI PUSH1 0x40 MLOAD PUSH3 0x461BCD PUSH1 0xE5 SHL DUP2 MSTORE PUSH1 0x20 PUSH1 0x4 DUP3 ADD MSTORE PUSH1 0x16 PUSH1 0x24 DUP3 ADD MSTORE PUSH22 0x43616E6E6F74206265207A65726F2061646472657373 PUSH1 0x50 SHL PUSH1 0x44 DUP3 ADD MSTORE PUSH1 0x64 ADD PUSH2 0x602 JUMP JUMPDEST PUSH1 0x5 DUP1 SLOAD PUSH1 0x1 PUSH1 0x1 PUSH1 0xA0 SHL SUB NOT AND PUSH1 0x1 PUSH1 0x1 PUSH1 0xA0 SHL SUB SWAP3 SWAP1 SWAP3 AND SWAP2 SWAP1 SWAP2 OR SWAP1 SSTORE JUMP JUMPDEST PUSH1 0x0 SLOAD PUSH1 0x1 PUSH1 0x1 PUSH1 0xA0 SHL SUB AND CALLER EQ PUSH2 0x17CE JUMPI PUSH1 0x40 MLOAD PUSH3 0x461BCD PUSH1 0xE5 SHL DUP2 MSTORE PUSH1 0x4 ADD PUSH2 0x602 SWAP1 PUSH2 0x2114 JUMP JUMPDEST PUSH1 0x1 PUSH1 0x1 PUSH1 0xA0 SHL SUB DUP2 AND PUSH2 0x1833 JUMPI PUSH1 0x40 MLOAD PUSH3 0x461BCD PUSH1 0xE5 SHL DUP2 MSTORE PUSH1 0x20 PUSH1 0x4 DUP3 ADD MSTORE PUSH1 0x26 PUSH1 0x24 DUP3 ADD MSTORE PUSH32 0x4F776E61626C653A206E6577206F776E657220697320746865207A65726F2061 PUSH1 0x44 DUP3 ADD MSTORE PUSH6 0x646472657373 PUSH1 0xD0 SHL PUSH1 0x64 DUP3 ADD MSTORE PUSH1 0x84 ADD PUSH2 0x602 JUMP JUMPDEST PUSH1 0x0 DUP1 SLOAD PUSH1 0x40 MLOAD PUSH1 0x1 PUSH1 0x1 PUSH1 0xA0 SHL SUB DUP1 DUP6 AND SWAP4 SWAP3 AND SWAP2 PUSH32 0x8BE0079C531659141344CD1FD0A4F28419497F9722A3DAAFE3B4186F6B6457E0 SWAP2 LOG3 PUSH1 0x0 DUP1 SLOAD PUSH1 0x1 PUSH1 0x1 PUSH1 0xA0 SHL SUB NOT AND PUSH1 0x1 PUSH1 0x1 PUSH1 0xA0 SHL SUB SWAP3 SWAP1 SWAP3 AND SWAP2 SWAP1 SWAP2 OR SWAP1 SSTORE JUMP JUMPDEST DUP1 ISZERO DUP1 PUSH2 0x1917 JUMPI POP PUSH1 0x40 MLOAD PUSH4 0x6EB1769F PUSH1 0xE1 SHL DUP2 MSTORE ADDRESS PUSH1 0x4 DUP3 ADD MSTORE PUSH1 0x1 PUSH1 0x1 PUSH1 0xA0 SHL SUB DUP4 DUP2 AND PUSH1 0x24 DUP4 ADD MSTORE DUP5 AND SWAP1 PUSH4 0xDD62ED3E SWAP1 PUSH1 0x44 ADD PUSH1 0x20 PUSH1 0x40 MLOAD DUP1 DUP4 SUB DUP2 DUP7 DUP1 EXTCODESIZE ISZERO DUP1 ISZERO PUSH2 0x18DD JUMPI PUSH1 0x0 DUP1 REVERT JUMPDEST POP GAS STATICCALL ISZERO DUP1 ISZERO PUSH2 0x18F1 JUMPI RETURNDATASIZE PUSH1 0x0 DUP1 RETURNDATACOPY RETURNDATASIZE PUSH1 0x0 REVERT JUMPDEST POP POP POP POP PUSH1 0x40 MLOAD RETURNDATASIZE PUSH1 0x1F NOT PUSH1 0x1F DUP3 ADD AND DUP3 ADD DUP1 PUSH1 0x40 MSTORE POP DUP2 ADD SWAP1 PUSH2 0x1915 SWAP2 SWAP1 PUSH2 0x2027 JUMP JUMPDEST ISZERO JUMPDEST PUSH2 0x1982 JUMPI PUSH1 0x40 MLOAD PUSH3 0x461BCD PUSH1 0xE5 SHL DUP2 MSTORE PUSH1 0x20 PUSH1 0x4 DUP3 ADD MSTORE PUSH1 0x36 PUSH1 0x24 DUP3 ADD MSTORE PUSH32 0x5361666545524332303A20617070726F76652066726F6D206E6F6E2D7A65726F PUSH1 0x44 DUP3 ADD MSTORE PUSH22 0x20746F206E6F6E2D7A65726F20616C6C6F77616E6365 PUSH1 0x50 SHL PUSH1 0x64 DUP3 ADD MSTORE PUSH1 0x84 ADD PUSH2 0x602 JUMP JUMPDEST PUSH1 0x40 MLOAD PUSH1 0x1 PUSH1 0x1 PUSH1 0xA0 SHL SUB DUP4 AND PUSH1 0x24 DUP3 ADD MSTORE PUSH1 0x44 DUP2 ADD DUP3 SWAP1 MSTORE PUSH2 0x19E5 SWAP1 DUP5 SWAP1 PUSH4 0x95EA7B3 PUSH1 0xE0 SHL SWAP1 PUSH1 0x64 ADD JUMPDEST PUSH1 0x40 DUP1 MLOAD PUSH1 0x1F NOT DUP2 DUP5 SUB ADD DUP2 MSTORE SWAP2 SWAP1 MSTORE PUSH1 0x20 DUP2 ADD DUP1 MLOAD PUSH1 0x1 PUSH1 0x1 PUSH1 0xE0 SHL SUB AND PUSH1 0x1 PUSH1 0x1 PUSH1 0xE0 SHL SUB NOT SWAP1 SWAP4 AND SWAP3 SWAP1 SWAP3 OR SWAP1 SWAP2 MSTORE PUSH2 0x1D90 JUMP JUMPDEST POP POP POP JUMP JUMPDEST PUSH1 0x60 PUSH2 0x19F9 DUP5 DUP5 PUSH1 0x0 DUP6 PUSH2 0x1E62 JUMP JUMPDEST SWAP5 SWAP4 POP POP POP POP JUMP JUMPDEST PUSH1 0x0 DUP1 PUSH2 0x1A0E DUP4 DUP6 PUSH2 0x219C JUMP JUMPDEST SWAP1 POP DUP4 DUP2 LT ISZERO PUSH2 0x5D1 JUMPI PUSH1 0x40 MLOAD PUSH3 0x461BCD PUSH1 0xE5 SHL DUP2 MSTORE PUSH1 0x20 PUSH1 0x4 DUP3 ADD MSTORE PUSH1 0x1B PUSH1 0x24 DUP3 ADD MSTORE PUSH32 0x536166654D6174683A206164646974696F6E206F766572666C6F770000000000 PUSH1 0x44 DUP3 ADD MSTORE PUSH1 0x64 ADD PUSH2 0x602 JUMP JUMPDEST PUSH1 0x0 DUP3 PUSH2 0x1A6F JUMPI POP PUSH1 0x0 PUSH2 0x1228 JUMP JUMPDEST PUSH1 0x0 PUSH2 0x1A7B DUP4 DUP6 PUSH2 0x21D6 JUMP JUMPDEST SWAP1 POP DUP3 PUSH2 0x1A88 DUP6 DUP4 PUSH2 0x21B4 JUMP JUMPDEST EQ PUSH2 0x5D1 JUMPI PUSH1 0x40 MLOAD PUSH3 0x461BCD PUSH1 0xE5 SHL DUP2 MSTORE PUSH1 0x20 PUSH1 0x4 DUP3 ADD MSTORE PUSH1 0x21 PUSH1 0x24 DUP3 ADD MSTORE PUSH32 0x536166654D6174683A206D756C7469706C69636174696F6E206F766572666C6F PUSH1 0x44 DUP3 ADD MSTORE PUSH1 0x77 PUSH1 0xF8 SHL PUSH1 0x64 DUP3 ADD MSTORE PUSH1 0x84 ADD PUSH2 0x602 JUMP JUMPDEST PUSH1 0x0 DUP1 DUP3 GT PUSH2 0x1B30 JUMPI PUSH1 0x40 MLOAD PUSH3 0x461BCD PUSH1 0xE5 SHL DUP2 MSTORE PUSH1 0x20 PUSH1 0x4 DUP3 ADD MSTORE PUSH1 0x1A PUSH1 0x24 DUP3 ADD MSTORE PUSH32 0x536166654D6174683A206469766973696F6E206279207A65726F000000000000 PUSH1 0x44 DUP3 ADD MSTORE PUSH1 0x64 ADD PUSH2 0x602 JUMP JUMPDEST PUSH2 0x5D1 DUP3 DUP5 PUSH2 0x21B4 JUMP JUMPDEST PUSH1 0x0 DUP3 DUP3 GT ISZERO PUSH2 0x1B8C JUMPI PUSH1 0x40 MLOAD PUSH3 0x461BCD PUSH1 0xE5 SHL DUP2 MSTORE PUSH1 0x20 PUSH1 0x4 DUP3 ADD MSTORE PUSH1 0x1E PUSH1 0x24 DUP3 ADD MSTORE PUSH32 0x536166654D6174683A207375627472616374696F6E206F766572666C6F770000 PUSH1 0x44 DUP3 ADD MSTORE PUSH1 0x64 ADD PUSH2 0x602 JUMP JUMPDEST PUSH2 0x5D1 DUP3 DUP5 PUSH2 0x21F5 JUMP JUMPDEST PUSH1 0x40 MLOAD PUSH1 0x1 PUSH1 0x1 PUSH1 0xA0 SHL SUB DUP4 AND PUSH1 0x24 DUP3 ADD MSTORE PUSH1 0x44 DUP2 ADD DUP3 SWAP1 MSTORE PUSH2 0x19E5 SWAP1 DUP5 SWAP1 PUSH4 0xA9059CBB PUSH1 0xE0 SHL SWAP1 PUSH1 0x64 ADD PUSH2 0x19AE JUMP JUMPDEST PUSH1 0x0 SLOAD PUSH1 0x1 PUSH1 0xA0 SHL SWAP1 DIV PUSH1 0xFF AND PUSH2 0x1C16 JUMPI PUSH1 0x40 MLOAD PUSH3 0x461BCD PUSH1 0xE5 SHL DUP2 MSTORE PUSH1 0x20 PUSH1 0x4 DUP3 ADD MSTORE PUSH1 0x14 PUSH1 0x24 DUP3 ADD MSTORE PUSH20 0x14185D5CD8589B194E881B9BDD081C185D5CD959 PUSH1 0x62 SHL PUSH1 0x44 DUP3 ADD MSTORE PUSH1 0x64 ADD PUSH2 0x602 JUMP JUMPDEST PUSH1 0x0 DUP1 SLOAD PUSH1 0xFF PUSH1 0xA0 SHL NOT AND SWAP1 SSTORE PUSH32 0x5DB9EE0A495BF2E6FF9C91A7834C1BA4FDD244A5E8AA4E537BD38AEAE4B073AA CALLER JUMPDEST PUSH1 0x40 MLOAD PUSH1 0x1 PUSH1 0x1 PUSH1 0xA0 SHL SUB SWAP1 SWAP2 AND DUP2 MSTORE PUSH1 0x20 ADD PUSH1 0x40 MLOAD DUP1 SWAP2 SUB SWAP1 LOG1 JUMP JUMPDEST PUSH1 0x0 PUSH2 0x1C6D PUSH2 0xCC8 JUMP JUMPDEST SWAP1 POP DUP1 ISZERO PUSH2 0x1CF0 JUMPI PUSH1 0x40 MLOAD PUSH4 0x41441D3B PUSH1 0xE0 SHL DUP2 MSTORE PUSH1 0x4 DUP2 ADD DUP3 SWAP1 MSTORE PUSH32 0x0 PUSH1 0x1 PUSH1 0x1 PUSH1 0xA0 SHL SUB AND SWAP1 PUSH4 0x41441D3B SWAP1 PUSH1 0x24 ADD PUSH1 0x0 PUSH1 0x40 MLOAD DUP1 DUP4 SUB DUP2 PUSH1 0x0 DUP8 DUP1 EXTCODESIZE ISZERO DUP1 ISZERO PUSH2 0x1CD7 JUMPI PUSH1 0x0 DUP1 REVERT JUMPDEST POP GAS CALL ISZERO DUP1 ISZERO PUSH2 0x1CEB JUMPI RETURNDATASIZE PUSH1 0x0 DUP1 RETURNDATACOPY RETURNDATASIZE PUSH1 0x0 REVERT JUMPDEST POP POP POP POP JUMPDEST POP JUMP JUMPDEST PUSH1 0x0 SLOAD PUSH1 0x1 PUSH1 0xA0 SHL SWAP1 DIV PUSH1 0xFF AND ISZERO PUSH2 0x1D1D JUMPI PUSH1 0x40 MLOAD PUSH3 0x461BCD PUSH1 0xE5 SHL DUP2 MSTORE PUSH1 0x4 ADD PUSH2 0x602 SWAP1 PUSH2 0x20EA JUMP JUMPDEST PUSH1 0x0 DUP1 SLOAD PUSH1 0xFF PUSH1 0xA0 SHL NOT AND PUSH1 0x1 PUSH1 0xA0 SHL OR SWAP1 SSTORE PUSH32 0x62E78CEA01BEE320CD4E420270B5EA74000D11B0C9F74754EBDBFC544B05A258 PUSH2 0x1C46 CALLER SWAP1 JUMP JUMPDEST PUSH1 0x40 MLOAD PUSH1 0x1 PUSH1 0x1 PUSH1 0xA0 SHL SUB DUP1 DUP6 AND PUSH1 0x24 DUP4 ADD MSTORE DUP4 AND PUSH1 0x44 DUP3 ADD MSTORE PUSH1 0x64 DUP2 ADD DUP3 SWAP1 MSTORE PUSH2 0x1525 SWAP1 DUP6 SWAP1 PUSH4 0x23B872DD PUSH1 0xE0 SHL SWAP1 PUSH1 0x84 ADD PUSH2 0x19AE JUMP JUMPDEST PUSH1 0x0 PUSH2 0x1DE5 DUP3 PUSH1 0x40 MLOAD DUP1 PUSH1 0x40 ADD PUSH1 0x40 MSTORE DUP1 PUSH1 0x20 DUP2 MSTORE PUSH1 0x20 ADD PUSH32 0x5361666545524332303A206C6F772D6C6576656C2063616C6C206661696C6564 DUP2 MSTORE POP DUP6 PUSH1 0x1 PUSH1 0x1 PUSH1 0xA0 SHL SUB AND PUSH2 0x19EA SWAP1 SWAP3 SWAP2 SWAP1 PUSH4 0xFFFFFFFF AND JUMP JUMPDEST DUP1 MLOAD SWAP1 SWAP2 POP ISZERO PUSH2 0x19E5 JUMPI DUP1 DUP1 PUSH1 0x20 ADD SWAP1 MLOAD DUP2 ADD SWAP1 PUSH2 0x1E03 SWAP2 SWAP1 PUSH2 0x1FEC JUMP JUMPDEST PUSH2 0x19E5 JUMPI PUSH1 0x40 MLOAD PUSH3 0x461BCD PUSH1 0xE5 SHL DUP2 MSTORE PUSH1 0x20 PUSH1 0x4 DUP3 ADD MSTORE PUSH1 0x2A PUSH1 0x24 DUP3 ADD MSTORE PUSH32 0x5361666545524332303A204552433230206F7065726174696F6E20646964206E PUSH1 0x44 DUP3 ADD MSTORE PUSH10 0x1BDD081CDD58D8D95959 PUSH1 0xB2 SHL PUSH1 0x64 DUP3 ADD MSTORE PUSH1 0x84 ADD PUSH2 0x602 JUMP JUMPDEST PUSH1 0x60 DUP3 SELFBALANCE LT ISZERO PUSH2 0x1EC3 JUMPI PUSH1 0x40 MLOAD PUSH3 0x461BCD PUSH1 0xE5 SHL DUP2 MSTORE PUSH1 0x20 PUSH1 0x4 DUP3 ADD MSTORE PUSH1 0x26 PUSH1 0x24 DUP3 ADD MSTORE PUSH32 0x416464726573733A20696E73756666696369656E742062616C616E636520666F PUSH1 0x44 DUP3 ADD MSTORE PUSH6 0x1C8818D85B1B PUSH1 0xD2 SHL PUSH1 0x64 DUP3 ADD MSTORE PUSH1 0x84 ADD PUSH2 0x602 JUMP JUMPDEST DUP5 EXTCODESIZE PUSH2 0x1F11 JUMPI PUSH1 0x40 MLOAD PUSH3 0x461BCD PUSH1 0xE5 SHL DUP2 MSTORE PUSH1 0x20 PUSH1 0x4 DUP3 ADD MSTORE PUSH1 0x1D PUSH1 0x24 DUP3 ADD MSTORE PUSH32 0x416464726573733A2063616C6C20746F206E6F6E2D636F6E7472616374000000 PUSH1 0x44 DUP3 ADD MSTORE PUSH1 0x64 ADD PUSH2 0x602 JUMP JUMPDEST PUSH1 0x0 DUP1 DUP7 PUSH1 0x1 PUSH1 0x1 PUSH1 0xA0 SHL SUB AND DUP6 DUP8 PUSH1 0x40 MLOAD PUSH2 0x1F2D SWAP2 SWAP1 PUSH2 0x2064 JUMP JUMPDEST PUSH1 0x0 PUSH1 0x40 MLOAD DUP1 DUP4 SUB DUP2 DUP6 DUP8 GAS CALL SWAP3 POP POP POP RETURNDATASIZE DUP1 PUSH1 0x0 DUP2 EQ PUSH2 0x1F6A JUMPI PUSH1 0x40 MLOAD SWAP2 POP PUSH1 0x1F NOT PUSH1 0x3F RETURNDATASIZE ADD AND DUP3 ADD PUSH1 0x40 MSTORE RETURNDATASIZE DUP3 MSTORE RETURNDATASIZE PUSH1 0x0 PUSH1 0x20 DUP5 ADD RETURNDATACOPY PUSH2 0x1F6F JUMP JUMPDEST PUSH1 0x60 SWAP2 POP JUMPDEST POP SWAP2 POP SWAP2 POP PUSH2 0x1F7F DUP3 DUP3 DUP7 PUSH2 0x1F8A JUMP JUMPDEST SWAP8 SWAP7 POP POP POP POP POP POP POP JUMP JUMPDEST PUSH1 0x60 DUP4 ISZERO PUSH2 0x1F99 JUMPI POP DUP2 PUSH2 0x5D1 JUMP JUMPDEST DUP3 MLOAD ISZERO PUSH2 0x1FA9 JUMPI DUP3 MLOAD DUP1 DUP5 PUSH1 0x20 ADD REVERT JUMPDEST DUP2 PUSH1 0x40 MLOAD PUSH3 0x461BCD PUSH1 0xE5 SHL DUP2 MSTORE PUSH1 0x4 ADD PUSH2 0x602 SWAP2 SWAP1 PUSH2 0x2080 JUMP JUMPDEST PUSH1 0x0 PUSH1 0x20 DUP3 DUP5 SUB SLT ISZERO PUSH2 0x1FD5 JUMPI PUSH1 0x0 DUP1 REVERT JUMPDEST DUP2 CALLDATALOAD PUSH1 0x1 PUSH1 0x1 PUSH1 0xA0 SHL SUB DUP2 AND DUP2 EQ PUSH2 0x5D1 JUMPI PUSH1 0x0 DUP1 REVERT JUMPDEST PUSH1 0x0 PUSH1 0x20 DUP3 DUP5 SUB SLT ISZERO PUSH2 0x1FFE JUMPI PUSH1 0x0 DUP1 REVERT JUMPDEST DUP2 MLOAD DUP1 ISZERO ISZERO DUP2 EQ PUSH2 0x5D1 JUMPI PUSH1 0x0 DUP1 REVERT JUMPDEST PUSH1 0x0 PUSH1 0x20 DUP3 DUP5 SUB SLT ISZERO PUSH2 0x2020 JUMPI PUSH1 0x0 DUP1 REVERT JUMPDEST POP CALLDATALOAD SWAP2 SWAP1 POP JUMP JUMPDEST PUSH1 0x0 PUSH1 0x20 DUP3 DUP5 SUB SLT ISZERO PUSH2 0x2039 JUMPI PUSH1 0x0 DUP1 REVERT JUMPDEST POP MLOAD SWAP2 SWAP1 POP JUMP JUMPDEST PUSH1 0x0 DUP1 PUSH1 0x40 DUP4 DUP6 SUB SLT ISZERO PUSH2 0x2053 JUMPI PUSH1 0x0 DUP1 REVERT JUMPDEST POP POP DUP1 MLOAD PUSH1 0x20 SWAP1 SWAP2 ADD MLOAD SWAP1 SWAP3 SWAP1 SWAP2 POP JUMP JUMPDEST PUSH1 0x0 DUP3 MLOAD PUSH2 0x2076 DUP2 DUP5 PUSH1 0x20 DUP8 ADD PUSH2 0x220C JUMP JUMPDEST SWAP2 SWAP1 SWAP2 ADD SWAP3 SWAP2 POP POP JUMP JUMPDEST PUSH1 0x20 DUP2 MSTORE PUSH1 0x0 DUP3 MLOAD DUP1 PUSH1 0x20 DUP5 ADD MSTORE PUSH2 0x209F DUP2 PUSH1 0x40 DUP6 ADD PUSH1 0x20 DUP8 ADD PUSH2 0x220C JUMP JUMPDEST PUSH1 0x1F ADD PUSH1 0x1F NOT AND SWAP2 SWAP1 SWAP2 ADD PUSH1 0x40 ADD SWAP3 SWAP2 POP POP JUMP JUMPDEST PUSH1 0x20 DUP1 DUP3 MSTORE PUSH1 0x1A SWAP1 DUP3 ADD MSTORE PUSH32 0x70726F787920636F6E7472616374206E6F7420616C6C6F776564000000000000 PUSH1 0x40 DUP3 ADD MSTORE PUSH1 0x60 ADD SWAP1 JUMP JUMPDEST PUSH1 0x20 DUP1 DUP3 MSTORE PUSH1 0x10 SWAP1 DUP3 ADD MSTORE PUSH16 0x14185D5CD8589B194E881C185D5CD959 PUSH1 0x82 SHL PUSH1 0x40 DUP3 ADD MSTORE PUSH1 0x60 ADD SWAP1 JUMP JUMPDEST PUSH1 0x20 DUP1 DUP3 MSTORE DUP2 DUP2 ADD MSTORE PUSH32 0x4F776E61626C653A2063616C6C6572206973206E6F7420746865206F776E6572 PUSH1 0x40 DUP3 ADD MSTORE PUSH1 0x60 ADD SWAP1 JUMP JUMPDEST PUSH1 0x20 DUP1 DUP3 MSTORE PUSH1 0x14 SWAP1 DUP3 ADD MSTORE PUSH20 0x18DBDB9D1C9858DD081B9BDD08185B1B1BDDD959 PUSH1 0x62 SHL PUSH1 0x40 DUP3 ADD MSTORE PUSH1 0x60 ADD SWAP1 JUMP JUMPDEST PUSH1 0x20 DUP1 DUP3 MSTORE PUSH1 0xB SWAP1 DUP3 ADD MSTORE PUSH11 0x61646D696E3A207775743F PUSH1 0xA8 SHL PUSH1 0x40 DUP3 ADD MSTORE PUSH1 0x60 ADD SWAP1 JUMP JUMPDEST PUSH1 0x0 DUP3 NOT DUP3 GT ISZERO PUSH2 0x21AF JUMPI PUSH2 0x21AF PUSH2 0x2238 JUMP JUMPDEST POP ADD SWAP1 JUMP JUMPDEST PUSH1 0x0 DUP3 PUSH2 0x21D1 JUMPI PUSH4 0x4E487B71 PUSH1 0xE0 SHL PUSH1 0x0 MSTORE PUSH1 0x12 PUSH1 0x4 MSTORE PUSH1 0x24 PUSH1 0x0 REVERT JUMPDEST POP DIV SWAP1 JUMP JUMPDEST PUSH1 0x0 DUP2 PUSH1 0x0 NOT DIV DUP4 GT DUP3 ISZERO ISZERO AND ISZERO PUSH2 0x21F0 JUMPI PUSH2 0x21F0 PUSH2 0x2238 JUMP JUMPDEST POP MUL SWAP1 JUMP JUMPDEST PUSH1 0x0 DUP3 DUP3 LT ISZERO PUSH2 0x2207 JUMPI PUSH2 0x2207 PUSH2 0x2238 JUMP JUMPDEST POP SUB SWAP1 JUMP JUMPDEST PUSH1 0x0 JUMPDEST DUP4 DUP2 LT ISZERO PUSH2 0x2227 JUMPI DUP2 DUP2 ADD MLOAD DUP4 DUP3 ADD MSTORE PUSH1 0x20 ADD PUSH2 0x220F JUMP JUMPDEST DUP4 DUP2 GT ISZERO PUSH2 0x1525 JUMPI POP POP PUSH1 0x0 SWAP2 ADD MSTORE JUMP JUMPDEST PUSH4 0x4E487B71 PUSH1 0xE0 SHL PUSH1 0x0 MSTORE PUSH1 0x11 PUSH1 0x4 MSTORE PUSH1 0x24 PUSH1 0x0 REVERT INVALID LOG2 PUSH5 0x6970667358 0x22 SLT KECCAK256 PUSH16 0x513A3DC4B97CDC2FB8E774DBD05DCD21 0xDD 0xE0 TIMESTAMP SWAP13 0xDE PUSH15 0xA08542C29049DC0C7664736F6C6343 STOP ADDMOD MOD STOP CALLER "
		},
		"gasEstimates": {
			"creation": {
				"codeDepositCost": "1767200",
				"executionCost": "infinite",
				"totalCost": "infinite"
			},
			"external": {
				"MAX_CALL_FEE()": "230",
				"MAX_PERFORMANCE_FEE()": "295",
				"MAX_WITHDRAW_FEE()": "317",
				"MAX_WITHDRAW_FEE_PERIOD()": "252",
				"admin()": "2425",
				"available()": "infinite",
				"balanceOf()": "infinite",
				"calculateHarvestRedBerryRewards()": "infinite",
				"calculateTotalPendingRedBerryRewards()": "infinite",
				"callFee()": "2396",
				"deposit(uint256)": "infinite",
				"emergencyWithdraw()": "infinite",
				"getPricePerFullShare()": "infinite",
				"harvest()": "infinite",
				"inCaseTokensGetStuck(address)": "infinite",
				"lastHarvestedTime()": "2329",
				"masterchef()": "infinite",
				"owner()": "2421",
				"pause()": "32823",
				"paused()": "2399",
				"performanceFee()": "2352",
				"receiptToken()": "infinite",
				"renounceOwnership()": "30232",
				"setAdmin(address)": "26845",
				"setCallFee(uint256)": "24603",
				"setPerformanceFee(uint256)": "24535",
				"setTreasury(address)": "26755",
				"setWithdrawFee(uint256)": "24557",
				"setWithdrawFeePeriod(uint256)": "24581",
				"token()": "infinite",
				"totalShares()": "2396",
				"transferOwnership(address)": "30431",
				"treasury()": "2449",
				"unpause()": "32792",
				"userInfo(address)": "8961",
				"withdraw(uint256)": "infinite",
				"withdrawAll()": "infinite",
				"withdrawFee()": "2395",
				"withdrawFeePeriod()": "2373"
			},
			"internal": {
				"_earn()": "infinite",
				"_isContract(address)": "infinite"
			}
		},
		"methodIdentifiers": {
			"MAX_CALL_FEE()": "2ad5a53f",
			"MAX_PERFORMANCE_FEE()": "bdca9165",
			"MAX_WITHDRAW_FEE()": "d4b0de2f",
			"MAX_WITHDRAW_FEE_PERIOD()": "2cfc5f01",
			"admin()": "f851a440",
			"available()": "48a0d754",
			"balanceOf()": "722713f7",
			"calculateHarvestRedBerryRewards()": "18b0b108",
			"calculateTotalPendingRedBerryRewards()": "a6eba5d1",
			"callFee()": "90321e1a",
			"deposit(uint256)": "b6b55f25",
			"emergencyWithdraw()": "db2e21bc",
			"getPricePerFullShare()": "77c7b8fc",
			"harvest()": "4641257d",
			"inCaseTokensGetStuck(address)": "def68a9c",
			"lastHarvestedTime()": "b60f0531",
			"masterchef()": "fb1db278",
			"owner()": "8da5cb5b",
			"pause()": "8456cb59",
			"paused()": "5c975abb",
			"performanceFee()": "87788782",
			"receiptToken()": "ec78e832",
			"renounceOwnership()": "715018a6",
			"setAdmin(address)": "704b6c02",
			"setCallFee(uint256)": "26465826",
			"setPerformanceFee(uint256)": "70897b23",
			"setTreasury(address)": "f0f44260",
			"setWithdrawFee(uint256)": "b6ac642a",
			"setWithdrawFeePeriod(uint256)": "1efac1b8",
			"token()": "fc0c546a",
			"totalShares()": "3a98ef39",
			"transferOwnership(address)": "f2fde38b",
			"treasury()": "61d027b3",
			"unpause()": "3f4ba83a",
			"userInfo(address)": "1959a002",
			"withdraw(uint256)": "2e1a7d4d",
			"withdrawAll()": "853828b6",
			"withdrawFee()": "e941fa78",
			"withdrawFeePeriod()": "df10b4e6"
		}
	},
	"abi": [
		{
			"inputs": [
				{
					"internalType": "contract IERC20",
					"name": "_token",
					"type": "address"
				},
				{
					"internalType": "contract IERC20",
					"name": "_receiptToken",
					"type": "address"
				},
				{
					"internalType": "contract IMasterChef",
					"name": "_masterchef",
					"type": "address"
				},
				{
					"internalType": "address",
					"name": "_admin",
					"type": "address"
				},
				{
					"internalType": "address",
					"name": "_treasury",
					"type": "address"
				}
			],
			"stateMutability": "nonpayable",
			"type": "constructor"
		},
		{
			"anonymous": false,
			"inputs": [
				{
					"indexed": true,
					"internalType": "address",
					"name": "sender",
					"type": "address"
				},
				{
					"indexed": false,
					"internalType": "uint256",
					"name": "amount",
					"type": "uint256"
				},
				{
					"indexed": false,
					"internalType": "uint256",
					"name": "shares",
					"type": "uint256"
				},
				{
					"indexed": false,
					"internalType": "uint256",
					"name": "lastDepositedTime",
					"type": "uint256"
				}
			],
			"name": "Deposit",
			"type": "event"
		},
		{
			"anonymous": false,
			"inputs": [
				{
					"indexed": true,
					"internalType": "address",
					"name": "sender",
					"type": "address"
				},
				{
					"indexed": false,
					"internalType": "uint256",
					"name": "performanceFee",
					"type": "uint256"
				},
				{
					"indexed": false,
					"internalType": "uint256",
					"name": "callFee",
					"type": "uint256"
				}
			],
			"name": "Harvest",
			"type": "event"
		},
		{
			"anonymous": false,
			"inputs": [
				{
					"indexed": true,
					"internalType": "address",
					"name": "previousOwner",
					"type": "address"
				},
				{
					"indexed": true,
					"internalType": "address",
					"name": "newOwner",
					"type": "address"
				}
			],
			"name": "OwnershipTransferred",
			"type": "event"
		},
		{
			"anonymous": false,
			"inputs": [],
			"name": "Pause",
			"type": "event"
		},
		{
			"anonymous": false,
			"inputs": [
				{
					"indexed": false,
					"internalType": "address",
					"name": "account",
					"type": "address"
				}
			],
			"name": "Paused",
			"type": "event"
		},
		{
			"anonymous": false,
			"inputs": [],
			"name": "Unpause",
			"type": "event"
		},
		{
			"anonymous": false,
			"inputs": [
				{
					"indexed": false,
					"internalType": "address",
					"name": "account",
					"type": "address"
				}
			],
			"name": "Unpaused",
			"type": "event"
		},
		{
			"anonymous": false,
			"inputs": [
				{
					"indexed": true,
					"internalType": "address",
					"name": "sender",
					"type": "address"
				},
				{
					"indexed": false,
					"internalType": "uint256",
					"name": "amount",
					"type": "uint256"
				},
				{
					"indexed": false,
					"internalType": "uint256",
					"name": "shares",
					"type": "uint256"
				}
			],
			"name": "Withdraw",
			"type": "event"
		},
		{
			"inputs": [],
			"name": "MAX_CALL_FEE",
			"outputs": [
				{
					"internalType": "uint256",
					"name": "",
					"type": "uint256"
				}
			],
			"stateMutability": "view",
			"type": "function"
		},
		{
			"inputs": [],
			"name": "MAX_PERFORMANCE_FEE",
			"outputs": [
				{
					"internalType": "uint256",
					"name": "",
					"type": "uint256"
				}
			],
			"stateMutability": "view",
			"type": "function"
		},
		{
			"inputs": [],
			"name": "MAX_WITHDRAW_FEE",
			"outputs": [
				{
					"internalType": "uint256",
					"name": "",
					"type": "uint256"
				}
			],
			"stateMutability": "view",
			"type": "function"
		},
		{
			"inputs": [],
			"name": "MAX_WITHDRAW_FEE_PERIOD",
			"outputs": [
				{
					"internalType": "uint256",
					"name": "",
					"type": "uint256"
				}
			],
			"stateMutability": "view",
			"type": "function"
		},
		{
			"inputs": [],
			"name": "admin",
			"outputs": [
				{
					"internalType": "address",
					"name": "",
					"type": "address"
				}
			],
			"stateMutability": "view",
			"type": "function"
		},
		{
			"inputs": [],
			"name": "available",
			"outputs": [
				{
					"internalType": "uint256",
					"name": "",
					"type": "uint256"
				}
			],
			"stateMutability": "view",
			"type": "function"
		},
		{
			"inputs": [],
			"name": "balanceOf",
			"outputs": [
				{
					"internalType": "uint256",
					"name": "",
					"type": "uint256"
				}
			],
			"stateMutability": "view",
			"type": "function"
		},
		{
			"inputs": [],
			"name": "calculateHarvestRedBerryRewards",
			"outputs": [
				{
					"internalType": "uint256",
					"name": "",
					"type": "uint256"
				}
			],
			"stateMutability": "view",
			"type": "function"
		},
		{
			"inputs": [],
			"name": "calculateTotalPendingRedBerryRewards",
			"outputs": [
				{
					"internalType": "uint256",
					"name": "",
					"type": "uint256"
				}
			],
			"stateMutability": "view",
			"type": "function"
		},
		{
			"inputs": [],
			"name": "callFee",
			"outputs": [
				{
					"internalType": "uint256",
					"name": "",
					"type": "uint256"
				}
			],
			"stateMutability": "view",
			"type": "function"
		},
		{
			"inputs": [
				{
					"internalType": "uint256",
					"name": "_amount",
					"type": "uint256"
				}
			],
			"name": "deposit",
			"outputs": [],
			"stateMutability": "nonpayable",
			"type": "function"
		},
		{
			"inputs": [],
			"name": "emergencyWithdraw",
			"outputs": [],
			"stateMutability": "nonpayable",
			"type": "function"
		},
		{
			"inputs": [],
			"name": "getPricePerFullShare",
			"outputs": [
				{
					"internalType": "uint256",
					"name": "",
					"type": "uint256"
				}
			],
			"stateMutability": "view",
			"type": "function"
		},
		{
			"inputs": [],
			"name": "harvest",
			"outputs": [],
			"stateMutability": "nonpayable",
			"type": "function"
		},
		{
			"inputs": [
				{
					"internalType": "address",
					"name": "_token",
					"type": "address"
				}
			],
			"name": "inCaseTokensGetStuck",
			"outputs": [],
			"stateMutability": "nonpayable",
			"type": "function"
		},
		{
			"inputs": [],
			"name": "lastHarvestedTime",
			"outputs": [
				{
					"internalType": "uint256",
					"name": "",
					"type": "uint256"
				}
			],
			"stateMutability": "view",
			"type": "function"
		},
		{
			"inputs": [],
			"name": "masterchef",
			"outputs": [
				{
					"internalType": "contract IMasterChef",
					"name": "",
					"type": "address"
				}
			],
			"stateMutability": "view",
			"type": "function"
		},
		{
			"inputs": [],
			"name": "owner",
			"outputs": [
				{
					"internalType": "address",
					"name": "",
					"type": "address"
				}
			],
			"stateMutability": "view",
			"type": "function"
		},
		{
			"inputs": [],
			"name": "pause",
			"outputs": [],
			"stateMutability": "nonpayable",
			"type": "function"
		},
		{
			"inputs": [],
			"name": "paused",
			"outputs": [
				{
					"internalType": "bool",
					"name": "",
					"type": "bool"
				}
			],
			"stateMutability": "view",
			"type": "function"
		},
		{
			"inputs": [],
			"name": "performanceFee",
			"outputs": [
				{
					"internalType": "uint256",
					"name": "",
					"type": "uint256"
				}
			],
			"stateMutability": "view",
			"type": "function"
		},
		{
			"inputs": [],
			"name": "receiptToken",
			"outputs": [
				{
					"internalType": "contract IERC20",
					"name": "",
					"type": "address"
				}
			],
			"stateMutability": "view",
			"type": "function"
		},
		{
			"inputs": [],
			"name": "renounceOwnership",
			"outputs": [],
			"stateMutability": "nonpayable",
			"type": "function"
		},
		{
			"inputs": [
				{
					"internalType": "address",
					"name": "_admin",
					"type": "address"
				}
			],
			"name": "setAdmin",
			"outputs": [],
			"stateMutability": "nonpayable",
			"type": "function"
		},
		{
			"inputs": [
				{
					"internalType": "uint256",
					"name": "_callFee",
					"type": "uint256"
				}
			],
			"name": "setCallFee",
			"outputs": [],
			"stateMutability": "nonpayable",
			"type": "function"
		},
		{
			"inputs": [
				{
					"internalType": "uint256",
					"name": "_performanceFee",
					"type": "uint256"
				}
			],
			"name": "setPerformanceFee",
			"outputs": [],
			"stateMutability": "nonpayable",
			"type": "function"
		},
		{
			"inputs": [
				{
					"internalType": "address",
					"name": "_treasury",
					"type": "address"
				}
			],
			"name": "setTreasury",
			"outputs": [],
			"stateMutability": "nonpayable",
			"type": "function"
		},
		{
			"inputs": [
				{
					"internalType": "uint256",
					"name": "_withdrawFee",
					"type": "uint256"
				}
			],
			"name": "setWithdrawFee",
			"outputs": [],
			"stateMutability": "nonpayable",
			"type": "function"
		},
		{
			"inputs": [
				{
					"internalType": "uint256",
					"name": "_withdrawFeePeriod",
					"type": "uint256"
				}
			],
			"name": "setWithdrawFeePeriod",
			"outputs": [],
			"stateMutability": "nonpayable",
			"type": "function"
		},
		{
			"inputs": [],
			"name": "token",
			"outputs": [
				{
					"internalType": "contract IERC20",
					"name": "",
					"type": "address"
				}
			],
			"stateMutability": "view",
			"type": "function"
		},
		{
			"inputs": [],
			"name": "totalShares",
			"outputs": [
				{
					"internalType": "uint256",
					"name": "",
					"type": "uint256"
				}
			],
			"stateMutability": "view",
			"type": "function"
		},
		{
			"inputs": [
				{
					"internalType": "address",
					"name": "newOwner",
					"type": "address"
				}
			],
			"name": "transferOwnership",
			"outputs": [],
			"stateMutability": "nonpayable",
			"type": "function"
		},
		{
			"inputs": [],
			"name": "treasury",
			"outputs": [
				{
					"internalType": "address",
					"name": "",
					"type": "address"
				}
			],
			"stateMutability": "view",
			"type": "function"
		},
		{
			"inputs": [],
			"name": "unpause",
			"outputs": [],
			"stateMutability": "nonpayable",
			"type": "function"
		},
		{
			"inputs": [
				{
					"internalType": "address",
					"name": "",
					"type": "address"
				}
			],
			"name": "userInfo",
			"outputs": [
				{
					"internalType": "uint256",
					"name": "shares",
					"type": "uint256"
				},
				{
					"internalType": "uint256",
					"name": "lastDepositedTime",
					"type": "uint256"
				},
				{
					"internalType": "uint256",
					"name": "redBerryAtLastUserAction",
					"type": "uint256"
				},
				{
					"internalType": "uint256",
					"name": "lastUserActionTime",
					"type": "uint256"
				}
			],
			"stateMutability": "view",
			"type": "function"
		},
		{
			"inputs": [
				{
					"internalType": "uint256",
					"name": "_shares",
					"type": "uint256"
				}
			],
			"name": "withdraw",
			"outputs": [],
			"stateMutability": "nonpayable",
			"type": "function"
		},
		{
			"inputs": [],
			"name": "withdrawAll",
			"outputs": [],
			"stateMutability": "nonpayable",
			"type": "function"
		},
		{
			"inputs": [],
			"name": "withdrawFee",
			"outputs": [
				{
					"internalType": "uint256",
					"name": "",
					"type": "uint256"
				}
			],
			"stateMutability": "view",
			"type": "function"
		},
		{
			"inputs": [],
			"name": "withdrawFeePeriod",
			"outputs": [
				{
					"internalType": "uint256",
					"name": "",
					"type": "uint256"
				}
			],
			"stateMutability": "view",
			"type": "function"
		}
	]
}